{
  "contractName": "Battleship",
  "abi": [
    {
      "anonymous": false,
      "inputs": [
        {
          "indexed": false,
          "internalType": "uint256",
          "name": "idGame",
          "type": "uint256"
        },
        {
          "indexed": false,
          "internalType": "uint8",
          "name": "response",
          "type": "uint8"
        }
      ],
      "name": "AttackResponse",
      "type": "event"
    },
    {
      "anonymous": false,
      "inputs": [
        {
          "indexed": false,
          "internalType": "uint256",
          "name": "idGame",
          "type": "uint256"
        },
        {
          "indexed": false,
          "internalType": "uint8",
          "name": "cell",
          "type": "uint8"
        }
      ],
      "name": "AttackedCell",
      "type": "event"
    },
    {
      "anonymous": false,
      "inputs": [
        {
          "indexed": false,
          "internalType": "uint8",
          "name": "offer",
          "type": "uint8"
        },
        {
          "indexed": false,
          "internalType": "uint256",
          "name": "idGame",
          "type": "uint256"
        }
      ],
      "name": "CommonOffer",
      "type": "event"
    },
    {
      "anonymous": false,
      "inputs": [
        {
          "indexed": false,
          "internalType": "uint256",
          "name": "idGame",
          "type": "uint256"
        },
        {
          "indexed": false,
          "internalType": "address",
          "name": "winner",
          "type": "address"
        }
      ],
      "name": "EndGame",
      "type": "event"
    },
    {
      "anonymous": false,
      "inputs": [
        {
          "indexed": false,
          "internalType": "address",
          "name": "player",
          "type": "address"
        },
        {
          "indexed": false,
          "internalType": "address",
          "name": "enemy",
          "type": "address"
        },
        {
          "indexed": false,
          "internalType": "uint256",
          "name": "idGame",
          "type": "uint256"
        },
        {
          "indexed": false,
          "internalType": "uint8",
          "name": "boardDimension",
          "type": "uint8"
        }
      ],
      "name": "JoinedGame",
      "type": "event"
    },
    {
      "anonymous": false,
      "inputs": [
        {
          "indexed": false,
          "internalType": "address",
          "name": "player",
          "type": "address"
        },
        {
          "indexed": false,
          "internalType": "uint256",
          "name": "idGame",
          "type": "uint256"
        }
      ],
      "name": "NewGameCreated",
      "type": "event"
    },
    {
      "anonymous": false,
      "inputs": [
        {
          "indexed": false,
          "internalType": "address",
          "name": "bidder",
          "type": "address"
        },
        {
          "indexed": false,
          "internalType": "uint8",
          "name": "offer",
          "type": "uint8"
        },
        {
          "indexed": false,
          "internalType": "uint256",
          "name": "idGame",
          "type": "uint256"
        }
      ],
      "name": "OfferReceived",
      "type": "event"
    },
    {
      "anonymous": false,
      "inputs": [
        {
          "indexed": false,
          "internalType": "uint256",
          "name": "idGame",
          "type": "uint256"
        }
      ],
      "name": "SetGame",
      "type": "event"
    },
    {
      "anonymous": false,
      "inputs": [
        {
          "indexed": false,
          "internalType": "uint256",
          "name": "idGame",
          "type": "uint256"
        }
      ],
      "name": "StartGame",
      "type": "event"
    },
    {
      "anonymous": false,
      "inputs": [
        {
          "indexed": false,
          "internalType": "bytes32",
          "name": "a",
          "type": "bytes32"
        },
        {
          "indexed": false,
          "internalType": "bytes32",
          "name": "b",
          "type": "bytes32"
        },
        {
          "indexed": false,
          "internalType": "uint8",
          "name": "target",
          "type": "uint8"
        }
      ],
      "name": "log",
      "type": "event"
    },
    {
      "inputs": [
        {
          "internalType": "uint8",
          "name": "dimension",
          "type": "uint8"
        }
      ],
      "name": "newGame",
      "outputs": [],
      "stateMutability": "nonpayable",
      "type": "function"
    },
    {
      "inputs": [
        {
          "internalType": "uint256",
          "name": "gameId",
          "type": "uint256"
        }
      ],
      "name": "joinGame",
      "outputs": [],
      "stateMutability": "nonpayable",
      "type": "function"
    },
    {
      "inputs": [
        {
          "internalType": "uint256",
          "name": "gameId",
          "type": "uint256"
        },
        {
          "internalType": "uint8",
          "name": "offer",
          "type": "uint8"
        }
      ],
      "name": "bet",
      "outputs": [],
      "stateMutability": "nonpayable",
      "type": "function"
    },
    {
      "inputs": [
        {
          "internalType": "uint256",
          "name": "gameId",
          "type": "uint256"
        }
      ],
      "name": "pay",
      "outputs": [],
      "stateMutability": "payable",
      "type": "function",
      "payable": true
    },
    {
      "inputs": [
        {
          "internalType": "uint256",
          "name": "gameID",
          "type": "uint256"
        },
        {
          "internalType": "uint8",
          "name": "cellID",
          "type": "uint8"
        }
      ],
      "name": "attack",
      "outputs": [],
      "stateMutability": "nonpayable",
      "type": "function"
    },
    {
      "inputs": [
        {
          "internalType": "uint256",
          "name": "gameID",
          "type": "uint256"
        },
        {
          "internalType": "uint8",
          "name": "value",
          "type": "uint8"
        },
        {
          "internalType": "bytes32[]",
          "name": "merkleProof",
          "type": "bytes32[]"
        },
        {
          "internalType": "uint8",
          "name": "cellID",
          "type": "uint8"
        }
      ],
      "name": "attackResponse",
      "outputs": [],
      "stateMutability": "nonpayable",
      "type": "function"
    },
    {
      "inputs": [],
      "name": "afkPlayer",
      "outputs": [],
      "stateMutability": "nonpayable",
      "type": "function"
    },
    {
      "inputs": [
        {
          "internalType": "uint256",
          "name": "gameID",
          "type": "uint256"
        },
        {
          "internalType": "bytes32",
          "name": "boardHash",
          "type": "bytes32"
        }
      ],
      "name": "board",
      "outputs": [],
      "stateMutability": "nonpayable",
      "type": "function"
    }
  ],
  "bytecode": "0x60806040526001600055600060015534801561001a57600080fd5b5061246f8061002a6000396000f3fe60806040526004361061007b5760003560e01c8063c437a0cd1161004e578063c437a0cd14610105578063df00dc711461012e578063eb80636814610157578063efaa55a0146101805761007b565b80634c73207b146100805780639f3aa7f214610097578063bbf344ce146100c0578063c290d691146100e9575b600080fd5b34801561008c57600080fd5b506100956101a9565b005b3480156100a357600080fd5b506100be60048036038101906100b99190611950565b6101ab565b005b3480156100cc57600080fd5b506100e760048036038101906100e29190611990565b6102d3565b005b61010360048036038101906100fe91906119bd565b6105af565b005b34801561011157600080fd5b5061012c60048036038101906101279190611950565b6107f9565b005b34801561013a57600080fd5b5061015560048036038101906101509190611b79565b610afe565b005b34801561016357600080fd5b5061017e60048036038101906101799190611bfc565b611197565b005b34801561018c57600080fd5b506101a760048036038101906101a291906119bd565b61133f565b005b565b60008210156101ef576040517f08c379a00000000000000000000000000000000000000000000000000000000081526004016101e690611c99565b60405180910390fd5b6000548210610233576040517f08c379a000000000000000000000000000000000000000000000000000000000815260040161022a90611d05565b60405180910390fd5b6002600083815260200190815260200160002060010160149054906101000a900460ff166002600084815260200190815260200160002060010160149054906101000a900460ff166102859190611d54565b60ff168160ff161061029657600080fd5b7fc280882498990ef85d0e9ab56571c30cb4dff4e685ce905f3caaac3ec98c6fb782826040516102c7929190611daf565b60405180910390a15050565b7f72c5d3a1559eb2bbdb341b459f9be7a20ddd182562d779fc4decb64e69678de433600054604051610306929190611e19565b60405180910390a133600260008054815260200190815260200160002060000160006101000a81548173ffffffffffffffffffffffffffffffffffffffff021916908373ffffffffffffffffffffffffffffffffffffffff1602179055506000600260008054815260200190815260200160002060010160006101000a81548173ffffffffffffffffffffffffffffffffffffffff021916908373ffffffffffffffffffffffffffffffffffffffff16021790555080600260008054815260200190815260200160002060010160146101000a81548160ff021916908360ff1602179055506000600260008054815260200190815260200160002060040160006101000a81548160ff0219169083151502179055506000600260008054815260200190815260200160002060040160016101000a81548160ff021916908360ff1602179055506000600260008054815260200190815260200160002060040160026101000a81548160ff021916908360ff1602179055506000801b6002600080548152602001908152602001600020600201819055506000801b6002600080548152602001908152602001600020600301819055506000600260008054815260200190815260200160002060040160036101000a81548160ff0219169083151502179055506000600260008054815260200190815260200160002060040160046101000a81548160ff0219169083151502179055506010600260008054815260200190815260200160002060040160056101000a81548160ff021916908360ff1602179055506010600260008054815260200190815260200160002060040160066101000a81548160ff021916908360ff16021790555060008081548092919061058f90611e42565b9190505550600160008154809291906105a790611e42565b919050555050565b60008110156105f3576040517f08c379a00000000000000000000000000000000000000000000000000000000081526004016105ea90611c99565b60405180910390fd5b6000548110610637576040517f08c379a000000000000000000000000000000000000000000000000000000000815260040161062e90611d05565b60405180910390fd5b3373ffffffffffffffffffffffffffffffffffffffff166002600083815260200190815260200160002060000160009054906101000a900473ffffffffffffffffffffffffffffffffffffffff1673ffffffffffffffffffffffffffffffffffffffff16036106d05760016002600083815260200190815260200160002060040160036101000a81548160ff0219169083151502179055505b3373ffffffffffffffffffffffffffffffffffffffff166002600083815260200190815260200160002060010160009054906101000a900473ffffffffffffffffffffffffffffffffffffffff1673ffffffffffffffffffffffffffffffffffffffff16036107695760016002600083815260200190815260200160002060040160046101000a81548160ff0219169083151502179055505b6002600082815260200190815260200160002060040160039054906101000a900460ff1680156107b957506002600082815260200190815260200160002060040160049054906101000a900460ff165b156107f6577f89d296e0b0d0ef2bd13830476724f0af14967da173593250e67e6924f1f9163a816040516107ed9190611e8a565b60405180910390a15b50565b6002600083815260200190815260200160002060040160029054906101000a900460ff1660ff166002600084815260200190815260200160002060040160019054906101000a900460ff1660ff16036108845760006002600084815260200190815260200160002060040160019054906101000a900460ff1660ff161461087f57600080fd5b6108dd565b6002600083815260200190815260200160002060040160029054906101000a900460ff1660ff166002600084815260200190815260200160002060040160019054906101000a900460ff1660ff16036108dc57600080fd5b5b3373ffffffffffffffffffffffffffffffffffffffff166002600084815260200190815260200160002060000160009054906101000a900473ffffffffffffffffffffffffffffffffffffffff1673ffffffffffffffffffffffffffffffffffffffff160361097657806002600084815260200190815260200160002060040160016101000a81548160ff021916908360ff1602179055505b3373ffffffffffffffffffffffffffffffffffffffff166002600084815260200190815260200160002060010160009054906101000a900473ffffffffffffffffffffffffffffffffffffffff1673ffffffffffffffffffffffffffffffffffffffff1603610a0f57806002600084815260200190815260200160002060040160026101000a81548160ff021916908360ff1602179055505b7f64107d3b58e2bc36cabca25834e1c26c957548fa96238c27b51dccde8b391189338284604051610a4293929190611ea5565b60405180910390a16002600083815260200190815260200160002060040160029054906101000a900460ff1660ff166002600084815260200190815260200160002060040160019054906101000a900460ff1660ff1603610afa577fdfe2304b245885b41d7289335dc7fbe39fffb5822defda4efc1da399129c12e46002600084815260200190815260200160002060040160019054906101000a900460ff1683604051610af1929190611edc565b60405180910390a15b5050565b6000841015610b42576040517f08c379a0000000000000000000000000000000000000000000000000000000008152600401610b3990611c99565b60405180910390fd5b6000548410610b86576040517f08c379a0000000000000000000000000000000000000000000000000000000008152600401610b7d90611d05565b60405180910390fd5b6000819050600083600081518110610ba157610ba0611f05565b5b602002602001015190507f4e3e675d994f2fb6b22f8046d7cbde101137c829b67090a7a442c253d57ff2268185600081518110610be157610be0611f05565b5b602002602001015184604051610bf993929190611f43565b60405180910390a16000600190505b8451811015610d56576000600284610c209190611fa9565b60ff1603610c9957848181518110610c3b57610c3a611f05565b5b60200260200101518214610c935781858281518110610c5d57610c5c611f05565b5b6020026020010151604051602001610c76929190611ffb565b604051602081830303815290604052805190602001209150610c94565b5b610cdf565b848181518110610cac57610cab611f05565b5b602002602001015182604051602001610cc6929190611ffb565b6040516020818303038152906040528051906020012091505b600283610cec9190612027565b92507f4e3e675d994f2fb6b22f8046d7cbde101137c829b67090a7a442c253d57ff22682868381518110610d2357610d22611f05565b5b602002602001015185604051610d3b93929190611f43565b60405180910390a18080610d4e90611e42565b915050610c08565b507f4e3e675d994f2fb6b22f8046d7cbde101137c829b67090a7a442c253d57ff22681600260008981526020019081526020016000206003015484604051610da093929190611f43565b60405180910390a13373ffffffffffffffffffffffffffffffffffffffff166002600088815260200190815260200160002060000160009054906101000a900473ffffffffffffffffffffffffffffffffffffffff1673ffffffffffffffffffffffffffffffffffffffff1603610f9d5780600260008881526020019081526020016000206002015414610e69576040517f08c379a0000000000000000000000000000000000000000000000000000000008152600401610e60906120a4565b60405180910390fd5b60018560ff1603610ec15760026000878152602001908152602001600020600401600581819054906101000a900460ff1680929190610ea7906120c4565b91906101000a81548160ff021916908360ff160217905550505b7f947c83f89088f787849558a38428bf2c2f946698539be2a66a0cac7cc199606c8686604051610ef2929190611daf565b60405180910390a160006002600088815260200190815260200160002060040160059054906101000a900460ff1660ff1603610f98577f84f8e1147ed860fdcb13c73d1ec1bf4aa9cded9250811ad1067ea2e81b61affd866002600089815260200190815260200160002060010160009054906101000a900473ffffffffffffffffffffffffffffffffffffffff16604051610f8f9291906120ed565b60405180910390a15b61118f565b3373ffffffffffffffffffffffffffffffffffffffff166002600088815260200190815260200160002060010160009054906101000a900473ffffffffffffffffffffffffffffffffffffffff1673ffffffffffffffffffffffffffffffffffffffff160361118e578060026000888152602001908152602001600020600301541461105e576040517f08c379a000000000000000000000000000000000000000000000000000000000815260040161105590612162565b60405180910390fd5b60018560ff16036110b65760026000878152602001908152602001600020600401600681819054906101000a900460ff168092919061109c906120c4565b91906101000a81548160ff021916908360ff160217905550505b7f947c83f89088f787849558a38428bf2c2f946698539be2a66a0cac7cc199606c86866040516110e7929190611daf565b60405180910390a160006002600088815260200190815260200160002060040160069054906101000a900460ff1660ff160361118d577f84f8e1147ed860fdcb13c73d1ec1bf4aa9cded9250811ad1067ea2e81b61affd866002600089815260200190815260200160002060000160009054906101000a900473ffffffffffffffffffffffffffffffffffffffff166040516111849291906120ed565b60405180910390a15b5b5b505050505050565b60005482106111a557600080fd5b600082116111b257600080fd5b3373ffffffffffffffffffffffffffffffffffffffff166002600084815260200190815260200160002060000160009054906101000a900473ffffffffffffffffffffffffffffffffffffffff1673ffffffffffffffffffffffffffffffffffffffff1603611237578060026000848152602001908152602001600020600201819055505b3373ffffffffffffffffffffffffffffffffffffffff166002600084815260200190815260200160002060010160009054906101000a900473ffffffffffffffffffffffffffffffffffffffff1673ffffffffffffffffffffffffffffffffffffffff16036112bc578060026000848152602001908152602001600020600301819055505b6000801b6002600084815260200190815260200160002060020154141580156112fe57506000801b600260008481526020019081526020016000206003015414155b1561133b577f12333b322723ec26360eb708b341801ecca576387b55caa77d6e408107d2c70f826040516113329190611e8a565b60405180910390a15b5050565b6000811015611383576040517f08c379a000000000000000000000000000000000000000000000000000000000815260040161137a90611c99565b60405180910390fd5b60005481106113c7576040517f08c379a00000000000000000000000000000000000000000000000000000000081526004016113be90611d05565b60405180910390fd5b60006001541161140c576040517f08c379a0000000000000000000000000000000000000000000000000000000008152600401611403906121ce565b60405180910390fd5b6000810361167d57600060014361142391906121ee565b4090506000602067ffffffffffffffff81111561144357611442611a00565b5b6040519080825280601f01601f1916602001820160405280156114755781602001600182028036833780820191505090505b50905060005b60208110156114f05782816020811061149757611496611f05565b5b1a60f81b8282815181106114ae576114ad611f05565b5b60200101907effffffffffffffffffffffffffffffffffffffffffffffffffffffffffffff1916908160001a90535080806114e890611e42565b91505061147b565b506000818051906020012090506000600180548360001c6115119190612222565b61151b9190612253565b90506000600190505b60005481101561163057600082031561163057600073ffffffffffffffffffffffffffffffffffffffff166002600083815260200190815260200160002060010160009054906101000a900473ffffffffffffffffffffffffffffffffffffffff1673ffffffffffffffffffffffffffffffffffffffff160361161d5781806115ac90612287565b9250503373ffffffffffffffffffffffffffffffffffffffff166002600083815260200190815260200160002060000160009054906101000a900473ffffffffffffffffffffffffffffffffffffffff1673ffffffffffffffffffffffffffffffffffffffff161461161c578095505b5b808061162890611e42565b915050611524565b5060008503611674576040517f08c379a000000000000000000000000000000000000000000000000000000000815260040161166b906122fc565b60405180910390fd5b505050506117c7565b3373ffffffffffffffffffffffffffffffffffffffff166002600083815260200190815260200160002060000160009054906101000a900473ffffffffffffffffffffffffffffffffffffffff1673ffffffffffffffffffffffffffffffffffffffff1603611721576040517f08c379a000000000000000000000000000000000000000000000000000000000815260040161171890612368565b60405180910390fd5b600073ffffffffffffffffffffffffffffffffffffffff166002600083815260200190815260200160002060010160009054906101000a900473ffffffffffffffffffffffffffffffffffffffff1673ffffffffffffffffffffffffffffffffffffffff16146117c6576040517f08c379a00000000000000000000000000000000000000000000000000000000081526004016117bd906123d4565b60405180910390fd5b5b336002600083815260200190815260200160002060010160006101000a81548173ffffffffffffffffffffffffffffffffffffffff021916908373ffffffffffffffffffffffffffffffffffffffff1602179055506001600081548092919061182f90612287565b91905055507f276a7f782d740627e426973b863f244fee07739e8e648ddc3cb52485808b04d36002600083815260200190815260200160002060000160009054906101000a900473ffffffffffffffffffffffffffffffffffffffff1633836002600086815260200190815260200160002060010160149054906101000a900460ff166040516118c294939291906123f4565b60405180910390a150565b6000604051905090565b600080fd5b600080fd5b6000819050919050565b6118f4816118e1565b81146118ff57600080fd5b50565b600081359050611911816118eb565b92915050565b600060ff82169050919050565b61192d81611917565b811461193857600080fd5b50565b60008135905061194a81611924565b92915050565b60008060408385031215611967576119666118d7565b5b600061197585828601611902565b92505060206119868582860161193b565b9150509250929050565b6000602082840312156119a6576119a56118d7565b5b60006119b48482850161193b565b91505092915050565b6000602082840312156119d3576119d26118d7565b5b60006119e184828501611902565b91505092915050565b600080fd5b6000601f19601f8301169050919050565b7f4e487b7100000000000000000000000000000000000000000000000000000000600052604160045260246000fd5b611a38826119ef565b810181811067ffffffffffffffff82111715611a5757611a56611a00565b5b80604052505050565b6000611a6a6118cd565b9050611a768282611a2f565b919050565b600067ffffffffffffffff821115611a9657611a95611a00565b5b602082029050602081019050919050565b600080fd5b6000819050919050565b611abf81611aac565b8114611aca57600080fd5b50565b600081359050611adc81611ab6565b92915050565b6000611af5611af084611a7b565b611a60565b90508083825260208201905060208402830185811115611b1857611b17611aa7565b5b835b81811015611b415780611b2d8882611acd565b845260208401935050602081019050611b1a565b5050509392505050565b600082601f830112611b6057611b5f6119ea565b5b8135611b70848260208601611ae2565b91505092915050565b60008060008060808587031215611b9357611b926118d7565b5b6000611ba187828801611902565b9450506020611bb28782880161193b565b935050604085013567ffffffffffffffff811115611bd357611bd26118dc565b5b611bdf87828801611b4b565b9250506060611bf08782880161193b565b91505092959194509250565b60008060408385031215611c1357611c126118d7565b5b6000611c2185828601611902565b9250506020611c3285828601611acd565b9150509250929050565b600082825260208201905092915050565b7f4944206d7573742062652067726561746572207468616e203000000000000000600082015250565b6000611c83601983611c3c565b9150611c8e82611c4d565b602082019050919050565b60006020820190508181036000830152611cb281611c76565b9050919050565b7f47616d65206e6f74206f70656e00000000000000000000000000000000000000600082015250565b6000611cef600d83611c3c565b9150611cfa82611cb9565b602082019050919050565b60006020820190508181036000830152611d1e81611ce2565b9050919050565b7f4e487b7100000000000000000000000000000000000000000000000000000000600052601160045260246000fd5b6000611d5f82611917565b9150611d6a83611917565b9250828202611d7881611917565b9150808214611d8a57611d89611d25565b5b5092915050565b611d9a816118e1565b82525050565b611da981611917565b82525050565b6000604082019050611dc46000830185611d91565b611dd16020830184611da0565b9392505050565b600073ffffffffffffffffffffffffffffffffffffffff82169050919050565b6000611e0382611dd8565b9050919050565b611e1381611df8565b82525050565b6000604082019050611e2e6000830185611e0a565b611e3b6020830184611d91565b9392505050565b6000611e4d826118e1565b91507fffffffffffffffffffffffffffffffffffffffffffffffffffffffffffffffff8203611e7f57611e7e611d25565b5b600182019050919050565b6000602082019050611e9f6000830184611d91565b92915050565b6000606082019050611eba6000830186611e0a565b611ec76020830185611da0565b611ed46040830184611d91565b949350505050565b6000604082019050611ef16000830185611da0565b611efe6020830184611d91565b9392505050565b7f4e487b7100000000000000000000000000000000000000000000000000000000600052603260045260246000fd5b611f3d81611aac565b82525050565b6000606082019050611f586000830186611f34565b611f656020830185611f34565b611f726040830184611da0565b949350505050565b7f4e487b7100000000000000000000000000000000000000000000000000000000600052601260045260246000fd5b6000611fb482611917565b9150611fbf83611917565b925082611fcf57611fce611f7a565b5b828206905092915050565b6000819050919050565b611ff5611ff082611aac565b611fda565b82525050565b60006120078285611fe4565b6020820191506120178284611fe4565b6020820191508190509392505050565b600061203282611917565b915061203d83611917565b92508261204d5761204c611f7a565b5b828204905092915050565b7f50726f6f66206e6f742076657269666965642066726f6d20706c617965720000600082015250565b600061208e601e83611c3c565b915061209982612058565b602082019050919050565b600060208201905081810360008301526120bd81612081565b9050919050565b60006120cf82611917565b9150600082036120e2576120e1611d25565b5b600182039050919050565b60006040820190506121026000830185611d91565b61210f6020830184611e0a565b9392505050565b7f50726f6f66206e6f742076657269666965642066726f6d20656e656d79000000600082015250565b600061214c601d83611c3c565b915061215782612116565b602082019050919050565b6000602082019050818103600083015261217b8161213f565b9050919050565b7f4e6f2067616d657320617661696c61626c650000000000000000000000000000600082015250565b60006121b8601283611c3c565b91506121c382612182565b602082019050919050565b600060208201905081810360008301526121e7816121ab565b9050919050565b60006121f9826118e1565b9150612204836118e1565b925082820390508181111561221c5761221b611d25565b5b92915050565b600061222d826118e1565b9150612238836118e1565b92508261224857612247611f7a565b5b828206905092915050565b600061225e826118e1565b9150612269836118e1565b925082820190508082111561228157612280611d25565b5b92915050565b6000612292826118e1565b9150600082036122a5576122a4611d25565b5b600182039050919050565b7f4d61746368206e6f7420666f756e640000000000000000000000000000000000600082015250565b60006122e6600f83611c3c565b91506122f1826122b0565b602082019050919050565b60006020820190508181036000830152612315816122d9565b9050919050565b7f596f752063616e6e6f74206a6f696e20796f7572206f776e2067616d65000000600082015250565b6000612352601d83611c3c565b915061235d8261231c565b602082019050919050565b6000602082019050818103600083015261238181612345565b9050919050565b7f47616d6520616c7265616479206861732074776f20706c617965727300000000600082015250565b60006123be601c83611c3c565b91506123c982612388565b602082019050919050565b600060208201905081810360008301526123ed816123b1565b9050919050565b60006080820190506124096000830187611e0a565b6124166020830186611e0a565b6124236040830185611d91565b6124306060830184611da0565b9594505050505056fea264697066735822122044491b0854120ca4e1dd8236963972246edb58f013b53569b5fb50834076622a64736f6c63430008130033",
  "immutableReferences": {},
  "source": "// SPDX-License-Identifier: MIT\npragma solidity >=0.4.22 <0.9.0;\n\ncontract Battleship {\n  uint256 private nextGameID = 1;\n  uint256 private counter = 0;  //conta il numero di partite aperte\n\n  struct Game {\n    address player;\n    address enemy;    //address(0): non c' il giocatore\n    uint8 boardDimension;\n    bytes32 playerGridHash;\n    bytes32 enemyGridHash;\n    bool ended;       //false: la partita non  finita; true: la partita  finita\n    uint8 playerOffer;\n    uint8 enemyOffer;\n    bool playerPay;   //false: il giocatore non ha pagato\n    bool enemyPay;    //false: enemy non ha pagato\n    uint8 playerHitSum; \n    uint8 enemyHitSum;\n  }\n\n  mapping (uint256 => Game) private games;\n  event NewGameCreated(address player, uint256 idGame);\n  event JoinedGame(address player, address enemy, uint256 idGame, uint8 boardDimension);\n  event OfferReceived(address bidder, uint8 offer, uint256 idGame);\n  event CommonOffer(uint8 offer, uint256 idGame);\n  event SetGame(uint256 idGame);\n  event StartGame(uint256 idGame);\n  event AttackedCell(uint256 idGame, uint8 cell);\n  event AttackResponse(uint256 idGame, uint8 response);\n  event EndGame(uint256 idGame, address winner);\n\n  event log(bytes32 a, bytes32 b, uint8 target);\n\n  function newGame(uint8 dimension) public {\n    emit NewGameCreated(msg.sender, nextGameID);\n    games[nextGameID].player = msg.sender;\n    games[nextGameID].enemy = address(0);\n    games[nextGameID].boardDimension = dimension;\n    games[nextGameID].ended = false;\n    games[nextGameID].playerOffer = 0;\n    games[nextGameID].enemyOffer = 0;\n    games[nextGameID].playerGridHash = 0;\n    games[nextGameID].enemyGridHash = 0;\n    games[nextGameID].playerPay = false;\n    games[nextGameID].enemyPay = false;\n    games[nextGameID].playerHitSum = 16;\n    games[nextGameID].enemyHitSum = 16;\n    nextGameID++;\n    counter++;\n  }\n\n  function joinGame(uint256 gameId) public {   //gestisce sia il random che non\n    require(gameId >= 0, \"ID must be greater than 0\");\n    require(gameId < nextGameID, \"Game not open\");\n    require(counter > 0, \"No games available\");\n\n    //randomness\n    if(gameId == 0) {\n      bytes32 bhash = blockhash(block.number - 1);\n      bytes memory bytesArray = new bytes(32);\n      for (uint i; i < 32; i++) {\n          bytesArray[i] = bhash[i];\n      }\n      bytes32 rand = keccak256(bytesArray);\n      uint256 index = uint256(rand) % counter + 1;\n\n      for(uint256 j = 1; j < nextGameID; j++) {\n        if(index == 0) {\n          break;\n        }\n        if(games[j].enemy == address(0)) {\n          index--;\n          if(games[j].player != msg.sender)   //un giocatore non pu unirsi alla sua stessa partita\n            gameId = j;\n        }\n      }\n      if(gameId == 0)\n        revert(\"Match not found\");\n    }\n    //not random\n    else {\n      if(games[gameId].player == msg.sender)\n        revert(\"You cannot join your own game\"); \n      if(games[gameId].enemy != address(0))\n        revert(\"Game already has two players\");      \n    }\n    games[gameId].enemy = msg.sender;\n    counter--;\n    emit JoinedGame(games[gameId].player, msg.sender, gameId, games[gameId].boardDimension);\n  } \n\n  function bet(uint256 gameId, uint8 offer) public {\n    \n    if (games[gameId].playerOffer == games[gameId].enemyOffer) require(games[gameId].playerOffer == 0);\n    else require(games[gameId].playerOffer != games[gameId].enemyOffer);\n\n    if (games[gameId].player == msg.sender) games[gameId].playerOffer = offer;\n    if (games[gameId].enemy == msg.sender) games[gameId].enemyOffer = offer;\n\n    emit OfferReceived(msg.sender, offer, gameId);\n\n    if (games[gameId].playerOffer == games[gameId].enemyOffer) {\n      emit CommonOffer(games[gameId].playerOffer, gameId);\n    }\n\n  }\n\n  function pay(uint256 gameId) public payable {\n    require(gameId >= 0, \"ID must be greater than 0\");\n    require(gameId < nextGameID, \"Game not open\");    \n\n    if (games[gameId].player == msg.sender) games[gameId].playerPay = true;\n    if (games[gameId].enemy == msg.sender) games[gameId].enemyPay = true;\n\n    if(games[gameId].playerPay && games[gameId].enemyPay) emit SetGame(gameId);\n  }\n\n  function attack(uint256 gameID, uint8 cellID) public {\n    require(gameID >= 0, \"ID must be greater than 0\");\n    require(gameID < nextGameID, \"Game not open\");\n    require(cellID < games[gameID].boardDimension * games[gameID].boardDimension);\n\n    emit AttackedCell(gameID, cellID);\n  }\n\n  function attackResponse(uint256 gameID, uint8 value, bytes32[] memory merkleProof, uint8 cellID) public {\n    require(gameID >= 0, \"ID must be greater than 0\");\n    require(gameID < nextGameID, \"Game not open\");\n\n    uint8 target = cellID;\n    bytes32 proofRoot = merkleProof[0];\n    emit log(proofRoot, merkleProof[0], target);\n    for(uint i = 1; i < merkleProof.length; i++) {\n      if(target%2 == 0) {\n        if(proofRoot != merkleProof[i])\n          proofRoot = keccak256(abi.encodePacked(proofRoot, merkleProof[i]));\n        else\n          proofRoot = proofRoot;\n      }\n      else\n        proofRoot = keccak256(abi.encodePacked(merkleProof[i], proofRoot));\n      \n      target = target / 2;\n  \n      emit log(proofRoot, merkleProof[i], target);\n    }\n\n    emit log(proofRoot, games[gameID].enemyGridHash, target);\n\n    if (games[gameID].player == msg.sender) {\n      require(games[gameID].playerGridHash == proofRoot, \"Proof not verified from player\");\n      if(value == 1) \n        games[gameID].playerHitSum--;\n      emit AttackResponse(gameID, value);\n\n      if(games[gameID].playerHitSum == 0)\n        emit EndGame(gameID, games[gameID].enemy);\n    }\n    else if (games[gameID].enemy == msg.sender) {\n      require(games[gameID].enemyGridHash == proofRoot, \"Proof not verified from enemy\");\n      if(value == 1) \n        games[gameID].enemyHitSum--;\n      emit AttackResponse(gameID, value);\n\n      if(games[gameID].enemyHitSum == 0)\n        emit EndGame(gameID, games[gameID].player);\n    }\n    \n  }\n\n  function checkWinner() private {}\n\n  function endGame() private {}\n\n  function afkPlayer() public {}\n\n  function board(uint256 gameID, bytes32 boardHash) public {\n    require(gameID < nextGameID);\n    require(gameID > 0);\n    \n    if (games[gameID].player == msg.sender) games[gameID].playerGridHash = boardHash;\n    if (games[gameID].enemy == msg.sender) games[gameID].enemyGridHash = boardHash;\n    \n    if(games[gameID].playerGridHash != 0 && games[gameID].enemyGridHash != 0) emit StartGame(gameID);\n  }\n\n}",
  "sourcePath": "/home/luca/block/solidity_projects/project/contracts/Battleship.sol",
  "compiler": {
    "name": "solc",
    "version": "0.8.19+commit.7dd6d404.Emscripten.clang"
  },
  "schemaVersion": "3.4.13",
  "updatedAt": "2023-06-06T19:25:43.981Z",
  "networkType": "ethereum",
  "devdoc": {
    "kind": "dev",
    "methods": {},
    "version": 1
  },
  "userdoc": {
    "kind": "user",
    "methods": {},
    "version": 1
  }
}