{
  "contractName": "Battleship",
  "abi": [
    {
      "anonymous": false,
      "inputs": [],
      "name": "BoardAdded",
      "type": "event"
    },
    {
      "anonymous": false,
      "inputs": [
        {
          "indexed": false,
          "internalType": "uint8",
          "name": "offer",
          "type": "uint8"
        },
        {
          "indexed": false,
          "internalType": "uint256",
          "name": "idGame",
          "type": "uint256"
        }
      ],
      "name": "CommonOffer",
      "type": "event"
    },
    {
      "anonymous": false,
      "inputs": [
        {
          "indexed": false,
          "internalType": "address",
          "name": "player",
          "type": "address"
        },
        {
          "indexed": false,
          "internalType": "address",
          "name": "enemy",
          "type": "address"
        },
        {
          "indexed": false,
          "internalType": "uint256",
          "name": "idGame",
          "type": "uint256"
        },
        {
          "indexed": false,
          "internalType": "uint8",
          "name": "boardDimension",
          "type": "uint8"
        }
      ],
      "name": "JoinedGame",
      "type": "event"
    },
    {
      "anonymous": false,
      "inputs": [
        {
          "indexed": false,
          "internalType": "address",
          "name": "player",
          "type": "address"
        },
        {
          "indexed": false,
          "internalType": "uint256",
          "name": "idGame",
          "type": "uint256"
        }
      ],
      "name": "NewGameCreated",
      "type": "event"
    },
    {
      "anonymous": false,
      "inputs": [
        {
          "indexed": false,
          "internalType": "address",
          "name": "bidder",
          "type": "address"
        },
        {
          "indexed": false,
          "internalType": "uint8",
          "name": "offer",
          "type": "uint8"
        },
        {
          "indexed": false,
          "internalType": "uint256",
          "name": "idGame",
          "type": "uint256"
        }
      ],
      "name": "OfferReceived",
      "type": "event"
    },
    {
      "anonymous": false,
      "inputs": [
        {
          "indexed": false,
          "internalType": "uint256",
          "name": "idGame",
          "type": "uint256"
        }
      ],
      "name": "SetGame",
      "type": "event"
    },
    {
      "inputs": [
        {
          "internalType": "uint8",
          "name": "dimension",
          "type": "uint8"
        }
      ],
      "name": "newGame",
      "outputs": [],
      "stateMutability": "nonpayable",
      "type": "function"
    },
    {
      "inputs": [
        {
          "internalType": "uint256",
          "name": "gameId",
          "type": "uint256"
        }
      ],
      "name": "joinGame",
      "outputs": [],
      "stateMutability": "nonpayable",
      "type": "function"
    },
    {
      "inputs": [
        {
          "internalType": "uint256",
          "name": "gameId",
          "type": "uint256"
        },
        {
          "internalType": "uint8",
          "name": "offer",
          "type": "uint8"
        }
      ],
      "name": "bet",
      "outputs": [],
      "stateMutability": "nonpayable",
      "type": "function"
    },
    {
      "inputs": [
        {
          "internalType": "uint256",
          "name": "gameId",
          "type": "uint256"
        }
      ],
      "name": "pay",
      "outputs": [],
      "stateMutability": "payable",
      "type": "function",
      "payable": true
    },
    {
      "inputs": [],
      "name": "attack",
      "outputs": [],
      "stateMutability": "nonpayable",
      "type": "function"
    },
    {
      "inputs": [],
      "name": "afkPlayer",
      "outputs": [],
      "stateMutability": "nonpayable",
      "type": "function"
    },
    {
      "inputs": [
        {
          "internalType": "bytes32",
          "name": "boardHash",
          "type": "bytes32"
        },
        {
          "internalType": "uint256",
          "name": "gameID",
          "type": "uint256"
        }
      ],
      "name": "board",
      "outputs": [],
      "stateMutability": "nonpayable",
      "type": "function"
    }
  ],
  "bytecode": "0x60806040526001600055600060015534801561001a57600080fd5b506116858061002a6000396000f3fe6080604052600436106100705760003560e01c8063bbf344ce1161004e578063bbf344ce146100cc578063c290d691146100f5578063c437a0cd14610111578063efaa55a01461013a57610070565b80634c73207b146100755780638f6e47221461008c5780639e5faafc146100b5575b600080fd5b34801561008157600080fd5b5061008a610163565b005b34801561009857600080fd5b506100b360048036038101906100ae9190610f95565b610165565b005b3480156100c157600080fd5b506100ca6101cb565b005b3480156100d857600080fd5b506100f360048036038101906100ee919061100e565b6101cd565b005b61010f600480360381019061010a919061103b565b610447565b005b34801561011d57600080fd5b5061013860048036038101906101339190611068565b610691565b005b34801561014657600080fd5b50610161600480360381019061015c919061103b565b610996565b005b565b600054811061017357600080fd5b6000811161018057600080fd5b7faf79e799cd35f75cd0a667f0fd35e9dba003a5d86156fa68f0af5988ad1b636060405160405180910390a18160026000838152602001908152602001600020600201819055505050565b565b7f72c5d3a1559eb2bbdb341b459f9be7a20ddd182562d779fc4decb64e69678de4336000546040516102009291906110f8565b60405180910390a133600260008054815260200190815260200160002060000160006101000a81548173ffffffffffffffffffffffffffffffffffffffff021916908373ffffffffffffffffffffffffffffffffffffffff1602179055506000600260008054815260200190815260200160002060010160006101000a81548173ffffffffffffffffffffffffffffffffffffffff021916908373ffffffffffffffffffffffffffffffffffffffff16021790555080600260008054815260200190815260200160002060010160146101000a81548160ff021916908360ff1602179055506000600260008054815260200190815260200160002060040160006101000a81548160ff0219169083151502179055506000600260008054815260200190815260200160002060040160016101000a81548160ff021916908360ff1602179055506000600260008054815260200190815260200160002060040160026101000a81548160ff021916908360ff1602179055506000801b6002600080548152602001908152602001600020600201819055506000801b6002600080548152602001908152602001600020600301819055506000600260008054815260200190815260200160002060040160036101000a81548160ff0219169083151502179055506000600260008054815260200190815260200160002060040160046101000a81548160ff02191690831515021790555060008081548092919061042790611150565b91905055506001600081548092919061043f90611150565b919050555050565b600081101561048b576040517f08c379a0000000000000000000000000000000000000000000000000000000008152600401610482906111f5565b60405180910390fd5b60005481106104cf576040517f08c379a00000000000000000000000000000000000000000000000000000000081526004016104c690611261565b60405180910390fd5b3373ffffffffffffffffffffffffffffffffffffffff166002600083815260200190815260200160002060000160009054906101000a900473ffffffffffffffffffffffffffffffffffffffff1673ffffffffffffffffffffffffffffffffffffffff16036105685760016002600083815260200190815260200160002060040160036101000a81548160ff0219169083151502179055505b3373ffffffffffffffffffffffffffffffffffffffff166002600083815260200190815260200160002060010160009054906101000a900473ffffffffffffffffffffffffffffffffffffffff1673ffffffffffffffffffffffffffffffffffffffff16036106015760016002600083815260200190815260200160002060040160046101000a81548160ff0219169083151502179055505b6002600082815260200190815260200160002060040160039054906101000a900460ff16801561065157506002600082815260200190815260200160002060040160049054906101000a900460ff165b1561068e577f89d296e0b0d0ef2bd13830476724f0af14967da173593250e67e6924f1f9163a816040516106859190611281565b60405180910390a15b50565b6002600083815260200190815260200160002060040160029054906101000a900460ff1660ff166002600084815260200190815260200160002060040160019054906101000a900460ff1660ff160361071c5760006002600084815260200190815260200160002060040160019054906101000a900460ff1660ff161461071757600080fd5b610775565b6002600083815260200190815260200160002060040160029054906101000a900460ff1660ff166002600084815260200190815260200160002060040160019054906101000a900460ff1660ff160361077457600080fd5b5b3373ffffffffffffffffffffffffffffffffffffffff166002600084815260200190815260200160002060000160009054906101000a900473ffffffffffffffffffffffffffffffffffffffff1673ffffffffffffffffffffffffffffffffffffffff160361080e57806002600084815260200190815260200160002060040160016101000a81548160ff021916908360ff1602179055505b3373ffffffffffffffffffffffffffffffffffffffff166002600084815260200190815260200160002060010160009054906101000a900473ffffffffffffffffffffffffffffffffffffffff1673ffffffffffffffffffffffffffffffffffffffff16036108a757806002600084815260200190815260200160002060040160026101000a81548160ff021916908360ff1602179055505b7f64107d3b58e2bc36cabca25834e1c26c957548fa96238c27b51dccde8b3911893382846040516108da939291906112ab565b60405180910390a16002600083815260200190815260200160002060040160029054906101000a900460ff1660ff166002600084815260200190815260200160002060040160019054906101000a900460ff1660ff1603610992577fdfe2304b245885b41d7289335dc7fbe39fffb5822defda4efc1da399129c12e46002600084815260200190815260200160002060040160019054906101000a900460ff16836040516109899291906112e2565b60405180910390a15b5050565b60008110156109da576040517f08c379a00000000000000000000000000000000000000000000000000000000081526004016109d1906111f5565b60405180910390fd5b6000548110610a1e576040517f08c379a0000000000000000000000000000000000000000000000000000000008152600401610a1590611261565b60405180910390fd5b600060015411610a63576040517f08c379a0000000000000000000000000000000000000000000000000000000008152600401610a5a90611357565b60405180910390fd5b60008103610cd4576000600143610a7a9190611377565b4090506000602067ffffffffffffffff811115610a9a57610a996113ab565b5b6040519080825280601f01601f191660200182016040528015610acc5781602001600182028036833780820191505090505b50905060005b6020811015610b4757828160208110610aee57610aed6113da565b5b1a60f81b828281518110610b0557610b046113da565b5b60200101907effffffffffffffffffffffffffffffffffffffffffffffffffffffffffffff1916908160001a9053508080610b3f90611150565b915050610ad2565b506000818051906020012090506000600180548360001c610b689190611438565b610b729190611469565b90506000600190505b600054811015610c87576000820315610c8757600073ffffffffffffffffffffffffffffffffffffffff166002600083815260200190815260200160002060010160009054906101000a900473ffffffffffffffffffffffffffffffffffffffff1673ffffffffffffffffffffffffffffffffffffffff1603610c74578180610c039061149d565b9250503373ffffffffffffffffffffffffffffffffffffffff166002600083815260200190815260200160002060000160009054906101000a900473ffffffffffffffffffffffffffffffffffffffff1673ffffffffffffffffffffffffffffffffffffffff1614610c73578095505b5b8080610c7f90611150565b915050610b7b565b5060008503610ccb576040517f08c379a0000000000000000000000000000000000000000000000000000000008152600401610cc290611512565b60405180910390fd5b50505050610e1e565b3373ffffffffffffffffffffffffffffffffffffffff166002600083815260200190815260200160002060000160009054906101000a900473ffffffffffffffffffffffffffffffffffffffff1673ffffffffffffffffffffffffffffffffffffffff1603610d78576040517f08c379a0000000000000000000000000000000000000000000000000000000008152600401610d6f9061157e565b60405180910390fd5b600073ffffffffffffffffffffffffffffffffffffffff166002600083815260200190815260200160002060010160009054906101000a900473ffffffffffffffffffffffffffffffffffffffff1673ffffffffffffffffffffffffffffffffffffffff1614610e1d576040517f08c379a0000000000000000000000000000000000000000000000000000000008152600401610e14906115ea565b60405180910390fd5b5b336002600083815260200190815260200160002060010160006101000a81548173ffffffffffffffffffffffffffffffffffffffff021916908373ffffffffffffffffffffffffffffffffffffffff16021790555060016000815480929190610e869061149d565b91905055507f276a7f782d740627e426973b863f244fee07739e8e648ddc3cb52485808b04d36002600083815260200190815260200160002060000160009054906101000a900473ffffffffffffffffffffffffffffffffffffffff1633836002600086815260200190815260200160002060010160149054906101000a900460ff16604051610f19949392919061160a565b60405180910390a150565b600080fd5b6000819050919050565b610f3c81610f29565b8114610f4757600080fd5b50565b600081359050610f5981610f33565b92915050565b6000819050919050565b610f7281610f5f565b8114610f7d57600080fd5b50565b600081359050610f8f81610f69565b92915050565b60008060408385031215610fac57610fab610f24565b5b6000610fba85828601610f4a565b9250506020610fcb85828601610f80565b9150509250929050565b600060ff82169050919050565b610feb81610fd5565b8114610ff657600080fd5b50565b60008135905061100881610fe2565b92915050565b60006020828403121561102457611023610f24565b5b600061103284828501610ff9565b91505092915050565b60006020828403121561105157611050610f24565b5b600061105f84828501610f80565b91505092915050565b6000806040838503121561107f5761107e610f24565b5b600061108d85828601610f80565b925050602061109e85828601610ff9565b9150509250929050565b600073ffffffffffffffffffffffffffffffffffffffff82169050919050565b60006110d3826110a8565b9050919050565b6110e3816110c8565b82525050565b6110f281610f5f565b82525050565b600060408201905061110d60008301856110da565b61111a60208301846110e9565b9392505050565b7f4e487b7100000000000000000000000000000000000000000000000000000000600052601160045260246000fd5b600061115b82610f5f565b91507fffffffffffffffffffffffffffffffffffffffffffffffffffffffffffffffff820361118d5761118c611121565b5b600182019050919050565b600082825260208201905092915050565b7f4944206d7573742062652067726561746572207468616e203000000000000000600082015250565b60006111df601983611198565b91506111ea826111a9565b602082019050919050565b6000602082019050818103600083015261120e816111d2565b9050919050565b7f47616d65206e6f74206f70656e00000000000000000000000000000000000000600082015250565b600061124b600d83611198565b915061125682611215565b602082019050919050565b6000602082019050818103600083015261127a8161123e565b9050919050565b600060208201905061129660008301846110e9565b92915050565b6112a581610fd5565b82525050565b60006060820190506112c060008301866110da565b6112cd602083018561129c565b6112da60408301846110e9565b949350505050565b60006040820190506112f7600083018561129c565b61130460208301846110e9565b9392505050565b7f4e6f2067616d657320617661696c61626c650000000000000000000000000000600082015250565b6000611341601283611198565b915061134c8261130b565b602082019050919050565b6000602082019050818103600083015261137081611334565b9050919050565b600061138282610f5f565b915061138d83610f5f565b92508282039050818111156113a5576113a4611121565b5b92915050565b7f4e487b7100000000000000000000000000000000000000000000000000000000600052604160045260246000fd5b7f4e487b7100000000000000000000000000000000000000000000000000000000600052603260045260246000fd5b7f4e487b7100000000000000000000000000000000000000000000000000000000600052601260045260246000fd5b600061144382610f5f565b915061144e83610f5f565b92508261145e5761145d611409565b5b828206905092915050565b600061147482610f5f565b915061147f83610f5f565b925082820190508082111561149757611496611121565b5b92915050565b60006114a882610f5f565b9150600082036114bb576114ba611121565b5b600182039050919050565b7f4d61746368206e6f7420666f756e640000000000000000000000000000000000600082015250565b60006114fc600f83611198565b9150611507826114c6565b602082019050919050565b6000602082019050818103600083015261152b816114ef565b9050919050565b7f596f752063616e6e6f74206a6f696e20796f7572206f776e2067616d65000000600082015250565b6000611568601d83611198565b915061157382611532565b602082019050919050565b600060208201905081810360008301526115978161155b565b9050919050565b7f47616d6520616c7265616479206861732074776f20706c617965727300000000600082015250565b60006115d4601c83611198565b91506115df8261159e565b602082019050919050565b60006020820190508181036000830152611603816115c7565b9050919050565b600060808201905061161f60008301876110da565b61162c60208301866110da565b61163960408301856110e9565b611646606083018461129c565b9594505050505056fea26469706673582212203dee1e565f1544e17eed4db9a166b49e51927877df7b74307be553a8c7f67c6e64736f6c63430008130033",
  "immutableReferences": {},
  "source": "// SPDX-License-Identifier: MIT\npragma solidity >=0.4.22 <0.9.0;\n\ncontract Battleship {\n  uint256 private nextGameID = 1;\n  uint256 private counter = 0;  //conta il numero di partite aperte\n\n  struct Game {\n    address player;\n    address enemy;    //address(0): non c' il giocatore\n    uint8 boardDimension;\n    bytes32 playerGridHash;\n    bytes32 enemyGridHash;\n    bool ended;       //false: la partita non  finita; true: la partita  finita\n    uint8 playerOffer;\n    uint8 enemyOffer;\n    bool playerPay;   // \n    bool enemyPay;    //\n  }\n\n  mapping (uint256 => Game) private games;\n  event NewGameCreated(address player, uint256 idGame);\n  event JoinedGame(address player, address enemy, uint256 idGame, uint8 boardDimension);\n  event BoardAdded();\n  event OfferReceived(address bidder, uint8 offer, uint256 idGame);\n  event CommonOffer(uint8 offer, uint256 idGame);\n  event SetGame(uint256 idGame);\n\n  function newGame(uint8 dimension) public {\n    emit NewGameCreated(msg.sender, nextGameID);\n    games[nextGameID].player = msg.sender;\n    games[nextGameID].enemy = address(0);\n    games[nextGameID].boardDimension = dimension;\n    games[nextGameID].ended = false;\n    games[nextGameID].playerOffer = 0;\n    games[nextGameID].enemyOffer = 0;\n    games[nextGameID].playerGridHash = 0;\n    games[nextGameID].enemyGridHash = 0;\n    games[nextGameID].playerPay = false;\n    games[nextGameID].enemyPay = false;\n    nextGameID++;\n    counter++;\n  }\n\n  function joinGame(uint256 gameId) public {   //gestisce sia il random che non\n    require(gameId >= 0, \"ID must be greater than 0\");\n    require(gameId < nextGameID, \"Game not open\");\n    require(counter > 0, \"No games available\");\n\n    //randomness\n    if(gameId == 0) {\n      bytes32 bhash = blockhash(block.number - 1);\n      bytes memory bytesArray = new bytes(32);\n      for (uint i; i < 32; i++) {\n          bytesArray[i] = bhash[i];\n      }\n      bytes32 rand = keccak256(bytesArray);\n      uint256 index = uint256(rand) % counter + 1;\n\n      for(uint256 j = 1; j < nextGameID; j++) {\n        if(index == 0) {\n          break;\n        }\n        if(games[j].enemy == address(0)) {\n          index--;\n          if(games[j].player != msg.sender)   //un giocatore non pu unirsi alla sua stessa partita\n            gameId = j;\n        }\n      }\n      if(gameId == 0)\n        revert(\"Match not found\");\n    }\n    //not random\n    else {\n      if(games[gameId].player == msg.sender)\n        revert(\"You cannot join your own game\"); \n      if(games[gameId].enemy != address(0))\n        revert(\"Game already has two players\");      \n    }\n    games[gameId].enemy = msg.sender;\n    counter--;\n    emit JoinedGame(games[gameId].player, msg.sender, gameId, games[gameId].boardDimension);\n  } \n\n  function bet(uint256 gameId, uint8 offer) public {\n    \n    if (games[gameId].playerOffer == games[gameId].enemyOffer) require(games[gameId].playerOffer == 0);\n    else require(games[gameId].playerOffer != games[gameId].enemyOffer);\n\n    if (games[gameId].player == msg.sender) games[gameId].playerOffer = offer;\n    if (games[gameId].enemy == msg.sender) games[gameId].enemyOffer = offer;\n\n    emit OfferReceived(msg.sender, offer, gameId);\n\n    if (games[gameId].playerOffer == games[gameId].enemyOffer) {\n      emit CommonOffer(games[gameId].playerOffer, gameId);\n    }\n\n  }\n\n  function pay(uint256 gameId) public payable {\n    require(gameId >= 0, \"ID must be greater than 0\");\n    require(gameId < nextGameID, \"Game not open\");    \n\n    if (games[gameId].player == msg.sender) games[gameId].playerPay = true;\n    if (games[gameId].enemy == msg.sender) games[gameId].enemyPay = true;\n\n    if(games[gameId].playerPay && games[gameId].enemyPay) emit SetGame(gameId);\n  }\n\n  function attack() public {}\n\n  function checkWinner() private {}\n\n  function endGame() private {}\n\n  function afkPlayer() public {}\n\n  function board(bytes32 boardHash, uint256 gameID) public {\n    require(gameID < nextGameID);\n    require(gameID > 0);\n\n    emit BoardAdded();\n    games[gameID].playerGridHash = boardHash;\n  }\n\n}",
  "sourcePath": "/home/luca/block/solidity_projects/project/contracts/Battleship.sol",
  "compiler": {
    "name": "solc",
    "version": "0.8.19+commit.7dd6d404.Emscripten.clang"
  },
  "schemaVersion": "3.4.13",
  "updatedAt": "2023-05-27T09:20:15.690Z",
  "networkType": "ethereum",
  "devdoc": {
    "kind": "dev",
    "methods": {},
    "version": 1
  },
  "userdoc": {
    "kind": "user",
    "methods": {},
    "version": 1
  }
}