{
  "contractName": "Battleship",
  "abi": [
    {
      "anonymous": false,
      "inputs": [
        {
          "indexed": false,
          "internalType": "uint256",
          "name": "idGame",
          "type": "uint256"
        },
        {
          "indexed": false,
          "internalType": "uint8",
          "name": "response",
          "type": "uint8"
        }
      ],
      "name": "AttackResponse",
      "type": "event"
    },
    {
      "anonymous": false,
      "inputs": [
        {
          "indexed": false,
          "internalType": "uint256",
          "name": "idGame",
          "type": "uint256"
        },
        {
          "indexed": false,
          "internalType": "uint8",
          "name": "cell",
          "type": "uint8"
        }
      ],
      "name": "AttackedCell",
      "type": "event"
    },
    {
      "anonymous": false,
      "inputs": [
        {
          "indexed": false,
          "internalType": "uint256",
          "name": "offer",
          "type": "uint256"
        },
        {
          "indexed": false,
          "internalType": "uint256",
          "name": "idGame",
          "type": "uint256"
        }
      ],
      "name": "CommonOffer",
      "type": "event"
    },
    {
      "anonymous": false,
      "inputs": [
        {
          "indexed": false,
          "internalType": "uint256",
          "name": "idGame",
          "type": "uint256"
        },
        {
          "indexed": false,
          "internalType": "address",
          "name": "winner",
          "type": "address"
        }
      ],
      "name": "EndGame",
      "type": "event"
    },
    {
      "anonymous": false,
      "inputs": [
        {
          "indexed": false,
          "internalType": "address",
          "name": "player",
          "type": "address"
        },
        {
          "indexed": false,
          "internalType": "address",
          "name": "enemy",
          "type": "address"
        },
        {
          "indexed": false,
          "internalType": "uint256",
          "name": "idGame",
          "type": "uint256"
        },
        {
          "indexed": false,
          "internalType": "uint8",
          "name": "boardDimension",
          "type": "uint8"
        }
      ],
      "name": "JoinedGame",
      "type": "event"
    },
    {
      "anonymous": false,
      "inputs": [
        {
          "indexed": false,
          "internalType": "address",
          "name": "player",
          "type": "address"
        },
        {
          "indexed": false,
          "internalType": "uint256",
          "name": "idGame",
          "type": "uint256"
        }
      ],
      "name": "NewGameCreated",
      "type": "event"
    },
    {
      "anonymous": false,
      "inputs": [
        {
          "indexed": false,
          "internalType": "address",
          "name": "bidder",
          "type": "address"
        },
        {
          "indexed": false,
          "internalType": "uint256",
          "name": "offer",
          "type": "uint256"
        },
        {
          "indexed": false,
          "internalType": "uint256",
          "name": "idGame",
          "type": "uint256"
        }
      ],
      "name": "OfferReceived",
      "type": "event"
    },
    {
      "anonymous": false,
      "inputs": [
        {
          "indexed": false,
          "internalType": "uint256",
          "name": "idGame",
          "type": "uint256"
        },
        {
          "indexed": false,
          "internalType": "address",
          "name": "check",
          "type": "address"
        }
      ],
      "name": "ReceiveBoard",
      "type": "event"
    },
    {
      "anonymous": false,
      "inputs": [
        {
          "indexed": false,
          "internalType": "uint256",
          "name": "idGame",
          "type": "uint256"
        }
      ],
      "name": "SetGame",
      "type": "event"
    },
    {
      "anonymous": false,
      "inputs": [
        {
          "indexed": false,
          "internalType": "uint256",
          "name": "idGame",
          "type": "uint256"
        }
      ],
      "name": "StartGame",
      "type": "event"
    },
    {
      "inputs": [
        {
          "internalType": "uint8",
          "name": "dimension",
          "type": "uint8"
        }
      ],
      "name": "newGame",
      "outputs": [],
      "stateMutability": "nonpayable",
      "type": "function"
    },
    {
      "inputs": [
        {
          "internalType": "uint256",
          "name": "gameId",
          "type": "uint256"
        }
      ],
      "name": "joinGame",
      "outputs": [],
      "stateMutability": "nonpayable",
      "type": "function"
    },
    {
      "inputs": [
        {
          "internalType": "uint256",
          "name": "gameId",
          "type": "uint256"
        },
        {
          "internalType": "uint256",
          "name": "offer",
          "type": "uint256"
        }
      ],
      "name": "bet",
      "outputs": [],
      "stateMutability": "nonpayable",
      "type": "function"
    },
    {
      "inputs": [
        {
          "internalType": "uint256",
          "name": "gameId",
          "type": "uint256"
        }
      ],
      "name": "pay",
      "outputs": [],
      "stateMutability": "payable",
      "type": "function",
      "payable": true
    },
    {
      "inputs": [
        {
          "internalType": "uint256",
          "name": "gameID",
          "type": "uint256"
        },
        {
          "internalType": "uint8",
          "name": "cellID",
          "type": "uint8"
        }
      ],
      "name": "attack",
      "outputs": [],
      "stateMutability": "nonpayable",
      "type": "function"
    },
    {
      "inputs": [
        {
          "internalType": "uint256",
          "name": "gameID",
          "type": "uint256"
        },
        {
          "internalType": "uint8",
          "name": "value",
          "type": "uint8"
        },
        {
          "internalType": "bytes32[]",
          "name": "merkleProof",
          "type": "bytes32[]"
        },
        {
          "internalType": "uint8",
          "name": "cellID",
          "type": "uint8"
        }
      ],
      "name": "attackResponse",
      "outputs": [],
      "stateMutability": "payable",
      "type": "function",
      "payable": true
    },
    {
      "inputs": [
        {
          "internalType": "uint256",
          "name": "gameID",
          "type": "uint256"
        },
        {
          "internalType": "uint8[]",
          "name": "winnerBoard",
          "type": "uint8[]"
        }
      ],
      "name": "checkWinner",
      "outputs": [],
      "stateMutability": "payable",
      "type": "function",
      "payable": true
    },
    {
      "inputs": [
        {
          "internalType": "uint256",
          "name": "gameID",
          "type": "uint256"
        }
      ],
      "name": "afkPlayer",
      "outputs": [],
      "stateMutability": "nonpayable",
      "type": "function"
    },
    {
      "inputs": [
        {
          "internalType": "uint256",
          "name": "gameID",
          "type": "uint256"
        },
        {
          "internalType": "bytes32",
          "name": "boardHash",
          "type": "bytes32"
        }
      ],
      "name": "board",
      "outputs": [],
      "stateMutability": "nonpayable",
      "type": "function"
    }
  ],
  "bytecode": "0x6080604052600160005560006001556010600260006101000a81548160ff021916908360ff16021790555034801561003657600080fd5b506140b7806100466000396000f3fe6080604052600436106100865760003560e01c8063c290d69111610059578063c290d69114610122578063d6db26be1461013e578063df00dc7114610167578063eb80636814610183578063efaa55a0146101ac57610086565b80632b3bf33a1461008b5780636ffcc719146100a75780639f3aa7f2146100d0578063bbf344ce146100f9575b600080fd5b6100a560048036038101906100a091906135d9565b6101d5565b005b3480156100b357600080fd5b506100ce60048036038101906100c99190613635565b610c92565b005b3480156100dc57600080fd5b506100f760048036038101906100f29190613675565b6110bd565b005b34801561010557600080fd5b50610120600480360381019061011b91906136b5565b611476565b005b61013c600480360381019061013791906136e2565b6117ea565b005b34801561014a57600080fd5b50610165600480360381019061016091906136e2565b611ada565b005b610181600480360381019061017c9190613808565b6121dd565b005b34801561018f57600080fd5b506101aa60048036038101906101a5919061388b565b612bf3565b005b3480156101b857600080fd5b506101d360048036038101906101ce91906136e2565b612e05565b005b6000821015610219576040517f08c379a000000000000000000000000000000000000000000000000000000000815260040161021090613928565b60405180910390fd5b600054821061025d576040517f08c379a000000000000000000000000000000000000000000000000000000000815260040161025490613994565b60405180910390fd5b600015156003600084815260200190815260200160002060040160009054906101000a900460ff161515146102c7576040517f08c379a00000000000000000000000000000000000000000000000000000000081526004016102be90613a00565b60405180910390fd5b3373ffffffffffffffffffffffffffffffffffffffff166003600084815260200190815260200160002060000160009054906101000a900473ffffffffffffffffffffffffffffffffffffffff1673ffffffffffffffffffffffffffffffffffffffff161415801561039b57503373ffffffffffffffffffffffffffffffffffffffff166003600084815260200190815260200160002060010160009054906101000a900473ffffffffffffffffffffffffffffffffffffffff1673ffffffffffffffffffffffffffffffffffffffff1614155b610c8e5760003373ffffffffffffffffffffffffffffffffffffffff166003600085815260200190815260200160002060000160009054906101000a900473ffffffffffffffffffffffffffffffffffffffff1673ffffffffffffffffffffffffffffffffffffffff160361040f57600190505b801561058c5760006003600085815260200190815260200160002060070160039054906101000a900460ff1660ff1611156105875760016003600085815260200190815260200160002060040160006101000a81548160ff0219169083151502179055507f84f8e1147ed860fdcb13c73d1ec1bf4aa9cded9250811ad1067ea2e81b61affd836003600086815260200190815260200160002060010160009054906101000a900473ffffffffffffffffffffffffffffffffffffffff166040516104da929190613a70565b60405180910390a16003600084815260200190815260200160002060010160009054906101000a900473ffffffffffffffffffffffffffffffffffffffff1673ffffffffffffffffffffffffffffffffffffffff166108fc600260036000878152602001908152602001600020600601546105559190613ac8565b9081150290604051600060405180830381858888f19350505050158015610580573d6000803e3d6000fd5b5050610c8e565b6106ff565b60006003600085815260200190815260200160002060070160029054906101000a900460ff1660ff1611156106fe5760016003600085815260200190815260200160002060040160006101000a81548160ff0219169083151502179055507f84f8e1147ed860fdcb13c73d1ec1bf4aa9cded9250811ad1067ea2e81b61affd836003600086815260200190815260200160002060000160009054906101000a900473ffffffffffffffffffffffffffffffffffffffff16604051610651929190613a70565b60405180910390a16003600084815260200190815260200160002060000160009054906101000a900473ffffffffffffffffffffffffffffffffffffffff1673ffffffffffffffffffffffffffffffffffffffff166108fc600260036000878152602001908152602001600020600501546106cc9190613ac8565b9081150290604051600060405180830381858888f193505050501580156106f7573d6000803e3d6000fd5b5050610c8e565b5b6000805b83518160ff161015610759576001848260ff168151811061072757610726613b0a565b5b602002602001015160ff160361074657818061074290613b39565b9250505b808061075190613b39565b915050610703565b50600260009054906101000a900460ff1660ff168160ff1603610a045781156108c05760016003600086815260200190815260200160002060040160006101000a81548160ff0219169083151502179055507f84f8e1147ed860fdcb13c73d1ec1bf4aa9cded9250811ad1067ea2e81b61affd846003600087815260200190815260200160002060000160009054906101000a900473ffffffffffffffffffffffffffffffffffffffff16604051610812929190613a70565b60405180910390a16003600085815260200190815260200160002060000160009054906101000a900473ffffffffffffffffffffffffffffffffffffffff1673ffffffffffffffffffffffffffffffffffffffff166108fc6002600360008881526020019081526020016000206005015461088d9190613ac8565b9081150290604051600060405180830381858888f193505050501580156108b8573d6000803e3d6000fd5b505050610c8e565b60016003600086815260200190815260200160002060040160006101000a81548160ff0219169083151502179055507f84f8e1147ed860fdcb13c73d1ec1bf4aa9cded9250811ad1067ea2e81b61affd846003600087815260200190815260200160002060010160009054906101000a900473ffffffffffffffffffffffffffffffffffffffff16604051610956929190613a70565b60405180910390a16003600085815260200190815260200160002060010160009054906101000a900473ffffffffffffffffffffffffffffffffffffffff1673ffffffffffffffffffffffffffffffffffffffff166108fc600260036000888152602001908152602001600020600601546109d19190613ac8565b9081150290604051600060405180830381858888f193505050501580156109fc573d6000803e3d6000fd5b505050610c8e565b8115610b4e5760016003600086815260200190815260200160002060040160006101000a81548160ff0219169083151502179055507f84f8e1147ed860fdcb13c73d1ec1bf4aa9cded9250811ad1067ea2e81b61affd846003600087815260200190815260200160002060010160009054906101000a900473ffffffffffffffffffffffffffffffffffffffff16604051610aa0929190613a70565b60405180910390a16003600085815260200190815260200160002060010160009054906101000a900473ffffffffffffffffffffffffffffffffffffffff1673ffffffffffffffffffffffffffffffffffffffff166108fc60026003600088815260200190815260200160002060060154610b1b9190613ac8565b9081150290604051600060405180830381858888f19350505050158015610b46573d6000803e3d6000fd5b505050610c8e565b60016003600086815260200190815260200160002060040160006101000a81548160ff0219169083151502179055507f84f8e1147ed860fdcb13c73d1ec1bf4aa9cded9250811ad1067ea2e81b61affd846003600087815260200190815260200160002060000160009054906101000a900473ffffffffffffffffffffffffffffffffffffffff16604051610be4929190613a70565b60405180910390a16003600085815260200190815260200160002060000160009054906101000a900473ffffffffffffffffffffffffffffffffffffffff1673ffffffffffffffffffffffffffffffffffffffff166108fc60026003600088815260200190815260200160002060050154610c5f9190613ac8565b9081150290604051600060405180830381858888f19350505050158015610c8a573d6000803e3d6000fd5b5050505b5050565b6000821015610cd6576040517f08c379a0000000000000000000000000000000000000000000000000000000008152600401610ccd90613928565b60405180910390fd5b6000548210610d1a576040517f08c379a0000000000000000000000000000000000000000000000000000000008152600401610d1190613994565b60405180910390fd5b600015156003600084815260200190815260200160002060040160009054906101000a900460ff16151514610d84576040517f08c379a0000000000000000000000000000000000000000000000000000000008152600401610d7b90613a00565b60405180910390fd5b3373ffffffffffffffffffffffffffffffffffffffff166003600084815260200190815260200160002060000160009054906101000a900473ffffffffffffffffffffffffffffffffffffffff1673ffffffffffffffffffffffffffffffffffffffff1614158015610e5857503373ffffffffffffffffffffffffffffffffffffffff166003600084815260200190815260200160002060010160009054906101000a900473ffffffffffffffffffffffffffffffffffffffff1673ffffffffffffffffffffffffffffffffffffffff1614155b6110b9576003600083815260200190815260200160002060060154600360008481526020019081526020016000206005015403610eb7576000600360008481526020019081526020016000206005015414610eb257600080fd5b610ef0565b6003600083815260200190815260200160002060060154600360008481526020019081526020016000206005015403610eef57600080fd5b5b3373ffffffffffffffffffffffffffffffffffffffff166003600084815260200190815260200160002060000160009054906101000a900473ffffffffffffffffffffffffffffffffffffffff1673ffffffffffffffffffffffffffffffffffffffff1603610f75578060036000848152602001908152602001600020600501819055505b3373ffffffffffffffffffffffffffffffffffffffff166003600084815260200190815260200160002060010160009054906101000a900473ffffffffffffffffffffffffffffffffffffffff1673ffffffffffffffffffffffffffffffffffffffff1603610ffa578060036000848152602001908152602001600020600601819055505b7f2c7945bf3248598029aaee74e7a7c694cceba99c30ab722154f6e8315addb76933828460405161102d93929190613b62565b60405180910390a160036000838152602001908152602001600020600601546003600084815260200190815260200160002060050154036110b8577f8cfe50bd5101dc31fd79c1afd658dc02788d2230e3db619e94293721c8db04c66003600084815260200190815260200160002060050154836040516110af929190613b99565b60405180910390a15b5b5050565b6000821015611101576040517f08c379a00000000000000000000000000000000000000000000000000000000081526004016110f890613928565b60405180910390fd5b6000548210611145576040517f08c379a000000000000000000000000000000000000000000000000000000000815260040161113c90613994565b60405180910390fd5b600015156003600084815260200190815260200160002060040160009054906101000a900460ff161515146111af576040517f08c379a00000000000000000000000000000000000000000000000000000000081526004016111a690613a00565b60405180910390fd5b6003600083815260200190815260200160002060010160149054906101000a900460ff166003600084815260200190815260200160002060010160149054906101000a900460ff166112019190613bc2565b60ff168160ff161061121257600080fd5b3373ffffffffffffffffffffffffffffffffffffffff166003600084815260200190815260200160002060000160009054906101000a900473ffffffffffffffffffffffffffffffffffffffff1673ffffffffffffffffffffffffffffffffffffffff16036112b457600115156003600084815260200190815260200160002060090160009054906101000a900460ff161515146112af57600080fd5b61135c565b3373ffffffffffffffffffffffffffffffffffffffff166003600084815260200190815260200160002060010160009054906101000a900473ffffffffffffffffffffffffffffffffffffffff1673ffffffffffffffffffffffffffffffffffffffff160361135657600015156003600084815260200190815260200160002060090160009054906101000a900460ff1615151461135157600080fd5b61135b565b611472565b5b3373ffffffffffffffffffffffffffffffffffffffff166003600084815260200190815260200160002060070160049054906101000a900473ffffffffffffffffffffffffffffffffffffffff1673ffffffffffffffffffffffffffffffffffffffff16036114385760006003600084815260200190815260200160002060070160046101000a81548173ffffffffffffffffffffffffffffffffffffffff021916908373ffffffffffffffffffffffffffffffffffffffff160217905550600060036000848152602001908152602001600020600801819055505b7fc280882498990ef85d0e9ab56571c30cb4dff4e685ce905f3caaac3ec98c6fb78282604051611469929190613c0e565b60405180910390a15b5050565b7f72c5d3a1559eb2bbdb341b459f9be7a20ddd182562d779fc4decb64e69678de4336000546040516114a9929190613c37565b60405180910390a133600360008054815260200190815260200160002060000160006101000a81548173ffffffffffffffffffffffffffffffffffffffff021916908373ffffffffffffffffffffffffffffffffffffffff1602179055506000600360008054815260200190815260200160002060010160006101000a81548173ffffffffffffffffffffffffffffffffffffffff021916908373ffffffffffffffffffffffffffffffffffffffff16021790555080600360008054815260200190815260200160002060010160146101000a81548160ff021916908360ff1602179055506000600360008054815260200190815260200160002060040160006101000a81548160ff021916908315150217905550600060036000805481526020019081526020016000206005018190555060006003600080548152602001908152602001600020600601819055506000801b6003600080548152602001908152602001600020600201819055506000801b6003600080548152602001908152602001600020600301819055506000600360008054815260200190815260200160002060070160006101000a81548160ff0219169083151502179055506000600360008054815260200190815260200160002060070160016101000a81548160ff021916908315150217905550600260009054906101000a900460ff16600360008054815260200190815260200160002060070160026101000a81548160ff021916908360ff160217905550600260009054906101000a900460ff16600360008054815260200190815260200160002060070160036101000a81548160ff021916908360ff1602179055506000600360008054815260200190815260200160002060070160046101000a81548173ffffffffffffffffffffffffffffffffffffffff021916908373ffffffffffffffffffffffffffffffffffffffff16021790555060006003600080548152602001908152602001600020600801819055506001600360008054815260200190815260200160002060090160006101000a81548160ff0219169083151502179055506000808154809291906117ca90613c60565b9190505550600160008154809291906117e290613c60565b919050555050565b600081101561182e576040517f08c379a000000000000000000000000000000000000000000000000000000000815260040161182590613928565b60405180910390fd5b6000548110611872576040517f08c379a000000000000000000000000000000000000000000000000000000000815260040161186990613994565b60405180910390fd5b600015156003600083815260200190815260200160002060040160009054906101000a900460ff161515146118dc576040517f08c379a00000000000000000000000000000000000000000000000000000000081526004016118d390613a00565b60405180910390fd5b3373ffffffffffffffffffffffffffffffffffffffff166003600083815260200190815260200160002060000160009054906101000a900473ffffffffffffffffffffffffffffffffffffffff1673ffffffffffffffffffffffffffffffffffffffff160361199357346003600083815260200190815260200160002060050154036119925760016003600083815260200190815260200160002060070160006101000a81548160ff0219169083151502179055505b5b3373ffffffffffffffffffffffffffffffffffffffff166003600083815260200190815260200160002060010160009054906101000a900473ffffffffffffffffffffffffffffffffffffffff1673ffffffffffffffffffffffffffffffffffffffff1603611a4a5734600360008381526020019081526020016000206005015403611a495760016003600083815260200190815260200160002060070160016101000a81548160ff0219169083151502179055505b5b6003600082815260200190815260200160002060070160009054906101000a900460ff168015611a9a57506003600082815260200190815260200160002060070160019054906101000a900460ff165b15611ad7577f89d296e0b0d0ef2bd13830476724f0af14967da173593250e67e6924f1f9163a81604051611ace9190613ca8565b60405180910390a15b50565b6000548110611ae857600080fd5b60008111611af557600080fd5b600015156003600083815260200190815260200160002060040160009054906101000a900460ff16151514611b5f576040517f08c379a0000000000000000000000000000000000000000000000000000000008152600401611b5690613a00565b60405180910390fd5b3373ffffffffffffffffffffffffffffffffffffffff166003600083815260200190815260200160002060000160009054906101000a900473ffffffffffffffffffffffffffffffffffffffff1673ffffffffffffffffffffffffffffffffffffffff1603611c0157600015156003600083815260200190815260200160002060090160009054906101000a900460ff16151514611bfc57600080fd5b611ca9565b3373ffffffffffffffffffffffffffffffffffffffff166003600083815260200190815260200160002060010160009054906101000a900473ffffffffffffffffffffffffffffffffffffffff1673ffffffffffffffffffffffffffffffffffffffff1603611ca357600115156003600083815260200190815260200160002060090160009054906101000a900460ff16151514611c9e57600080fd5b611ca8565b6121da565b5b60003373ffffffffffffffffffffffffffffffffffffffff166003600084815260200190815260200160002060000160009054906101000a900473ffffffffffffffffffffffffffffffffffffffff1673ffffffffffffffffffffffffffffffffffffffff1603611d4e576003600083815260200190815260200160002060010160009054906101000a900473ffffffffffffffffffffffffffffffffffffffff1690505b3373ffffffffffffffffffffffffffffffffffffffff166003600084815260200190815260200160002060010160009054906101000a900473ffffffffffffffffffffffffffffffffffffffff1673ffffffffffffffffffffffffffffffffffffffff1603611df1576003600083815260200190815260200160002060000160009054906101000a900473ffffffffffffffffffffffffffffffffffffffff1690505b60006003600084815260200190815260200160002060080154146121565760036000838152602001908152602001600020600801544310612151576003600083815260200190815260200160002060010160009054906101000a900473ffffffffffffffffffffffffffffffffffffffff1673ffffffffffffffffffffffffffffffffffffffff166003600084815260200190815260200160002060070160049054906101000a900473ffffffffffffffffffffffffffffffffffffffff1673ffffffffffffffffffffffffffffffffffffffff160361200e5760016003600084815260200190815260200160002060040160006101000a81548160ff0219169083151502179055507f84f8e1147ed860fdcb13c73d1ec1bf4aa9cded9250811ad1067ea2e81b61affd826003600085815260200190815260200160002060000160009054906101000a900473ffffffffffffffffffffffffffffffffffffffff16604051611f61929190613a70565b60405180910390a16003600083815260200190815260200160002060000160009054906101000a900473ffffffffffffffffffffffffffffffffffffffff1673ffffffffffffffffffffffffffffffffffffffff166108fc60026003600086815260200190815260200160002060050154611fdc9190613ac8565b9081150290604051600060405180830381858888f19350505050158015612007573d6000803e3d6000fd5b50506121da565b60016003600084815260200190815260200160002060040160006101000a81548160ff0219169083151502179055507f84f8e1147ed860fdcb13c73d1ec1bf4aa9cded9250811ad1067ea2e81b61affd826003600085815260200190815260200160002060010160009054906101000a900473ffffffffffffffffffffffffffffffffffffffff166040516120a4929190613a70565b60405180910390a16003600083815260200190815260200160002060010160009054906101000a900473ffffffffffffffffffffffffffffffffffffffff1673ffffffffffffffffffffffffffffffffffffffff166108fc6002600360008681526020019081526020016000206006015461211f9190613ac8565b9081150290604051600060405180830381858888f1935050505015801561214a573d6000803e3d6000fd5b50506121da565b6121d8565b6005436121639190613cc3565b6003600084815260200190815260200160002060080181905550806003600084815260200190815260200160002060070160046101000a81548173ffffffffffffffffffffffffffffffffffffffff021916908373ffffffffffffffffffffffffffffffffffffffff160217905550506121da565b505b50565b6000841015612221576040517f08c379a000000000000000000000000000000000000000000000000000000000815260040161221890613928565b60405180910390fd5b6000548410612265576040517f08c379a000000000000000000000000000000000000000000000000000000000815260040161225c90613994565b60405180910390fd5b600015156003600086815260200190815260200160002060040160009054906101000a900460ff161515146122cf576040517f08c379a00000000000000000000000000000000000000000000000000000000081526004016122c690613a00565b60405180910390fd5b3373ffffffffffffffffffffffffffffffffffffffff166003600086815260200190815260200160002060000160009054906101000a900473ffffffffffffffffffffffffffffffffffffffff1673ffffffffffffffffffffffffffffffffffffffff160361237157600015156003600086815260200190815260200160002060090160009054906101000a900460ff1615151461236c57600080fd5b612419565b3373ffffffffffffffffffffffffffffffffffffffff166003600086815260200190815260200160002060010160009054906101000a900473ffffffffffffffffffffffffffffffffffffffff1673ffffffffffffffffffffffffffffffffffffffff160361241357600115156003600086815260200190815260200160002060090160009054906101000a900460ff1615151461240e57600080fd5b612418565b612bed565b5b600081905060008360008151811061243457612433613b0a565b5b602002602001015190506000600190505b845181101561253e57600060028461245d9190613d26565b60ff16036124d65784818151811061247857612477613b0a565b5b602002602001015182146124d0578185828151811061249a57612499613b0a565b5b60200260200101516040516020016124b3929190613d78565b6040516020818303038152906040528051906020012091506124d1565b5b61251c565b8481815181106124e9576124e8613b0a565b5b602002602001015182604051602001612503929190613d78565b6040516020818303038152906040528051906020012091505b6002836125299190613da4565b9250808061253690613c60565b915050612445565b503373ffffffffffffffffffffffffffffffffffffffff166003600088815260200190815260200160002060000160009054906101000a900473ffffffffffffffffffffffffffffffffffffffff1673ffffffffffffffffffffffffffffffffffffffff160361286d57806003600088815260200190815260200160002060020154146127395760006003600088815260200190815260200160002060070160026101000a81548160ff021916908360ff16021790555060016003600088815260200190815260200160002060040160006101000a81548160ff0219169083151502179055507f84f8e1147ed860fdcb13c73d1ec1bf4aa9cded9250811ad1067ea2e81b61affd866003600089815260200190815260200160002060010160009054906101000a900473ffffffffffffffffffffffffffffffffffffffff1660405161268b929190613a70565b60405180910390a16003600087815260200190815260200160002060010160009054906101000a900473ffffffffffffffffffffffffffffffffffffffff1673ffffffffffffffffffffffffffffffffffffffff166108fc6002600360008a8152602001908152602001600020600501546127069190613ac8565b9081150290604051600060405180830381858888f19350505050158015612731573d6000803e3d6000fd5b505050612bed565b60018560ff16036127915760036000878152602001908152602001600020600701600281819054906101000a900460ff168092919061277790613dd5565b91906101000a81548160ff021916908360ff160217905550505b7f947c83f89088f787849558a38428bf2c2f946698539be2a66a0cac7cc199606c86866040516127c2929190613c0e565b60405180910390a160006003600088815260200190815260200160002060070160029054906101000a900460ff1660ff1603612868577ff942afe004c76075b0ad49c8a2697d28413e511e135ed6576d2513d9ef0bf5f2866003600089815260200190815260200160002060000160009054906101000a900473ffffffffffffffffffffffffffffffffffffffff1660405161285f929190613a70565b60405180910390a15b612b98565b3373ffffffffffffffffffffffffffffffffffffffff166003600088815260200190815260200160002060010160009054906101000a900473ffffffffffffffffffffffffffffffffffffffff1673ffffffffffffffffffffffffffffffffffffffff1603612b975780600360008881526020019081526020016000206003015414612a675760006003600088815260200190815260200160002060070160036101000a81548160ff021916908360ff16021790555060016003600088815260200190815260200160002060040160006101000a81548160ff0219169083151502179055507f84f8e1147ed860fdcb13c73d1ec1bf4aa9cded9250811ad1067ea2e81b61affd866003600089815260200190815260200160002060000160009054906101000a900473ffffffffffffffffffffffffffffffffffffffff166040516129b9929190613a70565b60405180910390a16003600087815260200190815260200160002060000160009054906101000a900473ffffffffffffffffffffffffffffffffffffffff1673ffffffffffffffffffffffffffffffffffffffff166108fc6002600360008a815260200190815260200160002060050154612a349190613ac8565b9081150290604051600060405180830381858888f19350505050158015612a5f573d6000803e3d6000fd5b505050612bed565b60018560ff1603612abf5760036000878152602001908152602001600020600701600381819054906101000a900460ff1680929190612aa590613dd5565b91906101000a81548160ff021916908360ff160217905550505b7f947c83f89088f787849558a38428bf2c2f946698539be2a66a0cac7cc199606c8686604051612af0929190613c0e565b60405180910390a160006003600088815260200190815260200160002060070160039054906101000a900460ff1660ff1603612b96577ff942afe004c76075b0ad49c8a2697d28413e511e135ed6576d2513d9ef0bf5f2866003600089815260200190815260200160002060000160009054906101000a900473ffffffffffffffffffffffffffffffffffffffff16604051612b8d929190613a70565b60405180910390a15b5b5b6003600087815260200190815260200160002060090160009054906101000a900460ff16156003600088815260200190815260200160002060090160006101000a81548160ff02191690831515021790555050505b50505050565b6000548210612c0157600080fd5b60008211612c0e57600080fd5b600015156003600084815260200190815260200160002060040160009054906101000a900460ff16151514612c78576040517f08c379a0000000000000000000000000000000000000000000000000000000008152600401612c6f90613a00565b60405180910390fd5b3373ffffffffffffffffffffffffffffffffffffffff166003600084815260200190815260200160002060000160009054906101000a900473ffffffffffffffffffffffffffffffffffffffff1673ffffffffffffffffffffffffffffffffffffffff1603612cfd578060036000848152602001908152602001600020600201819055505b3373ffffffffffffffffffffffffffffffffffffffff166003600084815260200190815260200160002060010160009054906101000a900473ffffffffffffffffffffffffffffffffffffffff1673ffffffffffffffffffffffffffffffffffffffff1603612d82578060036000848152602001908152602001600020600301819055505b6000801b600360008481526020019081526020016000206002015414158015612dc457506000801b600360008481526020019081526020016000206003015414155b15612e01577f12333b322723ec26360eb708b341801ecca576387b55caa77d6e408107d2c70f82604051612df89190613ca8565b60405180910390a15b5050565b6000811015612e49576040517f08c379a0000000000000000000000000000000000000000000000000000000008152600401612e4090613928565b60405180910390fd5b6000548110612e8d576040517f08c379a0000000000000000000000000000000000000000000000000000000008152600401612e8490613994565b60405180910390fd5b600060015411612ed2576040517f08c379a0000000000000000000000000000000000000000000000000000000008152600401612ec990613e4a565b60405180910390fd5b600015156003600083815260200190815260200160002060040160009054906101000a900460ff16151514612f3c576040517f08c379a0000000000000000000000000000000000000000000000000000000008152600401612f3390613a00565b60405180910390fd5b600081036131ad576000600143612f539190613e6a565b4090506000602067ffffffffffffffff811115612f7357612f7261345d565b5b6040519080825280601f01601f191660200182016040528015612fa55781602001600182028036833780820191505090505b50905060005b602081101561302057828160208110612fc757612fc6613b0a565b5b1a60f81b828281518110612fde57612fdd613b0a565b5b60200101907effffffffffffffffffffffffffffffffffffffffffffffffffffffffffffff1916908160001a905350808061301890613c60565b915050612fab565b506000818051906020012090506000600180548360001c6130419190613e9e565b61304b9190613cc3565b90506000600190505b60005481101561316057600082031561316057600073ffffffffffffffffffffffffffffffffffffffff166003600083815260200190815260200160002060010160009054906101000a900473ffffffffffffffffffffffffffffffffffffffff1673ffffffffffffffffffffffffffffffffffffffff160361314d5781806130dc90613ecf565b9250503373ffffffffffffffffffffffffffffffffffffffff166003600083815260200190815260200160002060000160009054906101000a900473ffffffffffffffffffffffffffffffffffffffff1673ffffffffffffffffffffffffffffffffffffffff161461314c578095505b5b808061315890613c60565b915050613054565b50600085036131a4576040517f08c379a000000000000000000000000000000000000000000000000000000000815260040161319b90613f44565b60405180910390fd5b505050506132f7565b3373ffffffffffffffffffffffffffffffffffffffff166003600083815260200190815260200160002060000160009054906101000a900473ffffffffffffffffffffffffffffffffffffffff1673ffffffffffffffffffffffffffffffffffffffff1603613251576040517f08c379a000000000000000000000000000000000000000000000000000000000815260040161324890613fb0565b60405180910390fd5b600073ffffffffffffffffffffffffffffffffffffffff166003600083815260200190815260200160002060010160009054906101000a900473ffffffffffffffffffffffffffffffffffffffff1673ffffffffffffffffffffffffffffffffffffffff16146132f6576040517f08c379a00000000000000000000000000000000000000000000000000000000081526004016132ed9061401c565b60405180910390fd5b5b336003600083815260200190815260200160002060010160006101000a81548173ffffffffffffffffffffffffffffffffffffffff021916908373ffffffffffffffffffffffffffffffffffffffff1602179055506001600081548092919061335f90613ecf565b91905055507f276a7f782d740627e426973b863f244fee07739e8e648ddc3cb52485808b04d36003600083815260200190815260200160002060000160009054906101000a900473ffffffffffffffffffffffffffffffffffffffff1633836003600086815260200190815260200160002060010160149054906101000a900460ff166040516133f2949392919061403c565b60405180910390a150565b6000604051905090565b600080fd5b600080fd5b6000819050919050565b61342481613411565b811461342f57600080fd5b50565b6000813590506134418161341b565b92915050565b600080fd5b6000601f19601f8301169050919050565b7f4e487b7100000000000000000000000000000000000000000000000000000000600052604160045260246000fd5b6134958261344c565b810181811067ffffffffffffffff821117156134b4576134b361345d565b5b80604052505050565b60006134c76133fd565b90506134d3828261348c565b919050565b600067ffffffffffffffff8211156134f3576134f261345d565b5b602082029050602081019050919050565b600080fd5b600060ff82169050919050565b61351f81613509565b811461352a57600080fd5b50565b60008135905061353c81613516565b92915050565b6000613555613550846134d8565b6134bd565b9050808382526020820190506020840283018581111561357857613577613504565b5b835b818110156135a1578061358d888261352d565b84526020840193505060208101905061357a565b5050509392505050565b600082601f8301126135c0576135bf613447565b5b81356135d0848260208601613542565b91505092915050565b600080604083850312156135f0576135ef613407565b5b60006135fe85828601613432565b925050602083013567ffffffffffffffff81111561361f5761361e61340c565b5b61362b858286016135ab565b9150509250929050565b6000806040838503121561364c5761364b613407565b5b600061365a85828601613432565b925050602061366b85828601613432565b9150509250929050565b6000806040838503121561368c5761368b613407565b5b600061369a85828601613432565b92505060206136ab8582860161352d565b9150509250929050565b6000602082840312156136cb576136ca613407565b5b60006136d98482850161352d565b91505092915050565b6000602082840312156136f8576136f7613407565b5b600061370684828501613432565b91505092915050565b600067ffffffffffffffff82111561372a5761372961345d565b5b602082029050602081019050919050565b6000819050919050565b61374e8161373b565b811461375957600080fd5b50565b60008135905061376b81613745565b92915050565b600061378461377f8461370f565b6134bd565b905080838252602082019050602084028301858111156137a7576137a6613504565b5b835b818110156137d057806137bc888261375c565b8452602084019350506020810190506137a9565b5050509392505050565b600082601f8301126137ef576137ee613447565b5b81356137ff848260208601613771565b91505092915050565b6000806000806080858703121561382257613821613407565b5b600061383087828801613432565b94505060206138418782880161352d565b935050604085013567ffffffffffffffff8111156138625761386161340c565b5b61386e878288016137da565b925050606061387f8782880161352d565b91505092959194509250565b600080604083850312156138a2576138a1613407565b5b60006138b085828601613432565b92505060206138c18582860161375c565b9150509250929050565b600082825260208201905092915050565b7f4944206d7573742062652067726561746572207468616e203000000000000000600082015250565b60006139126019836138cb565b915061391d826138dc565b602082019050919050565b6000602082019050818103600083015261394181613905565b9050919050565b7f47616d65206e6f74206f70656e00000000000000000000000000000000000000600082015250565b600061397e600d836138cb565b915061398982613948565b602082019050919050565b600060208201905081810360008301526139ad81613971565b9050919050565b7f5468652067616d65206973206f76657200000000000000000000000000000000600082015250565b60006139ea6010836138cb565b91506139f5826139b4565b602082019050919050565b60006020820190508181036000830152613a19816139dd565b9050919050565b613a2981613411565b82525050565b600073ffffffffffffffffffffffffffffffffffffffff82169050919050565b6000613a5a82613a2f565b9050919050565b613a6a81613a4f565b82525050565b6000604082019050613a856000830185613a20565b613a926020830184613a61565b9392505050565b7f4e487b7100000000000000000000000000000000000000000000000000000000600052601160045260246000fd5b6000613ad382613411565b9150613ade83613411565b9250828202613aec81613411565b91508282048414831517613b0357613b02613a99565b5b5092915050565b7f4e487b7100000000000000000000000000000000000000000000000000000000600052603260045260246000fd5b6000613b4482613509565b915060ff8203613b5757613b56613a99565b5b600182019050919050565b6000606082019050613b776000830186613a61565b613b846020830185613a20565b613b916040830184613a20565b949350505050565b6000604082019050613bae6000830185613a20565b613bbb6020830184613a20565b9392505050565b6000613bcd82613509565b9150613bd883613509565b9250828202613be681613509565b9150808214613bf857613bf7613a99565b5b5092915050565b613c0881613509565b82525050565b6000604082019050613c236000830185613a20565b613c306020830184613bff565b9392505050565b6000604082019050613c4c6000830185613a61565b613c596020830184613a20565b9392505050565b6000613c6b82613411565b91507fffffffffffffffffffffffffffffffffffffffffffffffffffffffffffffffff8203613c9d57613c9c613a99565b5b600182019050919050565b6000602082019050613cbd6000830184613a20565b92915050565b6000613cce82613411565b9150613cd983613411565b9250828201905080821115613cf157613cf0613a99565b5b92915050565b7f4e487b7100000000000000000000000000000000000000000000000000000000600052601260045260246000fd5b6000613d3182613509565b9150613d3c83613509565b925082613d4c57613d4b613cf7565b5b828206905092915050565b6000819050919050565b613d72613d6d8261373b565b613d57565b82525050565b6000613d848285613d61565b602082019150613d948284613d61565b6020820191508190509392505050565b6000613daf82613509565b9150613dba83613509565b925082613dca57613dc9613cf7565b5b828204905092915050565b6000613de082613509565b915060008203613df357613df2613a99565b5b600182039050919050565b7f4e6f2067616d657320617661696c61626c650000000000000000000000000000600082015250565b6000613e346012836138cb565b9150613e3f82613dfe565b602082019050919050565b60006020820190508181036000830152613e6381613e27565b9050919050565b6000613e7582613411565b9150613e8083613411565b9250828203905081811115613e9857613e97613a99565b5b92915050565b6000613ea982613411565b9150613eb483613411565b925082613ec457613ec3613cf7565b5b828206905092915050565b6000613eda82613411565b915060008203613eed57613eec613a99565b5b600182039050919050565b7f4d61746368206e6f7420666f756e640000000000000000000000000000000000600082015250565b6000613f2e600f836138cb565b9150613f3982613ef8565b602082019050919050565b60006020820190508181036000830152613f5d81613f21565b9050919050565b7f596f752063616e6e6f74206a6f696e20796f7572206f776e2067616d65000000600082015250565b6000613f9a601d836138cb565b9150613fa582613f64565b602082019050919050565b60006020820190508181036000830152613fc981613f8d565b9050919050565b7f47616d6520616c7265616479206861732074776f20706c617965727300000000600082015250565b6000614006601c836138cb565b915061401182613fd0565b602082019050919050565b6000602082019050818103600083015261403581613ff9565b9050919050565b60006080820190506140516000830187613a61565b61405e6020830186613a61565b61406b6040830185613a20565b6140786060830184613bff565b9594505050505056fea2646970667358221220ca5a1e6ed864015cf11b43e2e52b02a92eb8cfb73d5d943048c492050171da8c64736f6c63430008130033",
  "immutableReferences": {},
  "source": "// SPDX-License-Identifier: MIT\npragma solidity >=0.4.22 <0.9.0;\n\ncontract Battleship {\n  uint256 private nextGameID = 1;\n  uint256 private counter = 0;  //conta il numero di partite aperte\n  uint8 shipNumber = 16;\n\n  struct Game {\n    address player;\n    address enemy;    //address(0): non c' il giocatore\n    uint8 boardDimension;\n    bytes32 playerGridHash;\n    bytes32 enemyGridHash;\n    bool ended;       //false: la partita non  finita; true: la partita  finita\n    uint playerOffer;\n    uint enemyOffer;\n    bool playerPay;   //false: il giocatore non ha pagato\n    bool enemyPay;    //false: enemy non ha pagato\n    uint8 playerHitSum; \n    uint8 enemyHitSum;\n    address afk;\n    uint afkBlock;\n    bool turn;        //false: enemy turn; true: player turn\n  }\n\n  mapping (uint256 => Game) private games;\n  event NewGameCreated(address player, uint256 idGame);\n  event JoinedGame(address player, address enemy, uint256 idGame, uint8 boardDimension);\n  event OfferReceived(address bidder, uint offer, uint256 idGame);\n  event CommonOffer(uint offer, uint256 idGame);\n  event SetGame(uint256 idGame);\n  event StartGame(uint256 idGame);\n  event AttackedCell(uint256 idGame, uint8 cell);\n  event AttackResponse(uint256 idGame, uint8 response);\n  event EndGame(uint256 idGame, address winner);\n  event ReceiveBoard(uint256 idGame, address check);\n\n  function newGame(uint8 dimension) public {\n    emit NewGameCreated(msg.sender, nextGameID);\n    games[nextGameID].player = msg.sender;\n    games[nextGameID].enemy = address(0);\n    games[nextGameID].boardDimension = dimension;\n    games[nextGameID].ended = false;\n    games[nextGameID].playerOffer = 0;\n    games[nextGameID].enemyOffer = 0;\n    games[nextGameID].playerGridHash = 0;\n    games[nextGameID].enemyGridHash = 0;\n    games[nextGameID].playerPay = false;\n    games[nextGameID].enemyPay = false;\n    games[nextGameID].playerHitSum = shipNumber;\n    games[nextGameID].enemyHitSum = shipNumber;\n    games[nextGameID].afk = address(0);\n    games[nextGameID].afkBlock = 0;\n    games[nextGameID].turn = true;\n    nextGameID++;\n    counter++;\n  }\n\n  function joinGame(uint256 gameId) public {   //gestisce sia il random che non\n    require(gameId >= 0, \"ID must be greater than 0\");\n    require(gameId < nextGameID, \"Game not open\");\n    require(counter > 0, \"No games available\");\n    require(games[gameId].ended == false, \"The game is over\");\n\n    //randomness\n    if(gameId == 0) {\n      bytes32 bhash = blockhash(block.number - 1);\n      bytes memory bytesArray = new bytes(32);\n      for (uint i; i < 32; i++) {\n          bytesArray[i] = bhash[i];\n      }\n      bytes32 rand = keccak256(bytesArray);\n      uint256 index = uint256(rand) % counter + 1;\n\n      for(uint256 j = 1; j < nextGameID; j++) {\n        if(index == 0) {\n          break;\n        }\n        if(games[j].enemy == address(0)) {\n          index--;\n          if(games[j].player != msg.sender)   //un giocatore non pu unirsi alla sua stessa partita\n            gameId = j;\n        }\n      }\n      if(gameId == 0)\n        revert(\"Match not found\");\n    }\n    //not random\n    else {\n      if(games[gameId].player == msg.sender)\n        revert(\"You cannot join your own game\"); \n      if(games[gameId].enemy != address(0))\n        revert(\"Game already has two players\");      \n    }\n    games[gameId].enemy = msg.sender;\n    counter--;\n    emit JoinedGame(games[gameId].player, msg.sender, gameId, games[gameId].boardDimension);\n  } \n\n  function bet(uint256 gameId, uint offer) public {\n    require(gameId >= 0, \"ID must be greater than 0\");\n    require(gameId < nextGameID, \"Game not open\");\n    require(games[gameId].ended == false, \"The game is over\");\n    if (games[gameId].player != msg.sender && games[gameId].enemy != msg.sender)\n      return;\n    \n    if (games[gameId].playerOffer == games[gameId].enemyOffer) require(games[gameId].playerOffer == 0);\n    else require(games[gameId].playerOffer != games[gameId].enemyOffer);\n\n    if (games[gameId].player == msg.sender) games[gameId].playerOffer = offer;\n    if (games[gameId].enemy == msg.sender) games[gameId].enemyOffer = offer;\n\n    emit OfferReceived(msg.sender, offer, gameId);\n\n    if (games[gameId].playerOffer == games[gameId].enemyOffer)\n      emit CommonOffer(games[gameId].playerOffer, gameId);\n\n  }\n\n  function pay(uint256 gameId) public payable {\n    require(gameId >= 0, \"ID must be greater than 0\");\n    require(gameId < nextGameID, \"Game not open\");\n    require(games[gameId].ended == false, \"The game is over\");  \n\n    if (games[gameId].player == msg.sender) {\n      if(games[gameId].playerOffer == msg.value)\n        games[gameId].playerPay = true;\n    }\n    if (games[gameId].enemy == msg.sender) {\n      if(games[gameId].playerOffer == msg.value)\n        games[gameId].enemyPay = true;\n    }\n    \n    if(games[gameId].playerPay && games[gameId].enemyPay) emit SetGame(gameId);\n  }\n\n  function attack(uint256 gameID, uint8 cellID) public {\n    require(gameID >= 0, \"ID must be greater than 0\");\n    require(gameID < nextGameID, \"Game not open\");\n    require(games[gameID].ended == false, \"The game is over\");\n    require(cellID < games[gameID].boardDimension * games[gameID].boardDimension);\n\n    if (games[gameID].player == msg.sender) require(games[gameID].turn == true);\n    else if (games[gameID].enemy == msg.sender) require(games[gameID].turn == false);\n    else return;\n\n    if(games[gameID].afk == msg.sender) {\n      games[gameID].afk = address(0);\n      games[gameID].afkBlock = 0;\n    }\n\n    emit AttackedCell(gameID, cellID);\n  }\n\n  function attackResponse(uint256 gameID, uint8 value, bytes32[] memory merkleProof, uint8 cellID) public payable{\n    require(gameID >= 0, \"ID must be greater than 0\");\n    require(gameID < nextGameID, \"Game not open\");\n    require(games[gameID].ended == false, \"The game is over\");\n\n    if (games[gameID].player == msg.sender) require(games[gameID].turn == false);\n    else if (games[gameID].enemy == msg.sender) require(games[gameID].turn == true);\n    else return;\n\n    uint8 target = cellID;\n    bytes32 proofRoot = merkleProof[0];\n    for(uint i = 1; i < merkleProof.length; i++) {\n      if(target%2 == 0) {\n        if(proofRoot != merkleProof[i])\n          proofRoot = keccak256(abi.encodePacked(proofRoot, merkleProof[i]));\n        else\n          proofRoot = proofRoot;\n      }\n      else\n        proofRoot = keccak256(abi.encodePacked(merkleProof[i], proofRoot));\n      \n      target = target / 2;\n    }\n\n    if (games[gameID].player == msg.sender) {\n      if(games[gameID].playerGridHash != proofRoot) { //player is cheater\n        games[gameID].playerHitSum = 0;\n        games[gameID].ended = true;\n        emit EndGame(gameID, games[gameID].enemy);\n        payable(games[gameID].enemy).transfer(games[gameID].playerOffer * 2);\n        return;\n      }\n      if(value == 1) \n        games[gameID].playerHitSum--;\n      emit AttackResponse(gameID, value);\n\n      if(games[gameID].playerHitSum == 0)\n        emit ReceiveBoard(gameID, games[gameID].player);\n    }\n    else if (games[gameID].enemy == msg.sender) {\n      if(games[gameID].enemyGridHash != proofRoot) {  //enemy is cheater\n        games[gameID].enemyHitSum = 0;\n        games[gameID].ended = true;\n        emit EndGame(gameID, games[gameID].player);\n        payable(games[gameID].player).transfer(games[gameID].playerOffer * 2);\n        return;\n      }\n      if(value == 1) \n        games[gameID].enemyHitSum--;\n      emit AttackResponse(gameID, value);\n\n      if(games[gameID].enemyHitSum == 0)\n        emit ReceiveBoard(gameID, games[gameID].player);\n    }\n    \n    games[gameID].turn = !games[gameID].turn;\n  }\n\n  function checkWinner(uint256 gameID, uint8[] memory winnerBoard) public payable {\n    require(gameID >= 0, \"ID must be greater than 0\");\n    require(gameID < nextGameID, \"Game not open\");\n    require(games[gameID].ended == false, \"The game is over\");\n    if (games[gameID].player != msg.sender && games[gameID].enemy != msg.sender)\n      return;\n\n    //Controllo che non sia stata chiamata per imbrogliare\n    bool caller = false;  //false: enemy; true: player\n    if (games[gameID].player == msg.sender) caller = true;\n\n    if(caller) {\n      if(games[gameID].enemyHitSum > 0) {           //non ho abbattuto tutte le navi del nemico\n        games[gameID].ended = true;\n        emit EndGame(gameID, games[gameID].enemy);\n        payable(games[gameID].enemy).transfer(games[gameID].enemyOffer * 2);\n        return;\n      }\n    }\n    else {\n      if(games[gameID].playerHitSum > 0) {          //non ho abbattuto tutte le navi del player\n        games[gameID].ended = true;\n        emit EndGame(gameID, games[gameID].player);\n        payable(games[gameID].player).transfer(games[gameID].playerOffer * 2);\n        return;\n      }\n    }\n    uint8 shipsOnBoard = 0;\n    for(uint8 i = 0; i < winnerBoard.length; i++) {\n      if(winnerBoard[i] == 1) \n        shipsOnBoard++;\n    }\n    \n    if(shipsOnBoard == shipNumber) {\n      if(caller) {\n        games[gameID].ended = true;\n        emit EndGame(gameID, games[gameID].player);\n        payable(games[gameID].player).transfer(games[gameID].playerOffer * 2);\n        return;\n      }\n      else {\n        games[gameID].ended = true;\n        emit EndGame(gameID, games[gameID].enemy);\n        payable(games[gameID].enemy).transfer(games[gameID].enemyOffer * 2);\n        return;\n      }\n    }\n    else {\n      if(caller) {\n        games[gameID].ended = true;\n        emit EndGame(gameID, games[gameID].enemy);\n        payable(games[gameID].enemy).transfer(games[gameID].enemyOffer * 2);\n        return;\n      }\n      else {\n        games[gameID].ended = true;\n        emit EndGame(gameID, games[gameID].player);\n        payable(games[gameID].player).transfer(games[gameID].playerOffer * 2);\n        return;\n      }\n    }\n\n  }\n\n  function afkPlayer(uint256 gameID) public {\n    require(gameID < nextGameID);\n    require(gameID > 0);\n    require(games[gameID].ended == false, \"The game is over\");\n\n    if (games[gameID].player == msg.sender) require(games[gameID].turn == false);\n    else if (games[gameID].enemy == msg.sender) require(games[gameID].turn == true);\n    else return;\n\n    address afkTarget;\n    if(games[gameID].player == msg.sender) afkTarget = games[gameID].enemy;\n    if(games[gameID].enemy == msg.sender) afkTarget = games[gameID].player;\n    \n    if(games[gameID].afkBlock != 0){\n      if(block.number >= games[gameID].afkBlock){\n        if(games[gameID].afk == games[gameID].enemy) {  //Enemy AFK: player won.\n          games[gameID].ended = true;\n          emit EndGame(gameID, games[gameID].player);\n          payable(games[gameID].player).transfer(games[gameID].playerOffer * 2);\n          return;\n        }\n        else {      //Player AFK: enemy won.\n          games[gameID].ended = true;\n          emit EndGame(gameID, games[gameID].enemy);\n          payable(games[gameID].enemy).transfer(games[gameID].enemyOffer * 2);\n          return;\n        }\n      }\n    } \n    else {\n      games[gameID].afkBlock = block.number + 5;\n      games[gameID].afk = afkTarget;\n      return;\n    }\n\n  }\n\n  function board(uint256 gameID, bytes32 boardHash) public {\n    require(gameID < nextGameID);\n    require(gameID > 0);\n    require(games[gameID].ended == false, \"The game is over\");\n    \n    if (games[gameID].player == msg.sender) games[gameID].playerGridHash = boardHash;\n    if (games[gameID].enemy == msg.sender) games[gameID].enemyGridHash = boardHash;\n    \n    if(games[gameID].playerGridHash != 0 && games[gameID].enemyGridHash != 0) emit StartGame(gameID);\n  }\n\n}\n",
  "sourcePath": "/home/luca/block/solidity_projects/project/contracts/Battleship.sol",
  "compiler": {
    "name": "solc",
    "version": "0.8.19+commit.7dd6d404.Emscripten.clang"
  },
  "schemaVersion": "3.4.13",
  "updatedAt": "2023-06-11T07:51:29.884Z",
  "networkType": "ethereum",
  "devdoc": {
    "kind": "dev",
    "methods": {},
    "version": 1
  },
  "userdoc": {
    "kind": "user",
    "methods": {},
    "version": 1
  }
}