{
  "contractName": "Battleship",
  "abi": [
    {
      "anonymous": false,
      "inputs": [],
      "name": "BoardAdded",
      "type": "event"
    },
    {
      "anonymous": false,
      "inputs": [
        {
          "indexed": false,
          "internalType": "uint256",
          "name": "idGame",
          "type": "uint256"
        }
      ],
      "name": "CommonOffer",
      "type": "event"
    },
    {
      "anonymous": false,
      "inputs": [
        {
          "indexed": false,
          "internalType": "address",
          "name": "player",
          "type": "address"
        },
        {
          "indexed": false,
          "internalType": "address",
          "name": "enemy",
          "type": "address"
        },
        {
          "indexed": false,
          "internalType": "uint256",
          "name": "idGame",
          "type": "uint256"
        }
      ],
      "name": "JoinedGame",
      "type": "event"
    },
    {
      "anonymous": false,
      "inputs": [
        {
          "indexed": false,
          "internalType": "address",
          "name": "player",
          "type": "address"
        },
        {
          "indexed": false,
          "internalType": "uint256",
          "name": "idGame",
          "type": "uint256"
        }
      ],
      "name": "NewGameCreated",
      "type": "event"
    },
    {
      "anonymous": false,
      "inputs": [
        {
          "indexed": false,
          "internalType": "address",
          "name": "bidder",
          "type": "address"
        },
        {
          "indexed": false,
          "internalType": "uint8",
          "name": "offer",
          "type": "uint8"
        },
        {
          "indexed": false,
          "internalType": "uint256",
          "name": "idGame",
          "type": "uint256"
        }
      ],
      "name": "OfferReceived",
      "type": "event"
    },
    {
      "inputs": [],
      "name": "newGame",
      "outputs": [],
      "stateMutability": "nonpayable",
      "type": "function"
    },
    {
      "inputs": [
        {
          "internalType": "uint256",
          "name": "gameId",
          "type": "uint256"
        }
      ],
      "name": "joinGame",
      "outputs": [],
      "stateMutability": "nonpayable",
      "type": "function"
    },
    {
      "inputs": [
        {
          "internalType": "uint256",
          "name": "gameId",
          "type": "uint256"
        },
        {
          "internalType": "uint8",
          "name": "offer",
          "type": "uint8"
        }
      ],
      "name": "bet",
      "outputs": [],
      "stateMutability": "nonpayable",
      "type": "function"
    },
    {
      "inputs": [],
      "name": "attack",
      "outputs": [],
      "stateMutability": "nonpayable",
      "type": "function"
    },
    {
      "inputs": [],
      "name": "afkPlayer",
      "outputs": [],
      "stateMutability": "nonpayable",
      "type": "function"
    },
    {
      "inputs": [
        {
          "internalType": "bytes32",
          "name": "boardHash",
          "type": "bytes32"
        },
        {
          "internalType": "uint256",
          "name": "gameID",
          "type": "uint256"
        }
      ],
      "name": "board",
      "outputs": [],
      "stateMutability": "nonpayable",
      "type": "function"
    }
  ],
  "bytecode": "0x60806040526001600055600060015534801561001a57600080fd5b506112fa8061002a6000396000f3fe608060405234801561001057600080fd5b50600436106100625760003560e01c80634c73207b146100675780637d03f5f3146100715780638f6e47221461007b5780639e5faafc14610097578063c437a0cd146100a1578063efaa55a0146100bd575b600080fd5b61006f6100d9565b005b6100796100db565b005b61009560048036038101906100909190610c6e565b6102c4565b005b61009f61032a565b005b6100bb60048036038101906100b69190610ce7565b61032c565b005b6100d760048036038101906100d29190610d27565b610694565b005b565b7f72c5d3a1559eb2bbdb341b459f9be7a20ddd182562d779fc4decb64e69678de43360005460405161010e929190610da4565b60405180910390a133600260008054815260200190815260200160002060000160006101000a81548173ffffffffffffffffffffffffffffffffffffffff021916908373ffffffffffffffffffffffffffffffffffffffff1602179055506000600260008054815260200190815260200160002060010160006101000a81548173ffffffffffffffffffffffffffffffffffffffff021916908373ffffffffffffffffffffffffffffffffffffffff1602179055506000600260008054815260200190815260200160002060040160006101000a81548160ff0219169083151502179055506000600260008054815260200190815260200160002060040160016101000a81548160ff021916908360ff1602179055506000600260008054815260200190815260200160002060040160026101000a81548160ff021916908360ff1602179055506000801b6002600080548152602001908152602001600020600201819055506000801b6002600080548152602001908152602001600020600301819055506000808154809291906102a590610dfc565b9190505550600160008154809291906102bd90610dfc565b9190505550565b60005481106102d257600080fd5b600081116102df57600080fd5b7faf79e799cd35f75cd0a667f0fd35e9dba003a5d86156fa68f0af5988ad1b636060405160405180910390a18160026000838152602001908152602001600020600201819055505050565b565b6000821015610370576040517f08c379a000000000000000000000000000000000000000000000000000000000815260040161036790610ea1565b60405180910390fd5b60005482106103b4576040517f08c379a00000000000000000000000000000000000000000000000000000000081526004016103ab90610f0d565b60405180910390fd5b6002600083815260200190815260200160002060040160029054906101000a900460ff1660ff166002600084815260200190815260200160002060040160019054906101000a900460ff1660ff160361043f5760006002600084815260200190815260200160002060040160019054906101000a900460ff1660ff161461043a57600080fd5b610498565b6002600083815260200190815260200160002060040160029054906101000a900460ff1660ff166002600084815260200190815260200160002060040160019054906101000a900460ff1660ff160361049757600080fd5b5b3373ffffffffffffffffffffffffffffffffffffffff166002600084815260200190815260200160002060000160009054906101000a900473ffffffffffffffffffffffffffffffffffffffff1673ffffffffffffffffffffffffffffffffffffffff160361053157806002600084815260200190815260200160002060040160016101000a81548160ff021916908360ff1602179055505b3373ffffffffffffffffffffffffffffffffffffffff166002600084815260200190815260200160002060010160009054906101000a900473ffffffffffffffffffffffffffffffffffffffff1673ffffffffffffffffffffffffffffffffffffffff16036105ca57806002600084815260200190815260200160002060040160026101000a81548160ff021916908360ff1602179055505b7f64107d3b58e2bc36cabca25834e1c26c957548fa96238c27b51dccde8b3911893382846040516105fd93929190610f3c565b60405180910390a16002600083815260200190815260200160002060040160029054906101000a900460ff1660ff166002600084815260200190815260200160002060040160019054906101000a900460ff1660ff1603610690577f773c47391002826074a25d4be9fcf78003cf2800f42e2b88acb5f54b35b46b16826040516106879190610f73565b60405180910390a15b5050565b60008110156106d8576040517f08c379a00000000000000000000000000000000000000000000000000000000081526004016106cf90610ea1565b60405180910390fd5b600054811061071c576040517f08c379a000000000000000000000000000000000000000000000000000000000815260040161071390610f0d565b60405180910390fd5b600060015411610761576040517f08c379a000000000000000000000000000000000000000000000000000000000815260040161075890610fda565b60405180910390fd5b600081036109d25760006001436107789190610ffa565b4090506000602067ffffffffffffffff8111156107985761079761102e565b5b6040519080825280601f01601f1916602001820160405280156107ca5781602001600182028036833780820191505090505b50905060005b6020811015610845578281602081106107ec576107eb61105d565b5b1a60f81b8282815181106108035761080261105d565b5b60200101907effffffffffffffffffffffffffffffffffffffffffffffffffffffffffffff1916908160001a905350808061083d90610dfc565b9150506107d0565b506000818051906020012090506000600180548360001c61086691906110bb565b61087091906110ec565b90506000600190505b60005481101561098557600082031561098557600073ffffffffffffffffffffffffffffffffffffffff166002600083815260200190815260200160002060010160009054906101000a900473ffffffffffffffffffffffffffffffffffffffff1673ffffffffffffffffffffffffffffffffffffffff160361097257818061090190611120565b9250503373ffffffffffffffffffffffffffffffffffffffff166002600083815260200190815260200160002060000160009054906101000a900473ffffffffffffffffffffffffffffffffffffffff1673ffffffffffffffffffffffffffffffffffffffff1614610971578095505b5b808061097d90610dfc565b915050610879565b50600085036109c9576040517f08c379a00000000000000000000000000000000000000000000000000000000081526004016109c090611195565b60405180910390fd5b50505050610b1c565b3373ffffffffffffffffffffffffffffffffffffffff166002600083815260200190815260200160002060000160009054906101000a900473ffffffffffffffffffffffffffffffffffffffff1673ffffffffffffffffffffffffffffffffffffffff1603610a76576040517f08c379a0000000000000000000000000000000000000000000000000000000008152600401610a6d90611201565b60405180910390fd5b600073ffffffffffffffffffffffffffffffffffffffff166002600083815260200190815260200160002060010160009054906101000a900473ffffffffffffffffffffffffffffffffffffffff1673ffffffffffffffffffffffffffffffffffffffff1614610b1b576040517f08c379a0000000000000000000000000000000000000000000000000000000008152600401610b129061126d565b60405180910390fd5b5b336002600083815260200190815260200160002060010160006101000a81548173ffffffffffffffffffffffffffffffffffffffff021916908373ffffffffffffffffffffffffffffffffffffffff16021790555060016000815480929190610b8490611120565b91905055507f905bf3b2c904b11ad68125a070ae243e2a22049136e141d2a5c5953a485362776002600083815260200190815260200160002060000160009054906101000a900473ffffffffffffffffffffffffffffffffffffffff163383604051610bf29392919061128d565b60405180910390a150565b600080fd5b6000819050919050565b610c1581610c02565b8114610c2057600080fd5b50565b600081359050610c3281610c0c565b92915050565b6000819050919050565b610c4b81610c38565b8114610c5657600080fd5b50565b600081359050610c6881610c42565b92915050565b60008060408385031215610c8557610c84610bfd565b5b6000610c9385828601610c23565b9250506020610ca485828601610c59565b9150509250929050565b600060ff82169050919050565b610cc481610cae565b8114610ccf57600080fd5b50565b600081359050610ce181610cbb565b92915050565b60008060408385031215610cfe57610cfd610bfd565b5b6000610d0c85828601610c59565b9250506020610d1d85828601610cd2565b9150509250929050565b600060208284031215610d3d57610d3c610bfd565b5b6000610d4b84828501610c59565b91505092915050565b600073ffffffffffffffffffffffffffffffffffffffff82169050919050565b6000610d7f82610d54565b9050919050565b610d8f81610d74565b82525050565b610d9e81610c38565b82525050565b6000604082019050610db96000830185610d86565b610dc66020830184610d95565b9392505050565b7f4e487b7100000000000000000000000000000000000000000000000000000000600052601160045260246000fd5b6000610e0782610c38565b91507fffffffffffffffffffffffffffffffffffffffffffffffffffffffffffffffff8203610e3957610e38610dcd565b5b600182019050919050565b600082825260208201905092915050565b7f4944206d7573742062652067726561746572207468616e203000000000000000600082015250565b6000610e8b601983610e44565b9150610e9682610e55565b602082019050919050565b60006020820190508181036000830152610eba81610e7e565b9050919050565b7f47616d65206e6f74206f70656e00000000000000000000000000000000000000600082015250565b6000610ef7600d83610e44565b9150610f0282610ec1565b602082019050919050565b60006020820190508181036000830152610f2681610eea565b9050919050565b610f3681610cae565b82525050565b6000606082019050610f516000830186610d86565b610f5e6020830185610f2d565b610f6b6040830184610d95565b949350505050565b6000602082019050610f886000830184610d95565b92915050565b7f4e6f2067616d657320617661696c61626c650000000000000000000000000000600082015250565b6000610fc4601283610e44565b9150610fcf82610f8e565b602082019050919050565b60006020820190508181036000830152610ff381610fb7565b9050919050565b600061100582610c38565b915061101083610c38565b925082820390508181111561102857611027610dcd565b5b92915050565b7f4e487b7100000000000000000000000000000000000000000000000000000000600052604160045260246000fd5b7f4e487b7100000000000000000000000000000000000000000000000000000000600052603260045260246000fd5b7f4e487b7100000000000000000000000000000000000000000000000000000000600052601260045260246000fd5b60006110c682610c38565b91506110d183610c38565b9250826110e1576110e061108c565b5b828206905092915050565b60006110f782610c38565b915061110283610c38565b925082820190508082111561111a57611119610dcd565b5b92915050565b600061112b82610c38565b91506000820361113e5761113d610dcd565b5b600182039050919050565b7f4d61746368206e6f7420666f756e640000000000000000000000000000000000600082015250565b600061117f600f83610e44565b915061118a82611149565b602082019050919050565b600060208201905081810360008301526111ae81611172565b9050919050565b7f596f752063616e6e6f74206a6f696e20796f7572206f776e2067616d65000000600082015250565b60006111eb601d83610e44565b91506111f6826111b5565b602082019050919050565b6000602082019050818103600083015261121a816111de565b9050919050565b7f47616d6520616c7265616479206861732074776f20706c617965727300000000600082015250565b6000611257601c83610e44565b915061126282611221565b602082019050919050565b600060208201905081810360008301526112868161124a565b9050919050565b60006060820190506112a26000830186610d86565b6112af6020830185610d86565b6112bc6040830184610d95565b94935050505056fea26469706673582212206dc6fce1bcbf2b168dc85bd8a0b4d0d4b9c38fa36773229852c2b6d73eb2d3ef64736f6c63430008130033",
  "immutableReferences": {},
  "source": "// SPDX-License-Identifier: MIT\npragma solidity >=0.4.22 <0.9.0;\n\ncontract Battleship {\n  //uint8 constant GRID_SIZE = 10;\n  uint256 private nextGameID = 1;\n  uint256 private counter = 0;  //conta il numero di partite aperte\n\n  struct Game {\n    address player;\n    address enemy;    //address(0): non c' il giocatore\n    bytes32 playerGridHash;\n    bytes32 enemyGridHash;\n    bool ended;       //false: la partita non  finita; true: la partita  finita\n    uint8 playerOffer;\n    uint8 enemyOffer;\n  }\n\n  mapping (uint256 => Game) private games;\n  event NewGameCreated(address player, uint256 idGame);\n  event JoinedGame(address player, address enemy, uint256 idGame);\n  event BoardAdded();\n  event OfferReceived(address bidder, uint8 offer, uint256 idGame);\n  event CommonOffer(uint256 idGame);\n\n  function newGame() public {\n    emit NewGameCreated(msg.sender, nextGameID);\n    games[nextGameID].player = msg.sender;\n    games[nextGameID].enemy = address(0);\n    games[nextGameID].ended = false;\n    games[nextGameID].playerOffer = 0;\n    games[nextGameID].enemyOffer = 0;\n    games[nextGameID].playerGridHash = 0;\n    games[nextGameID].enemyGridHash = 0;\n    nextGameID++;\n    counter++;\n  }\n\n  function joinGame(uint256 gameId) public {   //gestisce sia il random che non\n    require(gameId >= 0, \"ID must be greater than 0\");\n    require(gameId < nextGameID, \"Game not open\");\n    require(counter > 0, \"No games available\");\n\n    //randomness\n    if(gameId == 0) {\n      bytes32 bhash = blockhash(block.number - 1);\n      bytes memory bytesArray = new bytes(32);\n      for (uint i; i < 32; i++) {\n          bytesArray[i] = bhash[i];\n      }\n      bytes32 rand = keccak256(bytesArray);\n      uint256 index = uint256(rand) % counter + 1;\n\n      for(uint256 j = 1; j < nextGameID; j++) {\n        if(index == 0) {\n          break;\n        }\n        if(games[j].enemy == address(0)) {\n          index--;\n          if(games[j].player != msg.sender)   //un giocatore non pu unirsi alla sua stessa partita\n            gameId = j;\n        }\n      }\n      if(gameId == 0)\n        revert(\"Match not found\");\n    }\n    //not random\n    else {\n      if(games[gameId].player == msg.sender)\n        revert(\"You cannot join your own game\"); \n      if(games[gameId].enemy != address(0))\n        revert(\"Game already has two players\");      \n    }\n    games[gameId].enemy = msg.sender;\n    counter--;\n    emit JoinedGame(games[gameId].player, msg.sender, gameId);\n  } \n\n  //function ricevisoldi?\n\n  function bet(uint256 gameId, uint8 offer) public {\n    require(gameId >= 0, \"ID must be greater than 0\");\n    require(gameId < nextGameID, \"Game not open\");\n    if (games[gameId].playerOffer == games[gameId].enemyOffer) require(games[gameId].playerOffer == 0);\n    else require(games[gameId].playerOffer != games[gameId].enemyOffer);\n\n    if (games[gameId].player == msg.sender) games[gameId].playerOffer = offer;\n    if (games[gameId].enemy == msg.sender) games[gameId].enemyOffer = offer;\n\n    emit OfferReceived(msg.sender, offer, gameId);\n\n    if (games[gameId].playerOffer == games[gameId].enemyOffer) {\n      emit CommonOffer(gameId);\n    }\n\n  }\n\n  function attack() public {}\n\n  function checkWinner() private {}\n\n  function endGame() private {}\n\n  function afkPlayer() public {}\n\n  function board(bytes32 boardHash, uint256 gameID) public {\n    require(gameID < nextGameID);\n    require(gameID > 0);\n\n    emit BoardAdded();\n    games[gameID].playerGridHash = boardHash;\n  }\n\n}",
  "sourcePath": "/home/luca/block/solidity_projects/project/contracts/Battleship.sol",
  "compiler": {
    "name": "solc",
    "version": "0.8.19+commit.7dd6d404.Emscripten.clang"
  },
  "schemaVersion": "3.4.13",
  "updatedAt": "2023-05-23T19:59:40.189Z",
  "networkType": "ethereum",
  "devdoc": {
    "kind": "dev",
    "methods": {},
    "version": 1
  },
  "userdoc": {
    "kind": "user",
    "methods": {},
    "version": 1
  }
}