{
  "contractName": "Battleship",
  "abi": [
    {
      "anonymous": false,
      "inputs": [
        {
          "indexed": false,
          "internalType": "uint256",
          "name": "idGame",
          "type": "uint256"
        },
        {
          "indexed": false,
          "internalType": "uint8",
          "name": "response",
          "type": "uint8"
        }
      ],
      "name": "AttackResponse",
      "type": "event"
    },
    {
      "anonymous": false,
      "inputs": [
        {
          "indexed": false,
          "internalType": "uint256",
          "name": "idGame",
          "type": "uint256"
        },
        {
          "indexed": false,
          "internalType": "uint8",
          "name": "cell",
          "type": "uint8"
        }
      ],
      "name": "AttackedCell",
      "type": "event"
    },
    {
      "anonymous": false,
      "inputs": [
        {
          "indexed": false,
          "internalType": "uint256",
          "name": "offer",
          "type": "uint256"
        },
        {
          "indexed": false,
          "internalType": "uint256",
          "name": "idGame",
          "type": "uint256"
        }
      ],
      "name": "CommonOffer",
      "type": "event"
    },
    {
      "anonymous": false,
      "inputs": [
        {
          "indexed": false,
          "internalType": "uint256",
          "name": "idGame",
          "type": "uint256"
        },
        {
          "indexed": false,
          "internalType": "address",
          "name": "winner",
          "type": "address"
        }
      ],
      "name": "EndGame",
      "type": "event"
    },
    {
      "anonymous": false,
      "inputs": [
        {
          "indexed": false,
          "internalType": "address",
          "name": "player",
          "type": "address"
        },
        {
          "indexed": false,
          "internalType": "address",
          "name": "enemy",
          "type": "address"
        },
        {
          "indexed": false,
          "internalType": "uint256",
          "name": "idGame",
          "type": "uint256"
        },
        {
          "indexed": false,
          "internalType": "uint8",
          "name": "boardDimension",
          "type": "uint8"
        }
      ],
      "name": "JoinedGame",
      "type": "event"
    },
    {
      "anonymous": false,
      "inputs": [
        {
          "indexed": false,
          "internalType": "address",
          "name": "player",
          "type": "address"
        },
        {
          "indexed": false,
          "internalType": "uint256",
          "name": "idGame",
          "type": "uint256"
        }
      ],
      "name": "NewGameCreated",
      "type": "event"
    },
    {
      "anonymous": false,
      "inputs": [
        {
          "indexed": false,
          "internalType": "address",
          "name": "bidder",
          "type": "address"
        },
        {
          "indexed": false,
          "internalType": "uint256",
          "name": "offer",
          "type": "uint256"
        },
        {
          "indexed": false,
          "internalType": "uint256",
          "name": "idGame",
          "type": "uint256"
        }
      ],
      "name": "OfferReceived",
      "type": "event"
    },
    {
      "anonymous": false,
      "inputs": [
        {
          "indexed": false,
          "internalType": "uint256",
          "name": "idGame",
          "type": "uint256"
        },
        {
          "indexed": false,
          "internalType": "address",
          "name": "check",
          "type": "address"
        }
      ],
      "name": "ReceiveBoard",
      "type": "event"
    },
    {
      "anonymous": false,
      "inputs": [
        {
          "indexed": false,
          "internalType": "uint256",
          "name": "idGame",
          "type": "uint256"
        }
      ],
      "name": "SetGame",
      "type": "event"
    },
    {
      "anonymous": false,
      "inputs": [
        {
          "indexed": false,
          "internalType": "uint256",
          "name": "idGame",
          "type": "uint256"
        }
      ],
      "name": "StartGame",
      "type": "event"
    },
    {
      "inputs": [
        {
          "internalType": "uint8",
          "name": "dimension",
          "type": "uint8"
        }
      ],
      "name": "newGame",
      "outputs": [],
      "stateMutability": "nonpayable",
      "type": "function"
    },
    {
      "inputs": [
        {
          "internalType": "uint256",
          "name": "gameId",
          "type": "uint256"
        }
      ],
      "name": "joinGame",
      "outputs": [],
      "stateMutability": "nonpayable",
      "type": "function"
    },
    {
      "inputs": [
        {
          "internalType": "uint256",
          "name": "gameId",
          "type": "uint256"
        },
        {
          "internalType": "uint256",
          "name": "offer",
          "type": "uint256"
        }
      ],
      "name": "bet",
      "outputs": [],
      "stateMutability": "nonpayable",
      "type": "function"
    },
    {
      "inputs": [
        {
          "internalType": "uint256",
          "name": "gameId",
          "type": "uint256"
        }
      ],
      "name": "pay",
      "outputs": [],
      "stateMutability": "payable",
      "type": "function",
      "payable": true
    },
    {
      "inputs": [
        {
          "internalType": "uint256",
          "name": "gameID",
          "type": "uint256"
        },
        {
          "internalType": "uint8",
          "name": "cellID",
          "type": "uint8"
        }
      ],
      "name": "attack",
      "outputs": [],
      "stateMutability": "nonpayable",
      "type": "function"
    },
    {
      "inputs": [
        {
          "internalType": "uint256",
          "name": "gameID",
          "type": "uint256"
        },
        {
          "internalType": "uint8",
          "name": "value",
          "type": "uint8"
        },
        {
          "internalType": "bytes32[]",
          "name": "merkleProof",
          "type": "bytes32[]"
        },
        {
          "internalType": "uint8",
          "name": "cellID",
          "type": "uint8"
        }
      ],
      "name": "attackResponse",
      "outputs": [],
      "stateMutability": "payable",
      "type": "function",
      "payable": true
    },
    {
      "inputs": [
        {
          "internalType": "uint256",
          "name": "gameID",
          "type": "uint256"
        },
        {
          "internalType": "uint8[]",
          "name": "winnerBoard",
          "type": "uint8[]"
        }
      ],
      "name": "checkWinner",
      "outputs": [],
      "stateMutability": "payable",
      "type": "function",
      "payable": true
    },
    {
      "inputs": [
        {
          "internalType": "uint256",
          "name": "gameID",
          "type": "uint256"
        }
      ],
      "name": "afkPlayer",
      "outputs": [],
      "stateMutability": "nonpayable",
      "type": "function"
    },
    {
      "inputs": [
        {
          "internalType": "uint256",
          "name": "gameID",
          "type": "uint256"
        },
        {
          "internalType": "bytes32",
          "name": "boardHash",
          "type": "bytes32"
        }
      ],
      "name": "board",
      "outputs": [],
      "stateMutability": "nonpayable",
      "type": "function"
    }
  ],
  "bytecode": "0x60806040526001600055600060015560028060006101000a81548160ff021916908360ff16021790555034801561003557600080fd5b50613e07806100456000396000f3fe6080604052600436106100865760003560e01c8063c290d69111610059578063c290d69114610122578063d6db26be1461013e578063df00dc7114610167578063eb80636814610183578063efaa55a0146101ac57610086565b80632b3bf33a1461008b5780636ffcc719146100a75780639f3aa7f2146100d0578063bbf344ce146100f9575b600080fd5b6100a560048036038101906100a09190613329565b6101d5565b005b3480156100b357600080fd5b506100ce60048036038101906100c99190613385565b610c92565b005b3480156100dc57600080fd5b506100f760048036038101906100f291906133c5565b6110bd565b005b34801561010557600080fd5b50610120600480360381019061011b9190613405565b611404565b005b61013c60048036038101906101379190613432565b611748565b005b34801561014a57600080fd5b5061016560048036038101906101609190613432565b611a38565b005b610181600480360381019061017c9190613558565b611ff1565b005b34801561018f57600080fd5b506101aa60048036038101906101a591906135db565b612943565b005b3480156101b857600080fd5b506101d360048036038101906101ce9190613432565b612b55565b005b6000821015610219576040517f08c379a000000000000000000000000000000000000000000000000000000000815260040161021090613678565b60405180910390fd5b600054821061025d576040517f08c379a0000000000000000000000000000000000000000000000000000000008152600401610254906136e4565b60405180910390fd5b600015156003600084815260200190815260200160002060040160009054906101000a900460ff161515146102c7576040517f08c379a00000000000000000000000000000000000000000000000000000000081526004016102be90613750565b60405180910390fd5b3373ffffffffffffffffffffffffffffffffffffffff166003600084815260200190815260200160002060000160009054906101000a900473ffffffffffffffffffffffffffffffffffffffff1673ffffffffffffffffffffffffffffffffffffffff161415801561039b57503373ffffffffffffffffffffffffffffffffffffffff166003600084815260200190815260200160002060010160009054906101000a900473ffffffffffffffffffffffffffffffffffffffff1673ffffffffffffffffffffffffffffffffffffffff1614155b610c8e5760003373ffffffffffffffffffffffffffffffffffffffff166003600085815260200190815260200160002060000160009054906101000a900473ffffffffffffffffffffffffffffffffffffffff1673ffffffffffffffffffffffffffffffffffffffff160361040f57600190505b801561058c5760006003600085815260200190815260200160002060070160039054906101000a900460ff1660ff1611156105875760016003600085815260200190815260200160002060040160006101000a81548160ff0219169083151502179055507f84f8e1147ed860fdcb13c73d1ec1bf4aa9cded9250811ad1067ea2e81b61affd836003600086815260200190815260200160002060010160009054906101000a900473ffffffffffffffffffffffffffffffffffffffff166040516104da9291906137c0565b60405180910390a16003600084815260200190815260200160002060010160009054906101000a900473ffffffffffffffffffffffffffffffffffffffff1673ffffffffffffffffffffffffffffffffffffffff166108fc600260036000878152602001908152602001600020600601546105559190613818565b9081150290604051600060405180830381858888f19350505050158015610580573d6000803e3d6000fd5b5050610c8e565b6106ff565b60006003600085815260200190815260200160002060070160029054906101000a900460ff1660ff1611156106fe5760016003600085815260200190815260200160002060040160006101000a81548160ff0219169083151502179055507f84f8e1147ed860fdcb13c73d1ec1bf4aa9cded9250811ad1067ea2e81b61affd836003600086815260200190815260200160002060000160009054906101000a900473ffffffffffffffffffffffffffffffffffffffff166040516106519291906137c0565b60405180910390a16003600084815260200190815260200160002060000160009054906101000a900473ffffffffffffffffffffffffffffffffffffffff1673ffffffffffffffffffffffffffffffffffffffff166108fc600260036000878152602001908152602001600020600501546106cc9190613818565b9081150290604051600060405180830381858888f193505050501580156106f7573d6000803e3d6000fd5b5050610c8e565b5b6000805b83518160ff161015610759576001848260ff16815181106107275761072661385a565b5b602002602001015160ff160361074657818061074290613889565b9250505b808061075190613889565b915050610703565b50600260009054906101000a900460ff1660ff168160ff1603610a045781156108c05760016003600086815260200190815260200160002060040160006101000a81548160ff0219169083151502179055507f84f8e1147ed860fdcb13c73d1ec1bf4aa9cded9250811ad1067ea2e81b61affd846003600087815260200190815260200160002060000160009054906101000a900473ffffffffffffffffffffffffffffffffffffffff166040516108129291906137c0565b60405180910390a16003600085815260200190815260200160002060000160009054906101000a900473ffffffffffffffffffffffffffffffffffffffff1673ffffffffffffffffffffffffffffffffffffffff166108fc6002600360008881526020019081526020016000206005015461088d9190613818565b9081150290604051600060405180830381858888f193505050501580156108b8573d6000803e3d6000fd5b505050610c8e565b60016003600086815260200190815260200160002060040160006101000a81548160ff0219169083151502179055507f84f8e1147ed860fdcb13c73d1ec1bf4aa9cded9250811ad1067ea2e81b61affd846003600087815260200190815260200160002060010160009054906101000a900473ffffffffffffffffffffffffffffffffffffffff166040516109569291906137c0565b60405180910390a16003600085815260200190815260200160002060010160009054906101000a900473ffffffffffffffffffffffffffffffffffffffff1673ffffffffffffffffffffffffffffffffffffffff166108fc600260036000888152602001908152602001600020600601546109d19190613818565b9081150290604051600060405180830381858888f193505050501580156109fc573d6000803e3d6000fd5b505050610c8e565b8115610b4e5760016003600086815260200190815260200160002060040160006101000a81548160ff0219169083151502179055507f84f8e1147ed860fdcb13c73d1ec1bf4aa9cded9250811ad1067ea2e81b61affd846003600087815260200190815260200160002060010160009054906101000a900473ffffffffffffffffffffffffffffffffffffffff16604051610aa09291906137c0565b60405180910390a16003600085815260200190815260200160002060010160009054906101000a900473ffffffffffffffffffffffffffffffffffffffff1673ffffffffffffffffffffffffffffffffffffffff166108fc60026003600088815260200190815260200160002060060154610b1b9190613818565b9081150290604051600060405180830381858888f19350505050158015610b46573d6000803e3d6000fd5b505050610c8e565b60016003600086815260200190815260200160002060040160006101000a81548160ff0219169083151502179055507f84f8e1147ed860fdcb13c73d1ec1bf4aa9cded9250811ad1067ea2e81b61affd846003600087815260200190815260200160002060000160009054906101000a900473ffffffffffffffffffffffffffffffffffffffff16604051610be49291906137c0565b60405180910390a16003600085815260200190815260200160002060000160009054906101000a900473ffffffffffffffffffffffffffffffffffffffff1673ffffffffffffffffffffffffffffffffffffffff166108fc60026003600088815260200190815260200160002060050154610c5f9190613818565b9081150290604051600060405180830381858888f19350505050158015610c8a573d6000803e3d6000fd5b5050505b5050565b6000821015610cd6576040517f08c379a0000000000000000000000000000000000000000000000000000000008152600401610ccd90613678565b60405180910390fd5b6000548210610d1a576040517f08c379a0000000000000000000000000000000000000000000000000000000008152600401610d11906136e4565b60405180910390fd5b600015156003600084815260200190815260200160002060040160009054906101000a900460ff16151514610d84576040517f08c379a0000000000000000000000000000000000000000000000000000000008152600401610d7b90613750565b60405180910390fd5b3373ffffffffffffffffffffffffffffffffffffffff166003600084815260200190815260200160002060000160009054906101000a900473ffffffffffffffffffffffffffffffffffffffff1673ffffffffffffffffffffffffffffffffffffffff1614158015610e5857503373ffffffffffffffffffffffffffffffffffffffff166003600084815260200190815260200160002060010160009054906101000a900473ffffffffffffffffffffffffffffffffffffffff1673ffffffffffffffffffffffffffffffffffffffff1614155b6110b9576003600083815260200190815260200160002060060154600360008481526020019081526020016000206005015403610eb7576000600360008481526020019081526020016000206005015414610eb257600080fd5b610ef0565b6003600083815260200190815260200160002060060154600360008481526020019081526020016000206005015403610eef57600080fd5b5b3373ffffffffffffffffffffffffffffffffffffffff166003600084815260200190815260200160002060000160009054906101000a900473ffffffffffffffffffffffffffffffffffffffff1673ffffffffffffffffffffffffffffffffffffffff1603610f75578060036000848152602001908152602001600020600501819055505b3373ffffffffffffffffffffffffffffffffffffffff166003600084815260200190815260200160002060010160009054906101000a900473ffffffffffffffffffffffffffffffffffffffff1673ffffffffffffffffffffffffffffffffffffffff1603610ffa578060036000848152602001908152602001600020600601819055505b7f2c7945bf3248598029aaee74e7a7c694cceba99c30ab722154f6e8315addb76933828460405161102d939291906138b2565b60405180910390a160036000838152602001908152602001600020600601546003600084815260200190815260200160002060050154036110b8577f8cfe50bd5101dc31fd79c1afd658dc02788d2230e3db619e94293721c8db04c66003600084815260200190815260200160002060050154836040516110af9291906138e9565b60405180910390a15b5b5050565b6000821015611101576040517f08c379a00000000000000000000000000000000000000000000000000000000081526004016110f890613678565b60405180910390fd5b6000548210611145576040517f08c379a000000000000000000000000000000000000000000000000000000000815260040161113c906136e4565b60405180910390fd5b600015156003600084815260200190815260200160002060040160009054906101000a900460ff161515146111af576040517f08c379a00000000000000000000000000000000000000000000000000000000081526004016111a690613750565b60405180910390fd5b6003600083815260200190815260200160002060010160149054906101000a900460ff166003600084815260200190815260200160002060010160149054906101000a900460ff166112019190613912565b60ff168160ff161061121257600080fd5b3373ffffffffffffffffffffffffffffffffffffffff166003600084815260200190815260200160002060000160009054906101000a900473ffffffffffffffffffffffffffffffffffffffff1673ffffffffffffffffffffffffffffffffffffffff16141580156112e657503373ffffffffffffffffffffffffffffffffffffffff166003600084815260200190815260200160002060010160009054906101000a900473ffffffffffffffffffffffffffffffffffffffff1673ffffffffffffffffffffffffffffffffffffffff1614155b611400573373ffffffffffffffffffffffffffffffffffffffff166003600084815260200190815260200160002060070160049054906101000a900473ffffffffffffffffffffffffffffffffffffffff1673ffffffffffffffffffffffffffffffffffffffff16036113c65760006003600084815260200190815260200160002060070160046101000a81548173ffffffffffffffffffffffffffffffffffffffff021916908373ffffffffffffffffffffffffffffffffffffffff160217905550600060036000848152602001908152602001600020600801819055505b7fc280882498990ef85d0e9ab56571c30cb4dff4e685ce905f3caaac3ec98c6fb782826040516113f792919061395e565b60405180910390a15b5050565b7f72c5d3a1559eb2bbdb341b459f9be7a20ddd182562d779fc4decb64e69678de433600054604051611437929190613987565b60405180910390a133600360008054815260200190815260200160002060000160006101000a81548173ffffffffffffffffffffffffffffffffffffffff021916908373ffffffffffffffffffffffffffffffffffffffff1602179055506000600360008054815260200190815260200160002060010160006101000a81548173ffffffffffffffffffffffffffffffffffffffff021916908373ffffffffffffffffffffffffffffffffffffffff16021790555080600360008054815260200190815260200160002060010160146101000a81548160ff021916908360ff1602179055506000600360008054815260200190815260200160002060040160006101000a81548160ff021916908315150217905550600060036000805481526020019081526020016000206005018190555060006003600080548152602001908152602001600020600601819055506000801b6003600080548152602001908152602001600020600201819055506000801b6003600080548152602001908152602001600020600301819055506000600360008054815260200190815260200160002060070160006101000a81548160ff0219169083151502179055506000600360008054815260200190815260200160002060070160016101000a81548160ff021916908315150217905550600260009054906101000a900460ff16600360008054815260200190815260200160002060070160026101000a81548160ff021916908360ff160217905550600260009054906101000a900460ff16600360008054815260200190815260200160002060070160036101000a81548160ff021916908360ff1602179055506000600360008054815260200190815260200160002060070160046101000a81548173ffffffffffffffffffffffffffffffffffffffff021916908373ffffffffffffffffffffffffffffffffffffffff1602179055506000600360008054815260200190815260200160002060080181905550600080815480929190611728906139b0565b919050555060016000815480929190611740906139b0565b919050555050565b600081101561178c576040517f08c379a000000000000000000000000000000000000000000000000000000000815260040161178390613678565b60405180910390fd5b60005481106117d0576040517f08c379a00000000000000000000000000000000000000000000000000000000081526004016117c7906136e4565b60405180910390fd5b600015156003600083815260200190815260200160002060040160009054906101000a900460ff1615151461183a576040517f08c379a000000000000000000000000000000000000000000000000000000000815260040161183190613750565b60405180910390fd5b3373ffffffffffffffffffffffffffffffffffffffff166003600083815260200190815260200160002060000160009054906101000a900473ffffffffffffffffffffffffffffffffffffffff1673ffffffffffffffffffffffffffffffffffffffff16036118f157346003600083815260200190815260200160002060050154036118f05760016003600083815260200190815260200160002060070160006101000a81548160ff0219169083151502179055505b5b3373ffffffffffffffffffffffffffffffffffffffff166003600083815260200190815260200160002060010160009054906101000a900473ffffffffffffffffffffffffffffffffffffffff1673ffffffffffffffffffffffffffffffffffffffff16036119a857346003600083815260200190815260200160002060050154036119a75760016003600083815260200190815260200160002060070160016101000a81548160ff0219169083151502179055505b5b6003600082815260200190815260200160002060070160009054906101000a900460ff1680156119f857506003600082815260200190815260200160002060070160019054906101000a900460ff165b15611a35577f89d296e0b0d0ef2bd13830476724f0af14967da173593250e67e6924f1f9163a81604051611a2c91906139f8565b60405180910390a15b50565b6000548110611a4657600080fd5b60008111611a5357600080fd5b600015156003600083815260200190815260200160002060040160009054906101000a900460ff16151514611abd576040517f08c379a0000000000000000000000000000000000000000000000000000000008152600401611ab490613750565b60405180910390fd5b60003373ffffffffffffffffffffffffffffffffffffffff166003600084815260200190815260200160002060000160009054906101000a900473ffffffffffffffffffffffffffffffffffffffff1673ffffffffffffffffffffffffffffffffffffffff1603611b62576003600083815260200190815260200160002060010160009054906101000a900473ffffffffffffffffffffffffffffffffffffffff1690505b3373ffffffffffffffffffffffffffffffffffffffff166003600084815260200190815260200160002060010160009054906101000a900473ffffffffffffffffffffffffffffffffffffffff1673ffffffffffffffffffffffffffffffffffffffff1603611c05576003600083815260200190815260200160002060000160009054906101000a900473ffffffffffffffffffffffffffffffffffffffff1690505b6000600360008481526020019081526020016000206008015414611f6a5760036000838152602001908152602001600020600801544310611f65576003600083815260200190815260200160002060010160009054906101000a900473ffffffffffffffffffffffffffffffffffffffff1673ffffffffffffffffffffffffffffffffffffffff166003600084815260200190815260200160002060070160049054906101000a900473ffffffffffffffffffffffffffffffffffffffff1673ffffffffffffffffffffffffffffffffffffffff1603611e225760016003600084815260200190815260200160002060040160006101000a81548160ff0219169083151502179055507f84f8e1147ed860fdcb13c73d1ec1bf4aa9cded9250811ad1067ea2e81b61affd826003600085815260200190815260200160002060000160009054906101000a900473ffffffffffffffffffffffffffffffffffffffff16604051611d759291906137c0565b60405180910390a16003600083815260200190815260200160002060000160009054906101000a900473ffffffffffffffffffffffffffffffffffffffff1673ffffffffffffffffffffffffffffffffffffffff166108fc60026003600086815260200190815260200160002060050154611df09190613818565b9081150290604051600060405180830381858888f19350505050158015611e1b573d6000803e3d6000fd5b5050611fee565b60016003600084815260200190815260200160002060040160006101000a81548160ff0219169083151502179055507f84f8e1147ed860fdcb13c73d1ec1bf4aa9cded9250811ad1067ea2e81b61affd826003600085815260200190815260200160002060010160009054906101000a900473ffffffffffffffffffffffffffffffffffffffff16604051611eb89291906137c0565b60405180910390a16003600083815260200190815260200160002060010160009054906101000a900473ffffffffffffffffffffffffffffffffffffffff1673ffffffffffffffffffffffffffffffffffffffff166108fc60026003600086815260200190815260200160002060060154611f339190613818565b9081150290604051600060405180830381858888f19350505050158015611f5e573d6000803e3d6000fd5b5050611fee565b611fec565b600543611f779190613a13565b6003600084815260200190815260200160002060080181905550806003600084815260200190815260200160002060070160046101000a81548173ffffffffffffffffffffffffffffffffffffffff021916908373ffffffffffffffffffffffffffffffffffffffff16021790555050611fee565b505b50565b6000841015612035576040517f08c379a000000000000000000000000000000000000000000000000000000000815260040161202c90613678565b60405180910390fd5b6000548410612079576040517f08c379a0000000000000000000000000000000000000000000000000000000008152600401612070906136e4565b60405180910390fd5b600015156003600086815260200190815260200160002060040160009054906101000a900460ff161515146120e3576040517f08c379a00000000000000000000000000000000000000000000000000000000081526004016120da90613750565b60405180910390fd5b3373ffffffffffffffffffffffffffffffffffffffff166003600086815260200190815260200160002060000160009054906101000a900473ffffffffffffffffffffffffffffffffffffffff1673ffffffffffffffffffffffffffffffffffffffff16141580156121b757503373ffffffffffffffffffffffffffffffffffffffff166003600086815260200190815260200160002060010160009054906101000a900473ffffffffffffffffffffffffffffffffffffffff1673ffffffffffffffffffffffffffffffffffffffff1614155b61293d5760008190506000836000815181106121d6576121d561385a565b5b602002602001015190506000600190505b84518110156122e05760006002846121ff9190613a76565b60ff16036122785784818151811061221a5761221961385a565b5b60200260200101518214612272578185828151811061223c5761223b61385a565b5b6020026020010151604051602001612255929190613ac8565b604051602081830303815290604052805190602001209150612273565b5b6122be565b84818151811061228b5761228a61385a565b5b6020026020010151826040516020016122a5929190613ac8565b6040516020818303038152906040528051906020012091505b6002836122cb9190613af4565b925080806122d8906139b0565b9150506121e7565b503373ffffffffffffffffffffffffffffffffffffffff166003600088815260200190815260200160002060000160009054906101000a900473ffffffffffffffffffffffffffffffffffffffff1673ffffffffffffffffffffffffffffffffffffffff160361260f57806003600088815260200190815260200160002060020154146124db5760006003600088815260200190815260200160002060070160026101000a81548160ff021916908360ff16021790555060016003600088815260200190815260200160002060040160006101000a81548160ff0219169083151502179055507f84f8e1147ed860fdcb13c73d1ec1bf4aa9cded9250811ad1067ea2e81b61affd866003600089815260200190815260200160002060010160009054906101000a900473ffffffffffffffffffffffffffffffffffffffff1660405161242d9291906137c0565b60405180910390a16003600087815260200190815260200160002060010160009054906101000a900473ffffffffffffffffffffffffffffffffffffffff1673ffffffffffffffffffffffffffffffffffffffff166108fc6002600360008a8152602001908152602001600020600501546124a89190613818565b9081150290604051600060405180830381858888f193505050501580156124d3573d6000803e3d6000fd5b50505061293d565b60018560ff16036125335760036000878152602001908152602001600020600701600281819054906101000a900460ff168092919061251990613b25565b91906101000a81548160ff021916908360ff160217905550505b7f947c83f89088f787849558a38428bf2c2f946698539be2a66a0cac7cc199606c868660405161256492919061395e565b60405180910390a160006003600088815260200190815260200160002060070160029054906101000a900460ff1660ff160361260a577ff942afe004c76075b0ad49c8a2697d28413e511e135ed6576d2513d9ef0bf5f2866003600089815260200190815260200160002060000160009054906101000a900473ffffffffffffffffffffffffffffffffffffffff166040516126019291906137c0565b60405180910390a15b61293a565b3373ffffffffffffffffffffffffffffffffffffffff166003600088815260200190815260200160002060010160009054906101000a900473ffffffffffffffffffffffffffffffffffffffff1673ffffffffffffffffffffffffffffffffffffffff160361293957806003600088815260200190815260200160002060030154146128095760006003600088815260200190815260200160002060070160036101000a81548160ff021916908360ff16021790555060016003600088815260200190815260200160002060040160006101000a81548160ff0219169083151502179055507f84f8e1147ed860fdcb13c73d1ec1bf4aa9cded9250811ad1067ea2e81b61affd866003600089815260200190815260200160002060000160009054906101000a900473ffffffffffffffffffffffffffffffffffffffff1660405161275b9291906137c0565b60405180910390a16003600087815260200190815260200160002060000160009054906101000a900473ffffffffffffffffffffffffffffffffffffffff1673ffffffffffffffffffffffffffffffffffffffff166108fc6002600360008a8152602001908152602001600020600501546127d69190613818565b9081150290604051600060405180830381858888f19350505050158015612801573d6000803e3d6000fd5b50505061293d565b60018560ff16036128615760036000878152602001908152602001600020600701600381819054906101000a900460ff168092919061284790613b25565b91906101000a81548160ff021916908360ff160217905550505b7f947c83f89088f787849558a38428bf2c2f946698539be2a66a0cac7cc199606c868660405161289292919061395e565b60405180910390a160006003600088815260200190815260200160002060070160039054906101000a900460ff1660ff1603612938577ff942afe004c76075b0ad49c8a2697d28413e511e135ed6576d2513d9ef0bf5f2866003600089815260200190815260200160002060000160009054906101000a900473ffffffffffffffffffffffffffffffffffffffff1660405161292f9291906137c0565b60405180910390a15b5b5b50505b50505050565b600054821061295157600080fd5b6000821161295e57600080fd5b600015156003600084815260200190815260200160002060040160009054906101000a900460ff161515146129c8576040517f08c379a00000000000000000000000000000000000000000000000000000000081526004016129bf90613750565b60405180910390fd5b3373ffffffffffffffffffffffffffffffffffffffff166003600084815260200190815260200160002060000160009054906101000a900473ffffffffffffffffffffffffffffffffffffffff1673ffffffffffffffffffffffffffffffffffffffff1603612a4d578060036000848152602001908152602001600020600201819055505b3373ffffffffffffffffffffffffffffffffffffffff166003600084815260200190815260200160002060010160009054906101000a900473ffffffffffffffffffffffffffffffffffffffff1673ffffffffffffffffffffffffffffffffffffffff1603612ad2578060036000848152602001908152602001600020600301819055505b6000801b600360008481526020019081526020016000206002015414158015612b1457506000801b600360008481526020019081526020016000206003015414155b15612b51577f12333b322723ec26360eb708b341801ecca576387b55caa77d6e408107d2c70f82604051612b4891906139f8565b60405180910390a15b5050565b6000811015612b99576040517f08c379a0000000000000000000000000000000000000000000000000000000008152600401612b9090613678565b60405180910390fd5b6000548110612bdd576040517f08c379a0000000000000000000000000000000000000000000000000000000008152600401612bd4906136e4565b60405180910390fd5b600060015411612c22576040517f08c379a0000000000000000000000000000000000000000000000000000000008152600401612c1990613b9a565b60405180910390fd5b600015156003600083815260200190815260200160002060040160009054906101000a900460ff16151514612c8c576040517f08c379a0000000000000000000000000000000000000000000000000000000008152600401612c8390613750565b60405180910390fd5b60008103612efd576000600143612ca39190613bba565b4090506000602067ffffffffffffffff811115612cc357612cc26131ad565b5b6040519080825280601f01601f191660200182016040528015612cf55781602001600182028036833780820191505090505b50905060005b6020811015612d7057828160208110612d1757612d1661385a565b5b1a60f81b828281518110612d2e57612d2d61385a565b5b60200101907effffffffffffffffffffffffffffffffffffffffffffffffffffffffffffff1916908160001a9053508080612d68906139b0565b915050612cfb565b506000818051906020012090506000600180548360001c612d919190613bee565b612d9b9190613a13565b90506000600190505b600054811015612eb0576000820315612eb057600073ffffffffffffffffffffffffffffffffffffffff166003600083815260200190815260200160002060010160009054906101000a900473ffffffffffffffffffffffffffffffffffffffff1673ffffffffffffffffffffffffffffffffffffffff1603612e9d578180612e2c90613c1f565b9250503373ffffffffffffffffffffffffffffffffffffffff166003600083815260200190815260200160002060000160009054906101000a900473ffffffffffffffffffffffffffffffffffffffff1673ffffffffffffffffffffffffffffffffffffffff1614612e9c578095505b5b8080612ea8906139b0565b915050612da4565b5060008503612ef4576040517f08c379a0000000000000000000000000000000000000000000000000000000008152600401612eeb90613c94565b60405180910390fd5b50505050613047565b3373ffffffffffffffffffffffffffffffffffffffff166003600083815260200190815260200160002060000160009054906101000a900473ffffffffffffffffffffffffffffffffffffffff1673ffffffffffffffffffffffffffffffffffffffff1603612fa1576040517f08c379a0000000000000000000000000000000000000000000000000000000008152600401612f9890613d00565b60405180910390fd5b600073ffffffffffffffffffffffffffffffffffffffff166003600083815260200190815260200160002060010160009054906101000a900473ffffffffffffffffffffffffffffffffffffffff1673ffffffffffffffffffffffffffffffffffffffff1614613046576040517f08c379a000000000000000000000000000000000000000000000000000000000815260040161303d90613d6c565b60405180910390fd5b5b336003600083815260200190815260200160002060010160006101000a81548173ffffffffffffffffffffffffffffffffffffffff021916908373ffffffffffffffffffffffffffffffffffffffff160217905550600160008154809291906130af90613c1f565b91905055507f276a7f782d740627e426973b863f244fee07739e8e648ddc3cb52485808b04d36003600083815260200190815260200160002060000160009054906101000a900473ffffffffffffffffffffffffffffffffffffffff1633836003600086815260200190815260200160002060010160149054906101000a900460ff166040516131429493929190613d8c565b60405180910390a150565b6000604051905090565b600080fd5b600080fd5b6000819050919050565b61317481613161565b811461317f57600080fd5b50565b6000813590506131918161316b565b92915050565b600080fd5b6000601f19601f8301169050919050565b7f4e487b7100000000000000000000000000000000000000000000000000000000600052604160045260246000fd5b6131e58261319c565b810181811067ffffffffffffffff82111715613204576132036131ad565b5b80604052505050565b600061321761314d565b905061322382826131dc565b919050565b600067ffffffffffffffff821115613243576132426131ad565b5b602082029050602081019050919050565b600080fd5b600060ff82169050919050565b61326f81613259565b811461327a57600080fd5b50565b60008135905061328c81613266565b92915050565b60006132a56132a084613228565b61320d565b905080838252602082019050602084028301858111156132c8576132c7613254565b5b835b818110156132f157806132dd888261327d565b8452602084019350506020810190506132ca565b5050509392505050565b600082601f8301126133105761330f613197565b5b8135613320848260208601613292565b91505092915050565b600080604083850312156133405761333f613157565b5b600061334e85828601613182565b925050602083013567ffffffffffffffff81111561336f5761336e61315c565b5b61337b858286016132fb565b9150509250929050565b6000806040838503121561339c5761339b613157565b5b60006133aa85828601613182565b92505060206133bb85828601613182565b9150509250929050565b600080604083850312156133dc576133db613157565b5b60006133ea85828601613182565b92505060206133fb8582860161327d565b9150509250929050565b60006020828403121561341b5761341a613157565b5b60006134298482850161327d565b91505092915050565b60006020828403121561344857613447613157565b5b600061345684828501613182565b91505092915050565b600067ffffffffffffffff82111561347a576134796131ad565b5b602082029050602081019050919050565b6000819050919050565b61349e8161348b565b81146134a957600080fd5b50565b6000813590506134bb81613495565b92915050565b60006134d46134cf8461345f565b61320d565b905080838252602082019050602084028301858111156134f7576134f6613254565b5b835b81811015613520578061350c88826134ac565b8452602084019350506020810190506134f9565b5050509392505050565b600082601f83011261353f5761353e613197565b5b813561354f8482602086016134c1565b91505092915050565b6000806000806080858703121561357257613571613157565b5b600061358087828801613182565b94505060206135918782880161327d565b935050604085013567ffffffffffffffff8111156135b2576135b161315c565b5b6135be8782880161352a565b92505060606135cf8782880161327d565b91505092959194509250565b600080604083850312156135f2576135f1613157565b5b600061360085828601613182565b9250506020613611858286016134ac565b9150509250929050565b600082825260208201905092915050565b7f4944206d7573742062652067726561746572207468616e203000000000000000600082015250565b600061366260198361361b565b915061366d8261362c565b602082019050919050565b6000602082019050818103600083015261369181613655565b9050919050565b7f47616d65206e6f74206f70656e00000000000000000000000000000000000000600082015250565b60006136ce600d8361361b565b91506136d982613698565b602082019050919050565b600060208201905081810360008301526136fd816136c1565b9050919050565b7f5468652067616d65206973206f76657200000000000000000000000000000000600082015250565b600061373a60108361361b565b915061374582613704565b602082019050919050565b600060208201905081810360008301526137698161372d565b9050919050565b61377981613161565b82525050565b600073ffffffffffffffffffffffffffffffffffffffff82169050919050565b60006137aa8261377f565b9050919050565b6137ba8161379f565b82525050565b60006040820190506137d56000830185613770565b6137e260208301846137b1565b9392505050565b7f4e487b7100000000000000000000000000000000000000000000000000000000600052601160045260246000fd5b600061382382613161565b915061382e83613161565b925082820261383c81613161565b91508282048414831517613853576138526137e9565b5b5092915050565b7f4e487b7100000000000000000000000000000000000000000000000000000000600052603260045260246000fd5b600061389482613259565b915060ff82036138a7576138a66137e9565b5b600182019050919050565b60006060820190506138c760008301866137b1565b6138d46020830185613770565b6138e16040830184613770565b949350505050565b60006040820190506138fe6000830185613770565b61390b6020830184613770565b9392505050565b600061391d82613259565b915061392883613259565b925082820261393681613259565b9150808214613948576139476137e9565b5b5092915050565b61395881613259565b82525050565b60006040820190506139736000830185613770565b613980602083018461394f565b9392505050565b600060408201905061399c60008301856137b1565b6139a96020830184613770565b9392505050565b60006139bb82613161565b91507fffffffffffffffffffffffffffffffffffffffffffffffffffffffffffffffff82036139ed576139ec6137e9565b5b600182019050919050565b6000602082019050613a0d6000830184613770565b92915050565b6000613a1e82613161565b9150613a2983613161565b9250828201905080821115613a4157613a406137e9565b5b92915050565b7f4e487b7100000000000000000000000000000000000000000000000000000000600052601260045260246000fd5b6000613a8182613259565b9150613a8c83613259565b925082613a9c57613a9b613a47565b5b828206905092915050565b6000819050919050565b613ac2613abd8261348b565b613aa7565b82525050565b6000613ad48285613ab1565b602082019150613ae48284613ab1565b6020820191508190509392505050565b6000613aff82613259565b9150613b0a83613259565b925082613b1a57613b19613a47565b5b828204905092915050565b6000613b3082613259565b915060008203613b4357613b426137e9565b5b600182039050919050565b7f4e6f2067616d657320617661696c61626c650000000000000000000000000000600082015250565b6000613b8460128361361b565b9150613b8f82613b4e565b602082019050919050565b60006020820190508181036000830152613bb381613b77565b9050919050565b6000613bc582613161565b9150613bd083613161565b9250828203905081811115613be857613be76137e9565b5b92915050565b6000613bf982613161565b9150613c0483613161565b925082613c1457613c13613a47565b5b828206905092915050565b6000613c2a82613161565b915060008203613c3d57613c3c6137e9565b5b600182039050919050565b7f4d61746368206e6f7420666f756e640000000000000000000000000000000000600082015250565b6000613c7e600f8361361b565b9150613c8982613c48565b602082019050919050565b60006020820190508181036000830152613cad81613c71565b9050919050565b7f596f752063616e6e6f74206a6f696e20796f7572206f776e2067616d65000000600082015250565b6000613cea601d8361361b565b9150613cf582613cb4565b602082019050919050565b60006020820190508181036000830152613d1981613cdd565b9050919050565b7f47616d6520616c7265616479206861732074776f20706c617965727300000000600082015250565b6000613d56601c8361361b565b9150613d6182613d20565b602082019050919050565b60006020820190508181036000830152613d8581613d49565b9050919050565b6000608082019050613da160008301876137b1565b613dae60208301866137b1565b613dbb6040830185613770565b613dc8606083018461394f565b9594505050505056fea2646970667358221220b5191a1f8c60283a09aa4747df62526a3db3f436d00ca40adc0742e047db79ec64736f6c63430008130033",
  "immutableReferences": {},
  "source": "// SPDX-License-Identifier: MIT\npragma solidity >=0.4.22 <0.9.0;\n\ncontract Battleship {\n  uint256 private nextGameID = 1;\n  uint256 private counter = 0;  //conta il numero di partite aperte\n  uint8 shipNumber = 2;\n\n  struct Game {\n    address player;\n    address enemy;    //address(0): non c' il giocatore\n    uint8 boardDimension;\n    bytes32 playerGridHash;\n    bytes32 enemyGridHash;\n    bool ended;       //false: la partita non  finita; true: la partita  finita\n    uint playerOffer;\n    uint enemyOffer;\n    bool playerPay;   //false: il giocatore non ha pagato\n    bool enemyPay;    //false: enemy non ha pagato\n    uint8 playerHitSum; \n    uint8 enemyHitSum;\n    address afk;\n    uint afkBlock;\n  }\n\n  mapping (uint256 => Game) private games;\n  event NewGameCreated(address player, uint256 idGame);\n  event JoinedGame(address player, address enemy, uint256 idGame, uint8 boardDimension);\n  event OfferReceived(address bidder, uint offer, uint256 idGame);\n  event CommonOffer(uint offer, uint256 idGame);\n  event SetGame(uint256 idGame);\n  event StartGame(uint256 idGame);\n  event AttackedCell(uint256 idGame, uint8 cell);\n  event AttackResponse(uint256 idGame, uint8 response);\n  event EndGame(uint256 idGame, address winner);\n  event ReceiveBoard(uint256 idGame, address check);\n\n  function newGame(uint8 dimension) public {\n    emit NewGameCreated(msg.sender, nextGameID);\n    games[nextGameID].player = msg.sender;\n    games[nextGameID].enemy = address(0);\n    games[nextGameID].boardDimension = dimension;\n    games[nextGameID].ended = false;\n    games[nextGameID].playerOffer = 0;\n    games[nextGameID].enemyOffer = 0;\n    games[nextGameID].playerGridHash = 0;\n    games[nextGameID].enemyGridHash = 0;\n    games[nextGameID].playerPay = false;\n    games[nextGameID].enemyPay = false;\n    games[nextGameID].playerHitSum = shipNumber;\n    games[nextGameID].enemyHitSum = shipNumber;\n    games[nextGameID].afk = address(0);\n    games[nextGameID].afkBlock = 0;\n    nextGameID++;\n    counter++;\n  }\n\n  function joinGame(uint256 gameId) public {   //gestisce sia il random che non\n    require(gameId >= 0, \"ID must be greater than 0\");\n    require(gameId < nextGameID, \"Game not open\");\n    require(counter > 0, \"No games available\");\n    require(games[gameId].ended == false, \"The game is over\");\n\n    //randomness\n    if(gameId == 0) {\n      bytes32 bhash = blockhash(block.number - 1);\n      bytes memory bytesArray = new bytes(32);\n      for (uint i; i < 32; i++) {\n          bytesArray[i] = bhash[i];\n      }\n      bytes32 rand = keccak256(bytesArray);\n      uint256 index = uint256(rand) % counter + 1;\n\n      for(uint256 j = 1; j < nextGameID; j++) {\n        if(index == 0) {\n          break;\n        }\n        if(games[j].enemy == address(0)) {\n          index--;\n          if(games[j].player != msg.sender)   //un giocatore non pu unirsi alla sua stessa partita\n            gameId = j;\n        }\n      }\n      if(gameId == 0)\n        revert(\"Match not found\");\n    }\n    //not random\n    else {\n      if(games[gameId].player == msg.sender)\n        revert(\"You cannot join your own game\"); \n      if(games[gameId].enemy != address(0))\n        revert(\"Game already has two players\");      \n    }\n    games[gameId].enemy = msg.sender;\n    counter--;\n    emit JoinedGame(games[gameId].player, msg.sender, gameId, games[gameId].boardDimension);\n  } \n\n  function bet(uint256 gameId, uint offer) public {\n    require(gameId >= 0, \"ID must be greater than 0\");\n    require(gameId < nextGameID, \"Game not open\");\n    require(games[gameId].ended == false, \"The game is over\");\n    if (games[gameId].player != msg.sender && games[gameId].enemy != msg.sender)\n      return;\n    \n    if (games[gameId].playerOffer == games[gameId].enemyOffer) require(games[gameId].playerOffer == 0);\n    else require(games[gameId].playerOffer != games[gameId].enemyOffer);\n\n    if (games[gameId].player == msg.sender) games[gameId].playerOffer = offer;\n    if (games[gameId].enemy == msg.sender) games[gameId].enemyOffer = offer;\n\n    emit OfferReceived(msg.sender, offer, gameId);\n\n    if (games[gameId].playerOffer == games[gameId].enemyOffer)\n      emit CommonOffer(games[gameId].playerOffer, gameId);\n\n  }\n\n  function pay(uint256 gameId) public payable {\n    require(gameId >= 0, \"ID must be greater than 0\");\n    require(gameId < nextGameID, \"Game not open\");\n    require(games[gameId].ended == false, \"The game is over\");  \n\n    if (games[gameId].player == msg.sender) {\n      if(games[gameId].playerOffer == msg.value)\n        games[gameId].playerPay = true;\n    }\n    if (games[gameId].enemy == msg.sender) {\n      if(games[gameId].playerOffer == msg.value)\n        games[gameId].enemyPay = true;\n    }\n    \n    if(games[gameId].playerPay && games[gameId].enemyPay) emit SetGame(gameId);\n  }\n\n  function attack(uint256 gameID, uint8 cellID) public {\n    require(gameID >= 0, \"ID must be greater than 0\");\n    require(gameID < nextGameID, \"Game not open\");\n    require(games[gameID].ended == false, \"The game is over\");\n    require(cellID < games[gameID].boardDimension * games[gameID].boardDimension);\n    if (games[gameID].player != msg.sender && games[gameID].enemy != msg.sender)\n      return;\n\n    if(games[gameID].afk == msg.sender) {\n      games[gameID].afk = address(0);\n      games[gameID].afkBlock = 0;\n    }\n\n    emit AttackedCell(gameID, cellID);\n  }\n\n  function attackResponse(uint256 gameID, uint8 value, bytes32[] memory merkleProof, uint8 cellID) public payable{\n    require(gameID >= 0, \"ID must be greater than 0\");\n    require(gameID < nextGameID, \"Game not open\");\n    require(games[gameID].ended == false, \"The game is over\");\n    if (games[gameID].player != msg.sender && games[gameID].enemy != msg.sender)\n      return;\n\n    uint8 target = cellID;\n    bytes32 proofRoot = merkleProof[0];\n    for(uint i = 1; i < merkleProof.length; i++) {\n      if(target%2 == 0) {\n        if(proofRoot != merkleProof[i])\n          proofRoot = keccak256(abi.encodePacked(proofRoot, merkleProof[i]));\n        else\n          proofRoot = proofRoot;\n      }\n      else\n        proofRoot = keccak256(abi.encodePacked(merkleProof[i], proofRoot));\n      \n      target = target / 2;\n    }\n\n    if (games[gameID].player == msg.sender) {\n      if(games[gameID].playerGridHash != proofRoot) { //player is cheater\n        games[gameID].playerHitSum = 0;\n        games[gameID].ended = true;\n        emit EndGame(gameID, games[gameID].enemy);\n        payable(games[gameID].enemy).transfer(games[gameID].playerOffer * 2);\n        return;\n      }\n      if(value == 1) \n        games[gameID].playerHitSum--;\n      emit AttackResponse(gameID, value);\n\n      if(games[gameID].playerHitSum == 0)\n        emit ReceiveBoard(gameID, games[gameID].player);\n    }\n    else if (games[gameID].enemy == msg.sender) {\n      if(games[gameID].enemyGridHash != proofRoot) {  //enemy is cheater\n        games[gameID].enemyHitSum = 0;\n        games[gameID].ended = true;\n        emit EndGame(gameID, games[gameID].player);\n        payable(games[gameID].player).transfer(games[gameID].playerOffer * 2);\n        return;\n      }\n      if(value == 1) \n        games[gameID].enemyHitSum--;\n      emit AttackResponse(gameID, value);\n\n      if(games[gameID].enemyHitSum == 0)\n        emit ReceiveBoard(gameID, games[gameID].player);\n    }\n    \n  }\n\n  function checkWinner(uint256 gameID, uint8[] memory winnerBoard) public payable {\n    require(gameID >= 0, \"ID must be greater than 0\");\n    require(gameID < nextGameID, \"Game not open\");\n    require(games[gameID].ended == false, \"The game is over\");\n    if (games[gameID].player != msg.sender && games[gameID].enemy != msg.sender)\n      return;\n\n    //Controllo che non sia stata chiamata per imbrogliare\n    bool caller = false;  //false: enemy; true: player\n    if (games[gameID].player == msg.sender) caller = true;\n\n    if(caller) {\n      if(games[gameID].enemyHitSum > 0) {           //non ho abbattuto tutte le navi del nemico\n        games[gameID].ended = true;\n        emit EndGame(gameID, games[gameID].enemy);\n        payable(games[gameID].enemy).transfer(games[gameID].enemyOffer * 2);\n        return;\n      }\n    }\n    else {\n      if(games[gameID].playerHitSum > 0) {          //non ho abbattuto tutte le navi del player\n        games[gameID].ended = true;\n        emit EndGame(gameID, games[gameID].player);\n        payable(games[gameID].player).transfer(games[gameID].playerOffer * 2);\n        return;\n      }\n    }\n    uint8 shipsOnBoard = 0;\n    for(uint8 i = 0; i < winnerBoard.length; i++) {\n      if(winnerBoard[i] == 1) \n        shipsOnBoard++;\n    }\n    \n    if(shipsOnBoard == shipNumber) {\n      if(caller) {\n        games[gameID].ended = true;\n        emit EndGame(gameID, games[gameID].player);\n        payable(games[gameID].player).transfer(games[gameID].playerOffer * 2);\n        return;\n      }\n      else {\n        games[gameID].ended = true;\n        emit EndGame(gameID, games[gameID].enemy);\n        payable(games[gameID].enemy).transfer(games[gameID].enemyOffer * 2);\n        return;\n      }\n    }\n    else {\n      if(caller) {\n        games[gameID].ended = true;\n        emit EndGame(gameID, games[gameID].enemy);\n        payable(games[gameID].enemy).transfer(games[gameID].enemyOffer * 2);\n        return;\n      }\n      else {\n        games[gameID].ended = true;\n        emit EndGame(gameID, games[gameID].player);\n        payable(games[gameID].player).transfer(games[gameID].playerOffer * 2);\n        return;\n      }\n    }\n\n  }\n\n  function afkPlayer(uint256 gameID) public {\n    require(gameID < nextGameID);\n    require(gameID > 0);\n    require(games[gameID].ended == false, \"The game is over\");\n\n    address afkTarget;\n    if(games[gameID].player == msg.sender) afkTarget = games[gameID].enemy;\n    if(games[gameID].enemy == msg.sender) afkTarget = games[gameID].player;\n    \n    if(games[gameID].afkBlock != 0){\n      if(block.number >= games[gameID].afkBlock){\n        if(games[gameID].afk == games[gameID].enemy) {  //Enemy AFK: player won.\n          games[gameID].ended = true;\n          emit EndGame(gameID, games[gameID].player);\n          payable(games[gameID].player).transfer(games[gameID].playerOffer * 2);\n          return;\n        }\n        else {      //Player AFK: enemy won.\n          games[gameID].ended = true;\n          emit EndGame(gameID, games[gameID].enemy);\n          payable(games[gameID].enemy).transfer(games[gameID].enemyOffer * 2);\n          return;\n        }\n      }\n    } \n    else {\n      games[gameID].afkBlock = block.number + 5;\n      games[gameID].afk = afkTarget;\n      return;\n    }\n\n  }\n\n  function board(uint256 gameID, bytes32 boardHash) public {\n    require(gameID < nextGameID);\n    require(gameID > 0);\n    require(games[gameID].ended == false, \"The game is over\");\n    \n    if (games[gameID].player == msg.sender) games[gameID].playerGridHash = boardHash;\n    if (games[gameID].enemy == msg.sender) games[gameID].enemyGridHash = boardHash;\n    \n    if(games[gameID].playerGridHash != 0 && games[gameID].enemyGridHash != 0) emit StartGame(gameID);\n  }\n\n}",
  "sourcePath": "/home/luca/block/solidity_projects/project/contracts/Battleship.sol",
  "compiler": {
    "name": "solc",
    "version": "0.8.19+commit.7dd6d404.Emscripten.clang"
  },
  "schemaVersion": "3.4.13",
  "updatedAt": "2023-06-09T09:23:13.256Z",
  "networkType": "ethereum",
  "devdoc": {
    "kind": "dev",
    "methods": {},
    "version": 1
  },
  "userdoc": {
    "kind": "user",
    "methods": {},
    "version": 1
  }
}