{
  "contractName": "Battleship",
  "abi": [
    {
      "anonymous": false,
      "inputs": [],
      "name": "BoardAdded",
      "type": "event"
    },
    {
      "anonymous": false,
      "inputs": [
        {
          "indexed": false,
          "internalType": "uint8",
          "name": "offer",
          "type": "uint8"
        },
        {
          "indexed": false,
          "internalType": "uint256",
          "name": "idGame",
          "type": "uint256"
        }
      ],
      "name": "CommonOffer",
      "type": "event"
    },
    {
      "anonymous": false,
      "inputs": [
        {
          "indexed": false,
          "internalType": "address",
          "name": "player",
          "type": "address"
        },
        {
          "indexed": false,
          "internalType": "address",
          "name": "enemy",
          "type": "address"
        },
        {
          "indexed": false,
          "internalType": "uint256",
          "name": "idGame",
          "type": "uint256"
        }
      ],
      "name": "JoinedGame",
      "type": "event"
    },
    {
      "anonymous": false,
      "inputs": [
        {
          "indexed": false,
          "internalType": "address",
          "name": "player",
          "type": "address"
        },
        {
          "indexed": false,
          "internalType": "uint256",
          "name": "idGame",
          "type": "uint256"
        }
      ],
      "name": "NewGameCreated",
      "type": "event"
    },
    {
      "anonymous": false,
      "inputs": [
        {
          "indexed": false,
          "internalType": "address",
          "name": "bidder",
          "type": "address"
        },
        {
          "indexed": false,
          "internalType": "uint8",
          "name": "offer",
          "type": "uint8"
        },
        {
          "indexed": false,
          "internalType": "uint256",
          "name": "idGame",
          "type": "uint256"
        }
      ],
      "name": "OfferReceived",
      "type": "event"
    },
    {
      "inputs": [],
      "name": "newGame",
      "outputs": [],
      "stateMutability": "nonpayable",
      "type": "function"
    },
    {
      "inputs": [
        {
          "internalType": "uint256",
          "name": "gameId",
          "type": "uint256"
        }
      ],
      "name": "joinGame",
      "outputs": [],
      "stateMutability": "nonpayable",
      "type": "function"
    },
    {
      "inputs": [],
      "name": "pay",
      "outputs": [],
      "stateMutability": "nonpayable",
      "type": "function"
    },
    {
      "inputs": [
        {
          "internalType": "uint256",
          "name": "gameId",
          "type": "uint256"
        },
        {
          "internalType": "uint8",
          "name": "offer",
          "type": "uint8"
        }
      ],
      "name": "bet",
      "outputs": [],
      "stateMutability": "nonpayable",
      "type": "function"
    },
    {
      "inputs": [],
      "name": "attack",
      "outputs": [],
      "stateMutability": "nonpayable",
      "type": "function"
    },
    {
      "inputs": [],
      "name": "afkPlayer",
      "outputs": [],
      "stateMutability": "nonpayable",
      "type": "function"
    },
    {
      "inputs": [
        {
          "internalType": "bytes32",
          "name": "boardHash",
          "type": "bytes32"
        },
        {
          "internalType": "uint256",
          "name": "gameID",
          "type": "uint256"
        }
      ],
      "name": "board",
      "outputs": [],
      "stateMutability": "nonpayable",
      "type": "function"
    }
  ],
  "bytecode": "0x60806040526001600055600060015534801561001a57600080fd5b506113548061002a6000396000f3fe608060405234801561001057600080fd5b506004361061007d5760003560e01c80638f6e47221161005b5780638f6e4722146100a05780639e5faafc146100bc578063c437a0cd146100c6578063efaa55a0146100e25761007d565b80631b9265b8146100825780634c73207b1461008c5780637d03f5f314610096575b600080fd5b61008a6100fe565b005b610094610100565b005b61009e610102565b005b6100ba60048036038101906100b59190610cba565b6102eb565b005b6100c4610351565b005b6100e060048036038101906100db9190610d33565b610353565b005b6100fc60048036038101906100f79190610d73565b6106e0565b005b565b565b7f72c5d3a1559eb2bbdb341b459f9be7a20ddd182562d779fc4decb64e69678de433600054604051610135929190610df0565b60405180910390a133600260008054815260200190815260200160002060000160006101000a81548173ffffffffffffffffffffffffffffffffffffffff021916908373ffffffffffffffffffffffffffffffffffffffff1602179055506000600260008054815260200190815260200160002060010160006101000a81548173ffffffffffffffffffffffffffffffffffffffff021916908373ffffffffffffffffffffffffffffffffffffffff1602179055506000600260008054815260200190815260200160002060040160006101000a81548160ff0219169083151502179055506000600260008054815260200190815260200160002060040160016101000a81548160ff021916908360ff1602179055506000600260008054815260200190815260200160002060040160026101000a81548160ff021916908360ff1602179055506000801b6002600080548152602001908152602001600020600201819055506000801b6002600080548152602001908152602001600020600301819055506000808154809291906102cc90610e48565b9190505550600160008154809291906102e490610e48565b9190505550565b60005481106102f957600080fd5b6000811161030657600080fd5b7faf79e799cd35f75cd0a667f0fd35e9dba003a5d86156fa68f0af5988ad1b636060405160405180910390a18160026000838152602001908152602001600020600201819055505050565b565b6000821015610397576040517f08c379a000000000000000000000000000000000000000000000000000000000815260040161038e90610eed565b60405180910390fd5b60005482106103db576040517f08c379a00000000000000000000000000000000000000000000000000000000081526004016103d290610f59565b60405180910390fd5b6002600083815260200190815260200160002060040160029054906101000a900460ff1660ff166002600084815260200190815260200160002060040160019054906101000a900460ff1660ff16036104665760006002600084815260200190815260200160002060040160019054906101000a900460ff1660ff161461046157600080fd5b6104bf565b6002600083815260200190815260200160002060040160029054906101000a900460ff1660ff166002600084815260200190815260200160002060040160019054906101000a900460ff1660ff16036104be57600080fd5b5b3373ffffffffffffffffffffffffffffffffffffffff166002600084815260200190815260200160002060000160009054906101000a900473ffffffffffffffffffffffffffffffffffffffff1673ffffffffffffffffffffffffffffffffffffffff160361055857806002600084815260200190815260200160002060040160016101000a81548160ff021916908360ff1602179055505b3373ffffffffffffffffffffffffffffffffffffffff166002600084815260200190815260200160002060010160009054906101000a900473ffffffffffffffffffffffffffffffffffffffff1673ffffffffffffffffffffffffffffffffffffffff16036105f157806002600084815260200190815260200160002060040160026101000a81548160ff021916908360ff1602179055505b7f64107d3b58e2bc36cabca25834e1c26c957548fa96238c27b51dccde8b39118933828460405161062493929190610f88565b60405180910390a16002600083815260200190815260200160002060040160029054906101000a900460ff1660ff166002600084815260200190815260200160002060040160019054906101000a900460ff1660ff16036106dc577fdfe2304b245885b41d7289335dc7fbe39fffb5822defda4efc1da399129c12e46002600084815260200190815260200160002060040160019054906101000a900460ff16836040516106d3929190610fbf565b60405180910390a15b5050565b6000811015610724576040517f08c379a000000000000000000000000000000000000000000000000000000000815260040161071b90610eed565b60405180910390fd5b6000548110610768576040517f08c379a000000000000000000000000000000000000000000000000000000000815260040161075f90610f59565b60405180910390fd5b6000600154116107ad576040517f08c379a00000000000000000000000000000000000000000000000000000000081526004016107a490611034565b60405180910390fd5b60008103610a1e5760006001436107c49190611054565b4090506000602067ffffffffffffffff8111156107e4576107e3611088565b5b6040519080825280601f01601f1916602001820160405280156108165781602001600182028036833780820191505090505b50905060005b602081101561089157828160208110610838576108376110b7565b5b1a60f81b82828151811061084f5761084e6110b7565b5b60200101907effffffffffffffffffffffffffffffffffffffffffffffffffffffffffffff1916908160001a905350808061088990610e48565b91505061081c565b506000818051906020012090506000600180548360001c6108b29190611115565b6108bc9190611146565b90506000600190505b6000548110156109d15760008203156109d157600073ffffffffffffffffffffffffffffffffffffffff166002600083815260200190815260200160002060010160009054906101000a900473ffffffffffffffffffffffffffffffffffffffff1673ffffffffffffffffffffffffffffffffffffffff16036109be57818061094d9061117a565b9250503373ffffffffffffffffffffffffffffffffffffffff166002600083815260200190815260200160002060000160009054906101000a900473ffffffffffffffffffffffffffffffffffffffff1673ffffffffffffffffffffffffffffffffffffffff16146109bd578095505b5b80806109c990610e48565b9150506108c5565b5060008503610a15576040517f08c379a0000000000000000000000000000000000000000000000000000000008152600401610a0c906111ef565b60405180910390fd5b50505050610b68565b3373ffffffffffffffffffffffffffffffffffffffff166002600083815260200190815260200160002060000160009054906101000a900473ffffffffffffffffffffffffffffffffffffffff1673ffffffffffffffffffffffffffffffffffffffff1603610ac2576040517f08c379a0000000000000000000000000000000000000000000000000000000008152600401610ab99061125b565b60405180910390fd5b600073ffffffffffffffffffffffffffffffffffffffff166002600083815260200190815260200160002060010160009054906101000a900473ffffffffffffffffffffffffffffffffffffffff1673ffffffffffffffffffffffffffffffffffffffff1614610b67576040517f08c379a0000000000000000000000000000000000000000000000000000000008152600401610b5e906112c7565b60405180910390fd5b5b336002600083815260200190815260200160002060010160006101000a81548173ffffffffffffffffffffffffffffffffffffffff021916908373ffffffffffffffffffffffffffffffffffffffff16021790555060016000815480929190610bd09061117a565b91905055507f905bf3b2c904b11ad68125a070ae243e2a22049136e141d2a5c5953a485362776002600083815260200190815260200160002060000160009054906101000a900473ffffffffffffffffffffffffffffffffffffffff163383604051610c3e939291906112e7565b60405180910390a150565b600080fd5b6000819050919050565b610c6181610c4e565b8114610c6c57600080fd5b50565b600081359050610c7e81610c58565b92915050565b6000819050919050565b610c9781610c84565b8114610ca257600080fd5b50565b600081359050610cb481610c8e565b92915050565b60008060408385031215610cd157610cd0610c49565b5b6000610cdf85828601610c6f565b9250506020610cf085828601610ca5565b9150509250929050565b600060ff82169050919050565b610d1081610cfa565b8114610d1b57600080fd5b50565b600081359050610d2d81610d07565b92915050565b60008060408385031215610d4a57610d49610c49565b5b6000610d5885828601610ca5565b9250506020610d6985828601610d1e565b9150509250929050565b600060208284031215610d8957610d88610c49565b5b6000610d9784828501610ca5565b91505092915050565b600073ffffffffffffffffffffffffffffffffffffffff82169050919050565b6000610dcb82610da0565b9050919050565b610ddb81610dc0565b82525050565b610dea81610c84565b82525050565b6000604082019050610e056000830185610dd2565b610e126020830184610de1565b9392505050565b7f4e487b7100000000000000000000000000000000000000000000000000000000600052601160045260246000fd5b6000610e5382610c84565b91507fffffffffffffffffffffffffffffffffffffffffffffffffffffffffffffffff8203610e8557610e84610e19565b5b600182019050919050565b600082825260208201905092915050565b7f4944206d7573742062652067726561746572207468616e203000000000000000600082015250565b6000610ed7601983610e90565b9150610ee282610ea1565b602082019050919050565b60006020820190508181036000830152610f0681610eca565b9050919050565b7f47616d65206e6f74206f70656e00000000000000000000000000000000000000600082015250565b6000610f43600d83610e90565b9150610f4e82610f0d565b602082019050919050565b60006020820190508181036000830152610f7281610f36565b9050919050565b610f8281610cfa565b82525050565b6000606082019050610f9d6000830186610dd2565b610faa6020830185610f79565b610fb76040830184610de1565b949350505050565b6000604082019050610fd46000830185610f79565b610fe16020830184610de1565b9392505050565b7f4e6f2067616d657320617661696c61626c650000000000000000000000000000600082015250565b600061101e601283610e90565b915061102982610fe8565b602082019050919050565b6000602082019050818103600083015261104d81611011565b9050919050565b600061105f82610c84565b915061106a83610c84565b925082820390508181111561108257611081610e19565b5b92915050565b7f4e487b7100000000000000000000000000000000000000000000000000000000600052604160045260246000fd5b7f4e487b7100000000000000000000000000000000000000000000000000000000600052603260045260246000fd5b7f4e487b7100000000000000000000000000000000000000000000000000000000600052601260045260246000fd5b600061112082610c84565b915061112b83610c84565b92508261113b5761113a6110e6565b5b828206905092915050565b600061115182610c84565b915061115c83610c84565b925082820190508082111561117457611173610e19565b5b92915050565b600061118582610c84565b91506000820361119857611197610e19565b5b600182039050919050565b7f4d61746368206e6f7420666f756e640000000000000000000000000000000000600082015250565b60006111d9600f83610e90565b91506111e4826111a3565b602082019050919050565b60006020820190508181036000830152611208816111cc565b9050919050565b7f596f752063616e6e6f74206a6f696e20796f7572206f776e2067616d65000000600082015250565b6000611245601d83610e90565b91506112508261120f565b602082019050919050565b6000602082019050818103600083015261127481611238565b9050919050565b7f47616d6520616c7265616479206861732074776f20706c617965727300000000600082015250565b60006112b1601c83610e90565b91506112bc8261127b565b602082019050919050565b600060208201905081810360008301526112e0816112a4565b9050919050565b60006060820190506112fc6000830186610dd2565b6113096020830185610dd2565b6113166040830184610de1565b94935050505056fea2646970667358221220413cc447405c41d1b99bef985db6b20932ab0fade468abdb7532fb4c00b57b2a64736f6c63430008130033",
  "immutableReferences": {},
  "source": "// SPDX-License-Identifier: MIT\npragma solidity >=0.4.22 <0.9.0;\n\ncontract Battleship {\n  //uint8 constant GRID_SIZE = 10;\n  uint256 private nextGameID = 1;\n  uint256 private counter = 0;  //conta il numero di partite aperte\n\n  struct Game {\n    address player;\n    address enemy;    //address(0): non c' il giocatore\n    bytes32 playerGridHash;\n    bytes32 enemyGridHash;\n    bool ended;       //false: la partita non  finita; true: la partita  finita\n    uint8 playerOffer;\n    uint8 enemyOffer;\n  }\n\n  mapping (uint256 => Game) private games;\n  event NewGameCreated(address player, uint256 idGame);\n  event JoinedGame(address player, address enemy, uint256 idGame);\n  event BoardAdded();\n  event OfferReceived(address bidder, uint8 offer, uint256 idGame);\n  event CommonOffer(uint8 offer, uint256 idGame);\n\n  function newGame() public {\n    emit NewGameCreated(msg.sender, nextGameID);\n    games[nextGameID].player = msg.sender;\n    games[nextGameID].enemy = address(0);\n    games[nextGameID].ended = false;\n    games[nextGameID].playerOffer = 0;\n    games[nextGameID].enemyOffer = 0;\n    games[nextGameID].playerGridHash = 0;\n    games[nextGameID].enemyGridHash = 0;\n    nextGameID++;\n    counter++;\n  }\n\n  function joinGame(uint256 gameId) public {   //gestisce sia il random che non\n    require(gameId >= 0, \"ID must be greater than 0\");\n    require(gameId < nextGameID, \"Game not open\");\n    require(counter > 0, \"No games available\");\n\n    //randomness\n    if(gameId == 0) {\n      bytes32 bhash = blockhash(block.number - 1);\n      bytes memory bytesArray = new bytes(32);\n      for (uint i; i < 32; i++) {\n          bytesArray[i] = bhash[i];\n      }\n      bytes32 rand = keccak256(bytesArray);\n      uint256 index = uint256(rand) % counter + 1;\n\n      for(uint256 j = 1; j < nextGameID; j++) {\n        if(index == 0) {\n          break;\n        }\n        if(games[j].enemy == address(0)) {\n          index--;\n          if(games[j].player != msg.sender)   //un giocatore non pu unirsi alla sua stessa partita\n            gameId = j;\n        }\n      }\n      if(gameId == 0)\n        revert(\"Match not found\");\n    }\n    //not random\n    else {\n      if(games[gameId].player == msg.sender)\n        revert(\"You cannot join your own game\"); \n      if(games[gameId].enemy != address(0))\n        revert(\"Game already has two players\");      \n    }\n    games[gameId].enemy = msg.sender;\n    counter--;\n    emit JoinedGame(games[gameId].player, msg.sender, gameId);\n  } \n\n  function pay() public {}\n\n  function bet(uint256 gameId, uint8 offer) public {\n    require(gameId >= 0, \"ID must be greater than 0\");\n    require(gameId < nextGameID, \"Game not open\");\n    if (games[gameId].playerOffer == games[gameId].enemyOffer) require(games[gameId].playerOffer == 0);\n    else require(games[gameId].playerOffer != games[gameId].enemyOffer);\n\n    if (games[gameId].player == msg.sender) games[gameId].playerOffer = offer;\n    if (games[gameId].enemy == msg.sender) games[gameId].enemyOffer = offer;\n\n    emit OfferReceived(msg.sender, offer, gameId);\n\n    if (games[gameId].playerOffer == games[gameId].enemyOffer) {\n      emit CommonOffer(games[gameId].playerOffer, gameId);\n    }\n\n  }\n\n  function attack() public {}\n\n  function checkWinner() private {}\n\n  function endGame() private {}\n\n  function afkPlayer() public {}\n\n  function board(bytes32 boardHash, uint256 gameID) public {\n    require(gameID < nextGameID);\n    require(gameID > 0);\n\n    emit BoardAdded();\n    games[gameID].playerGridHash = boardHash;\n  }\n\n}",
  "sourcePath": "/home/luca/block/solidity_projects/project/contracts/Battleship.sol",
  "compiler": {
    "name": "solc",
    "version": "0.8.19+commit.7dd6d404.Emscripten.clang"
  },
  "schemaVersion": "3.4.13",
  "updatedAt": "2023-05-24T19:10:55.962Z",
  "networkType": "ethereum",
  "devdoc": {
    "kind": "dev",
    "methods": {},
    "version": 1
  },
  "userdoc": {
    "kind": "user",
    "methods": {},
    "version": 1
  }
}