{
  "contractName": "Battleship",
  "abi": [
    {
      "anonymous": false,
      "inputs": [],
      "name": "BoardAdded",
      "type": "event"
    },
    {
      "anonymous": false,
      "inputs": [
        {
          "indexed": false,
          "internalType": "uint8",
          "name": "offer",
          "type": "uint8"
        },
        {
          "indexed": false,
          "internalType": "uint256",
          "name": "idGame",
          "type": "uint256"
        }
      ],
      "name": "CommonOffer",
      "type": "event"
    },
    {
      "anonymous": false,
      "inputs": [
        {
          "indexed": false,
          "internalType": "address",
          "name": "player",
          "type": "address"
        },
        {
          "indexed": false,
          "internalType": "address",
          "name": "enemy",
          "type": "address"
        },
        {
          "indexed": false,
          "internalType": "uint256",
          "name": "idGame",
          "type": "uint256"
        }
      ],
      "name": "JoinedGame",
      "type": "event"
    },
    {
      "anonymous": false,
      "inputs": [
        {
          "indexed": false,
          "internalType": "address",
          "name": "player",
          "type": "address"
        },
        {
          "indexed": false,
          "internalType": "uint256",
          "name": "idGame",
          "type": "uint256"
        }
      ],
      "name": "NewGameCreated",
      "type": "event"
    },
    {
      "anonymous": false,
      "inputs": [
        {
          "indexed": false,
          "internalType": "address",
          "name": "bidder",
          "type": "address"
        },
        {
          "indexed": false,
          "internalType": "uint8",
          "name": "offer",
          "type": "uint8"
        },
        {
          "indexed": false,
          "internalType": "uint256",
          "name": "idGame",
          "type": "uint256"
        }
      ],
      "name": "OfferReceived",
      "type": "event"
    },
    {
      "inputs": [],
      "name": "newGame",
      "outputs": [],
      "stateMutability": "nonpayable",
      "type": "function"
    },
    {
      "inputs": [
        {
          "internalType": "uint256",
          "name": "gameId",
          "type": "uint256"
        }
      ],
      "name": "joinGame",
      "outputs": [],
      "stateMutability": "nonpayable",
      "type": "function"
    },
    {
      "inputs": [
        {
          "internalType": "uint256",
          "name": "gameId",
          "type": "uint256"
        }
      ],
      "name": "pay",
      "outputs": [],
      "stateMutability": "payable",
      "type": "function",
      "payable": true
    },
    {
      "inputs": [
        {
          "internalType": "uint256",
          "name": "gameId",
          "type": "uint256"
        },
        {
          "internalType": "uint8",
          "name": "offer",
          "type": "uint8"
        }
      ],
      "name": "bet",
      "outputs": [],
      "stateMutability": "nonpayable",
      "type": "function"
    },
    {
      "inputs": [],
      "name": "attack",
      "outputs": [],
      "stateMutability": "nonpayable",
      "type": "function"
    },
    {
      "inputs": [],
      "name": "afkPlayer",
      "outputs": [],
      "stateMutability": "nonpayable",
      "type": "function"
    },
    {
      "inputs": [
        {
          "internalType": "bytes32",
          "name": "boardHash",
          "type": "bytes32"
        },
        {
          "internalType": "uint256",
          "name": "gameID",
          "type": "uint256"
        }
      ],
      "name": "board",
      "outputs": [],
      "stateMutability": "nonpayable",
      "type": "function"
    }
  ],
  "bytecode": "0x60806040526001600055600060015534801561001a57600080fd5b506114088061002a6000396000f3fe6080604052600436106100705760003560e01c80639e5faafc1161004e5780639e5faafc146100cc578063c290d691146100e3578063c437a0cd146100ff578063efaa55a01461012857610070565b80634c73207b146100755780637d03f5f31461008c5780638f6e4722146100a3575b600080fd5b34801561008157600080fd5b5061008a610151565b005b34801561009857600080fd5b506100a1610153565b005b3480156100af57600080fd5b506100ca60048036038101906100c59190610d6e565b61039c565b005b3480156100d857600080fd5b506100e1610402565b005b6100fd60048036038101906100f89190610dae565b610404565b005b34801561010b57600080fd5b5061012660048036038101906101219190610e14565b61048f565b005b34801561013457600080fd5b5061014f600480360381019061014a9190610dae565b610794565b005b565b7f72c5d3a1559eb2bbdb341b459f9be7a20ddd182562d779fc4decb64e69678de433600054604051610186929190610ea4565b60405180910390a133600260008054815260200190815260200160002060000160006101000a81548173ffffffffffffffffffffffffffffffffffffffff021916908373ffffffffffffffffffffffffffffffffffffffff1602179055506000600260008054815260200190815260200160002060010160006101000a81548173ffffffffffffffffffffffffffffffffffffffff021916908373ffffffffffffffffffffffffffffffffffffffff1602179055506000600260008054815260200190815260200160002060040160006101000a81548160ff0219169083151502179055506000600260008054815260200190815260200160002060040160016101000a81548160ff021916908360ff1602179055506000600260008054815260200190815260200160002060040160026101000a81548160ff021916908360ff1602179055506000801b6002600080548152602001908152602001600020600201819055506000801b6002600080548152602001908152602001600020600301819055506000600260008054815260200190815260200160002060040160036101000a81548160ff0219169083151502179055506000600260008054815260200190815260200160002060040160046101000a81548160ff02191690831515021790555060008081548092919061037d90610efc565b91905055506001600081548092919061039590610efc565b9190505550565b60005481106103aa57600080fd5b600081116103b757600080fd5b7faf79e799cd35f75cd0a667f0fd35e9dba003a5d86156fa68f0af5988ad1b636060405160405180910390a18160026000838152602001908152602001600020600201819055505050565b565b6000811015610448576040517f08c379a000000000000000000000000000000000000000000000000000000000815260040161043f90610fa1565b60405180910390fd5b600054811061048c576040517f08c379a00000000000000000000000000000000000000000000000000000000081526004016104839061100d565b60405180910390fd5b50565b6002600083815260200190815260200160002060040160029054906101000a900460ff1660ff166002600084815260200190815260200160002060040160019054906101000a900460ff1660ff160361051a5760006002600084815260200190815260200160002060040160019054906101000a900460ff1660ff161461051557600080fd5b610573565b6002600083815260200190815260200160002060040160029054906101000a900460ff1660ff166002600084815260200190815260200160002060040160019054906101000a900460ff1660ff160361057257600080fd5b5b3373ffffffffffffffffffffffffffffffffffffffff166002600084815260200190815260200160002060000160009054906101000a900473ffffffffffffffffffffffffffffffffffffffff1673ffffffffffffffffffffffffffffffffffffffff160361060c57806002600084815260200190815260200160002060040160016101000a81548160ff021916908360ff1602179055505b3373ffffffffffffffffffffffffffffffffffffffff166002600084815260200190815260200160002060010160009054906101000a900473ffffffffffffffffffffffffffffffffffffffff1673ffffffffffffffffffffffffffffffffffffffff16036106a557806002600084815260200190815260200160002060040160026101000a81548160ff021916908360ff1602179055505b7f64107d3b58e2bc36cabca25834e1c26c957548fa96238c27b51dccde8b3911893382846040516106d89392919061103c565b60405180910390a16002600083815260200190815260200160002060040160029054906101000a900460ff1660ff166002600084815260200190815260200160002060040160019054906101000a900460ff1660ff1603610790577fdfe2304b245885b41d7289335dc7fbe39fffb5822defda4efc1da399129c12e46002600084815260200190815260200160002060040160019054906101000a900460ff1683604051610787929190611073565b60405180910390a15b5050565b60008110156107d8576040517f08c379a00000000000000000000000000000000000000000000000000000000081526004016107cf90610fa1565b60405180910390fd5b600054811061081c576040517f08c379a00000000000000000000000000000000000000000000000000000000081526004016108139061100d565b60405180910390fd5b600060015411610861576040517f08c379a0000000000000000000000000000000000000000000000000000000008152600401610858906110e8565b60405180910390fd5b60008103610ad25760006001436108789190611108565b4090506000602067ffffffffffffffff8111156108985761089761113c565b5b6040519080825280601f01601f1916602001820160405280156108ca5781602001600182028036833780820191505090505b50905060005b6020811015610945578281602081106108ec576108eb61116b565b5b1a60f81b8282815181106109035761090261116b565b5b60200101907effffffffffffffffffffffffffffffffffffffffffffffffffffffffffffff1916908160001a905350808061093d90610efc565b9150506108d0565b506000818051906020012090506000600180548360001c61096691906111c9565b61097091906111fa565b90506000600190505b600054811015610a85576000820315610a8557600073ffffffffffffffffffffffffffffffffffffffff166002600083815260200190815260200160002060010160009054906101000a900473ffffffffffffffffffffffffffffffffffffffff1673ffffffffffffffffffffffffffffffffffffffff1603610a72578180610a019061122e565b9250503373ffffffffffffffffffffffffffffffffffffffff166002600083815260200190815260200160002060000160009054906101000a900473ffffffffffffffffffffffffffffffffffffffff1673ffffffffffffffffffffffffffffffffffffffff1614610a71578095505b5b8080610a7d90610efc565b915050610979565b5060008503610ac9576040517f08c379a0000000000000000000000000000000000000000000000000000000008152600401610ac0906112a3565b60405180910390fd5b50505050610c1c565b3373ffffffffffffffffffffffffffffffffffffffff166002600083815260200190815260200160002060000160009054906101000a900473ffffffffffffffffffffffffffffffffffffffff1673ffffffffffffffffffffffffffffffffffffffff1603610b76576040517f08c379a0000000000000000000000000000000000000000000000000000000008152600401610b6d9061130f565b60405180910390fd5b600073ffffffffffffffffffffffffffffffffffffffff166002600083815260200190815260200160002060010160009054906101000a900473ffffffffffffffffffffffffffffffffffffffff1673ffffffffffffffffffffffffffffffffffffffff1614610c1b576040517f08c379a0000000000000000000000000000000000000000000000000000000008152600401610c129061137b565b60405180910390fd5b5b336002600083815260200190815260200160002060010160006101000a81548173ffffffffffffffffffffffffffffffffffffffff021916908373ffffffffffffffffffffffffffffffffffffffff16021790555060016000815480929190610c849061122e565b91905055507f905bf3b2c904b11ad68125a070ae243e2a22049136e141d2a5c5953a485362776002600083815260200190815260200160002060000160009054906101000a900473ffffffffffffffffffffffffffffffffffffffff163383604051610cf29392919061139b565b60405180910390a150565b600080fd5b6000819050919050565b610d1581610d02565b8114610d2057600080fd5b50565b600081359050610d3281610d0c565b92915050565b6000819050919050565b610d4b81610d38565b8114610d5657600080fd5b50565b600081359050610d6881610d42565b92915050565b60008060408385031215610d8557610d84610cfd565b5b6000610d9385828601610d23565b9250506020610da485828601610d59565b9150509250929050565b600060208284031215610dc457610dc3610cfd565b5b6000610dd284828501610d59565b91505092915050565b600060ff82169050919050565b610df181610ddb565b8114610dfc57600080fd5b50565b600081359050610e0e81610de8565b92915050565b60008060408385031215610e2b57610e2a610cfd565b5b6000610e3985828601610d59565b9250506020610e4a85828601610dff565b9150509250929050565b600073ffffffffffffffffffffffffffffffffffffffff82169050919050565b6000610e7f82610e54565b9050919050565b610e8f81610e74565b82525050565b610e9e81610d38565b82525050565b6000604082019050610eb96000830185610e86565b610ec66020830184610e95565b9392505050565b7f4e487b7100000000000000000000000000000000000000000000000000000000600052601160045260246000fd5b6000610f0782610d38565b91507fffffffffffffffffffffffffffffffffffffffffffffffffffffffffffffffff8203610f3957610f38610ecd565b5b600182019050919050565b600082825260208201905092915050565b7f4944206d7573742062652067726561746572207468616e203000000000000000600082015250565b6000610f8b601983610f44565b9150610f9682610f55565b602082019050919050565b60006020820190508181036000830152610fba81610f7e565b9050919050565b7f47616d65206e6f74206f70656e00000000000000000000000000000000000000600082015250565b6000610ff7600d83610f44565b915061100282610fc1565b602082019050919050565b6000602082019050818103600083015261102681610fea565b9050919050565b61103681610ddb565b82525050565b60006060820190506110516000830186610e86565b61105e602083018561102d565b61106b6040830184610e95565b949350505050565b6000604082019050611088600083018561102d565b6110956020830184610e95565b9392505050565b7f4e6f2067616d657320617661696c61626c650000000000000000000000000000600082015250565b60006110d2601283610f44565b91506110dd8261109c565b602082019050919050565b60006020820190508181036000830152611101816110c5565b9050919050565b600061111382610d38565b915061111e83610d38565b925082820390508181111561113657611135610ecd565b5b92915050565b7f4e487b7100000000000000000000000000000000000000000000000000000000600052604160045260246000fd5b7f4e487b7100000000000000000000000000000000000000000000000000000000600052603260045260246000fd5b7f4e487b7100000000000000000000000000000000000000000000000000000000600052601260045260246000fd5b60006111d482610d38565b91506111df83610d38565b9250826111ef576111ee61119a565b5b828206905092915050565b600061120582610d38565b915061121083610d38565b925082820190508082111561122857611227610ecd565b5b92915050565b600061123982610d38565b91506000820361124c5761124b610ecd565b5b600182039050919050565b7f4d61746368206e6f7420666f756e640000000000000000000000000000000000600082015250565b600061128d600f83610f44565b915061129882611257565b602082019050919050565b600060208201905081810360008301526112bc81611280565b9050919050565b7f596f752063616e6e6f74206a6f696e20796f7572206f776e2067616d65000000600082015250565b60006112f9601d83610f44565b9150611304826112c3565b602082019050919050565b60006020820190508181036000830152611328816112ec565b9050919050565b7f47616d6520616c7265616479206861732074776f20706c617965727300000000600082015250565b6000611365601c83610f44565b91506113708261132f565b602082019050919050565b6000602082019050818103600083015261139481611358565b9050919050565b60006060820190506113b06000830186610e86565b6113bd6020830185610e86565b6113ca6040830184610e95565b94935050505056fea2646970667358221220a165efe824aa31c648c6d5076f4fc7829a84793771b7a245e06162665144afe864736f6c63430008130033",
  "immutableReferences": {},
  "source": "// SPDX-License-Identifier: MIT\npragma solidity >=0.4.22 <0.9.0;\n\ncontract Battleship {\n  //uint8 constant GRID_SIZE = 10;\n  uint256 private nextGameID = 1;\n  uint256 private counter = 0;  //conta il numero di partite aperte\n\n  struct Game {\n    address player;\n    address enemy;    //address(0): non c' il giocatore\n    bytes32 playerGridHash;\n    bytes32 enemyGridHash;\n    bool ended;       //false: la partita non  finita; true: la partita  finita\n    uint8 playerOffer;\n    uint8 enemyOffer;\n    bool playerPay;   // \n    bool enemyPay;    //\n  }\n\n  mapping (uint256 => Game) private games;\n  event NewGameCreated(address player, uint256 idGame);\n  event JoinedGame(address player, address enemy, uint256 idGame);\n  event BoardAdded();\n  event OfferReceived(address bidder, uint8 offer, uint256 idGame);\n  event CommonOffer(uint8 offer, uint256 idGame);\n\n  function newGame() public {\n    emit NewGameCreated(msg.sender, nextGameID);\n    games[nextGameID].player = msg.sender;\n    games[nextGameID].enemy = address(0);\n    games[nextGameID].ended = false;\n    games[nextGameID].playerOffer = 0;\n    games[nextGameID].enemyOffer = 0;\n    games[nextGameID].playerGridHash = 0;\n    games[nextGameID].enemyGridHash = 0;\n    games[nextGameID].playerPay = false;\n    games[nextGameID].enemyPay = false;\n    nextGameID++;\n    counter++;\n  }\n\n  function joinGame(uint256 gameId) public {   //gestisce sia il random che non\n    require(gameId >= 0, \"ID must be greater than 0\");\n    require(gameId < nextGameID, \"Game not open\");\n    require(counter > 0, \"No games available\");\n\n    //randomness\n    if(gameId == 0) {\n      bytes32 bhash = blockhash(block.number - 1);\n      bytes memory bytesArray = new bytes(32);\n      for (uint i; i < 32; i++) {\n          bytesArray[i] = bhash[i];\n      }\n      bytes32 rand = keccak256(bytesArray);\n      uint256 index = uint256(rand) % counter + 1;\n\n      for(uint256 j = 1; j < nextGameID; j++) {\n        if(index == 0) {\n          break;\n        }\n        if(games[j].enemy == address(0)) {\n          index--;\n          if(games[j].player != msg.sender)   //un giocatore non pu unirsi alla sua stessa partita\n            gameId = j;\n        }\n      }\n      if(gameId == 0)\n        revert(\"Match not found\");\n    }\n    //not random\n    else {\n      if(games[gameId].player == msg.sender)\n        revert(\"You cannot join your own game\"); \n      if(games[gameId].enemy != address(0))\n        revert(\"Game already has two players\");      \n    }\n    games[gameId].enemy = msg.sender;\n    counter--;\n    emit JoinedGame(games[gameId].player, msg.sender, gameId);\n  } \n\n  function pay(uint256 gameId) public payable {\n    require(gameId >= 0, \"ID must be greater than 0\");\n    require(gameId < nextGameID, \"Game not open\");    \n\n    \n  }\n\n  function bet(uint256 gameId, uint8 offer) public {\n    \n    if (games[gameId].playerOffer == games[gameId].enemyOffer) require(games[gameId].playerOffer == 0);\n    else require(games[gameId].playerOffer != games[gameId].enemyOffer);\n\n    if (games[gameId].player == msg.sender) games[gameId].playerOffer = offer;\n    if (games[gameId].enemy == msg.sender) games[gameId].enemyOffer = offer;\n\n    emit OfferReceived(msg.sender, offer, gameId);\n\n    if (games[gameId].playerOffer == games[gameId].enemyOffer) {\n      emit CommonOffer(games[gameId].playerOffer, gameId);\n    }\n\n  }\n\n  function attack() public {}\n\n  function checkWinner() private {}\n\n  function endGame() private {}\n\n  function afkPlayer() public {}\n\n  function board(bytes32 boardHash, uint256 gameID) public {\n    require(gameID < nextGameID);\n    require(gameID > 0);\n\n    emit BoardAdded();\n    games[gameID].playerGridHash = boardHash;\n  }\n\n}",
  "sourcePath": "/home/luca/block/solidity_projects/project/contracts/Battleship.sol",
  "compiler": {
    "name": "solc",
    "version": "0.8.19+commit.7dd6d404.Emscripten.clang"
  },
  "schemaVersion": "3.4.13",
  "updatedAt": "2023-05-25T15:21:13.874Z",
  "networkType": "ethereum",
  "devdoc": {
    "kind": "dev",
    "methods": {},
    "version": 1
  },
  "userdoc": {
    "kind": "user",
    "methods": {},
    "version": 1
  }
}