{
  "contractName": "Battleship",
  "abi": [
    {
      "anonymous": false,
      "inputs": [
        {
          "indexed": false,
          "internalType": "uint256",
          "name": "idGame",
          "type": "uint256"
        },
        {
          "indexed": false,
          "internalType": "uint8",
          "name": "cell",
          "type": "uint8"
        }
      ],
      "name": "AttackedCell",
      "type": "event"
    },
    {
      "anonymous": false,
      "inputs": [
        {
          "indexed": false,
          "internalType": "uint8",
          "name": "offer",
          "type": "uint8"
        },
        {
          "indexed": false,
          "internalType": "uint256",
          "name": "idGame",
          "type": "uint256"
        }
      ],
      "name": "CommonOffer",
      "type": "event"
    },
    {
      "anonymous": false,
      "inputs": [
        {
          "indexed": false,
          "internalType": "address",
          "name": "player",
          "type": "address"
        },
        {
          "indexed": false,
          "internalType": "address",
          "name": "enemy",
          "type": "address"
        },
        {
          "indexed": false,
          "internalType": "uint256",
          "name": "idGame",
          "type": "uint256"
        },
        {
          "indexed": false,
          "internalType": "uint8",
          "name": "boardDimension",
          "type": "uint8"
        }
      ],
      "name": "JoinedGame",
      "type": "event"
    },
    {
      "anonymous": false,
      "inputs": [
        {
          "indexed": false,
          "internalType": "address",
          "name": "player",
          "type": "address"
        },
        {
          "indexed": false,
          "internalType": "uint256",
          "name": "idGame",
          "type": "uint256"
        }
      ],
      "name": "NewGameCreated",
      "type": "event"
    },
    {
      "anonymous": false,
      "inputs": [
        {
          "indexed": false,
          "internalType": "address",
          "name": "bidder",
          "type": "address"
        },
        {
          "indexed": false,
          "internalType": "uint8",
          "name": "offer",
          "type": "uint8"
        },
        {
          "indexed": false,
          "internalType": "uint256",
          "name": "idGame",
          "type": "uint256"
        }
      ],
      "name": "OfferReceived",
      "type": "event"
    },
    {
      "anonymous": false,
      "inputs": [
        {
          "indexed": false,
          "internalType": "uint256",
          "name": "idGame",
          "type": "uint256"
        }
      ],
      "name": "SetGame",
      "type": "event"
    },
    {
      "anonymous": false,
      "inputs": [
        {
          "indexed": false,
          "internalType": "uint256",
          "name": "idGame",
          "type": "uint256"
        }
      ],
      "name": "StartGame",
      "type": "event"
    },
    {
      "inputs": [
        {
          "internalType": "uint8",
          "name": "dimension",
          "type": "uint8"
        }
      ],
      "name": "newGame",
      "outputs": [],
      "stateMutability": "nonpayable",
      "type": "function"
    },
    {
      "inputs": [
        {
          "internalType": "uint256",
          "name": "gameId",
          "type": "uint256"
        }
      ],
      "name": "joinGame",
      "outputs": [],
      "stateMutability": "nonpayable",
      "type": "function"
    },
    {
      "inputs": [
        {
          "internalType": "uint256",
          "name": "gameId",
          "type": "uint256"
        },
        {
          "internalType": "uint8",
          "name": "offer",
          "type": "uint8"
        }
      ],
      "name": "bet",
      "outputs": [],
      "stateMutability": "nonpayable",
      "type": "function"
    },
    {
      "inputs": [
        {
          "internalType": "uint256",
          "name": "gameId",
          "type": "uint256"
        }
      ],
      "name": "pay",
      "outputs": [],
      "stateMutability": "payable",
      "type": "function",
      "payable": true
    },
    {
      "inputs": [
        {
          "internalType": "uint256",
          "name": "gameID",
          "type": "uint256"
        },
        {
          "internalType": "uint8",
          "name": "cellID",
          "type": "uint8"
        }
      ],
      "name": "attack",
      "outputs": [],
      "stateMutability": "nonpayable",
      "type": "function"
    },
    {
      "inputs": [],
      "name": "afkPlayer",
      "outputs": [],
      "stateMutability": "nonpayable",
      "type": "function"
    },
    {
      "inputs": [
        {
          "internalType": "uint256",
          "name": "gameID",
          "type": "uint256"
        },
        {
          "internalType": "bytes32",
          "name": "boardHash",
          "type": "bytes32"
        }
      ],
      "name": "board",
      "outputs": [],
      "stateMutability": "nonpayable",
      "type": "function"
    }
  ],
  "bytecode": "0x60806040526001600055600060015534801561001a57600080fd5b506119c78061002a6000396000f3fe6080604052600436106100705760003560e01c8063c290d6911161004e578063c290d691146100de578063c437a0cd146100fa578063eb80636814610123578063efaa55a01461014c57610070565b80634c73207b146100755780639f3aa7f21461008c578063bbf344ce146100b5575b600080fd5b34801561008157600080fd5b5061008a610175565b005b34801561009857600080fd5b506100b360048036038101906100ae9190611274565b610177565b005b3480156100c157600080fd5b506100dc60048036038101906100d791906112b4565b61029f565b005b6100f860048036038101906100f391906112e1565b61057b565b005b34801561010657600080fd5b50610121600480360381019061011c9190611274565b6107c5565b005b34801561012f57600080fd5b5061014a60048036038101906101459190611344565b610aca565b005b34801561015857600080fd5b50610173600480360381019061016e91906112e1565b610c72565b005b565b60008210156101bb576040517f08c379a00000000000000000000000000000000000000000000000000000000081526004016101b2906113e1565b60405180910390fd5b60005482106101ff576040517f08c379a00000000000000000000000000000000000000000000000000000000081526004016101f69061144d565b60405180910390fd5b6002600083815260200190815260200160002060010160149054906101000a900460ff166002600084815260200190815260200160002060010160149054906101000a900460ff16610251919061149c565b60ff168160ff161061026257600080fd5b7fc280882498990ef85d0e9ab56571c30cb4dff4e685ce905f3caaac3ec98c6fb782826040516102939291906114f7565b60405180910390a15050565b7f72c5d3a1559eb2bbdb341b459f9be7a20ddd182562d779fc4decb64e69678de4336000546040516102d2929190611561565b60405180910390a133600260008054815260200190815260200160002060000160006101000a81548173ffffffffffffffffffffffffffffffffffffffff021916908373ffffffffffffffffffffffffffffffffffffffff1602179055506000600260008054815260200190815260200160002060010160006101000a81548173ffffffffffffffffffffffffffffffffffffffff021916908373ffffffffffffffffffffffffffffffffffffffff16021790555080600260008054815260200190815260200160002060010160146101000a81548160ff021916908360ff1602179055506000600260008054815260200190815260200160002060040160006101000a81548160ff0219169083151502179055506000600260008054815260200190815260200160002060040160016101000a81548160ff021916908360ff1602179055506000600260008054815260200190815260200160002060040160026101000a81548160ff021916908360ff1602179055506000801b6002600080548152602001908152602001600020600201819055506000801b6002600080548152602001908152602001600020600301819055506000600260008054815260200190815260200160002060040160036101000a81548160ff0219169083151502179055506000600260008054815260200190815260200160002060040160046101000a81548160ff0219169083151502179055506010600260008054815260200190815260200160002060040160056101000a81548160ff021916908360ff1602179055506010600260008054815260200190815260200160002060040160066101000a81548160ff021916908360ff16021790555060008081548092919061055b9061158a565b9190505550600160008154809291906105739061158a565b919050555050565b60008110156105bf576040517f08c379a00000000000000000000000000000000000000000000000000000000081526004016105b6906113e1565b60405180910390fd5b6000548110610603576040517f08c379a00000000000000000000000000000000000000000000000000000000081526004016105fa9061144d565b60405180910390fd5b3373ffffffffffffffffffffffffffffffffffffffff166002600083815260200190815260200160002060000160009054906101000a900473ffffffffffffffffffffffffffffffffffffffff1673ffffffffffffffffffffffffffffffffffffffff160361069c5760016002600083815260200190815260200160002060040160036101000a81548160ff0219169083151502179055505b3373ffffffffffffffffffffffffffffffffffffffff166002600083815260200190815260200160002060010160009054906101000a900473ffffffffffffffffffffffffffffffffffffffff1673ffffffffffffffffffffffffffffffffffffffff16036107355760016002600083815260200190815260200160002060040160046101000a81548160ff0219169083151502179055505b6002600082815260200190815260200160002060040160039054906101000a900460ff16801561078557506002600082815260200190815260200160002060040160049054906101000a900460ff165b156107c2577f89d296e0b0d0ef2bd13830476724f0af14967da173593250e67e6924f1f9163a816040516107b991906115d2565b60405180910390a15b50565b6002600083815260200190815260200160002060040160029054906101000a900460ff1660ff166002600084815260200190815260200160002060040160019054906101000a900460ff1660ff16036108505760006002600084815260200190815260200160002060040160019054906101000a900460ff1660ff161461084b57600080fd5b6108a9565b6002600083815260200190815260200160002060040160029054906101000a900460ff1660ff166002600084815260200190815260200160002060040160019054906101000a900460ff1660ff16036108a857600080fd5b5b3373ffffffffffffffffffffffffffffffffffffffff166002600084815260200190815260200160002060000160009054906101000a900473ffffffffffffffffffffffffffffffffffffffff1673ffffffffffffffffffffffffffffffffffffffff160361094257806002600084815260200190815260200160002060040160016101000a81548160ff021916908360ff1602179055505b3373ffffffffffffffffffffffffffffffffffffffff166002600084815260200190815260200160002060010160009054906101000a900473ffffffffffffffffffffffffffffffffffffffff1673ffffffffffffffffffffffffffffffffffffffff16036109db57806002600084815260200190815260200160002060040160026101000a81548160ff021916908360ff1602179055505b7f64107d3b58e2bc36cabca25834e1c26c957548fa96238c27b51dccde8b391189338284604051610a0e939291906115ed565b60405180910390a16002600083815260200190815260200160002060040160029054906101000a900460ff1660ff166002600084815260200190815260200160002060040160019054906101000a900460ff1660ff1603610ac6577fdfe2304b245885b41d7289335dc7fbe39fffb5822defda4efc1da399129c12e46002600084815260200190815260200160002060040160019054906101000a900460ff1683604051610abd929190611624565b60405180910390a15b5050565b6000548210610ad857600080fd5b60008211610ae557600080fd5b3373ffffffffffffffffffffffffffffffffffffffff166002600084815260200190815260200160002060000160009054906101000a900473ffffffffffffffffffffffffffffffffffffffff1673ffffffffffffffffffffffffffffffffffffffff1603610b6a578060026000848152602001908152602001600020600201819055505b3373ffffffffffffffffffffffffffffffffffffffff166002600084815260200190815260200160002060010160009054906101000a900473ffffffffffffffffffffffffffffffffffffffff1673ffffffffffffffffffffffffffffffffffffffff1603610bef578060026000848152602001908152602001600020600301819055505b6000801b600260008481526020019081526020016000206002015414158015610c3157506000801b600260008481526020019081526020016000206003015414155b15610c6e577f12333b322723ec26360eb708b341801ecca576387b55caa77d6e408107d2c70f82604051610c6591906115d2565b60405180910390a15b5050565b6000811015610cb6576040517f08c379a0000000000000000000000000000000000000000000000000000000008152600401610cad906113e1565b60405180910390fd5b6000548110610cfa576040517f08c379a0000000000000000000000000000000000000000000000000000000008152600401610cf19061144d565b60405180910390fd5b600060015411610d3f576040517f08c379a0000000000000000000000000000000000000000000000000000000008152600401610d3690611699565b60405180910390fd5b60008103610fb0576000600143610d5691906116b9565b4090506000602067ffffffffffffffff811115610d7657610d756116ed565b5b6040519080825280601f01601f191660200182016040528015610da85781602001600182028036833780820191505090505b50905060005b6020811015610e2357828160208110610dca57610dc961171c565b5b1a60f81b828281518110610de157610de061171c565b5b60200101907effffffffffffffffffffffffffffffffffffffffffffffffffffffffffffff1916908160001a9053508080610e1b9061158a565b915050610dae565b506000818051906020012090506000600180548360001c610e44919061177a565b610e4e91906117ab565b90506000600190505b600054811015610f63576000820315610f6357600073ffffffffffffffffffffffffffffffffffffffff166002600083815260200190815260200160002060010160009054906101000a900473ffffffffffffffffffffffffffffffffffffffff1673ffffffffffffffffffffffffffffffffffffffff1603610f50578180610edf906117df565b9250503373ffffffffffffffffffffffffffffffffffffffff166002600083815260200190815260200160002060000160009054906101000a900473ffffffffffffffffffffffffffffffffffffffff1673ffffffffffffffffffffffffffffffffffffffff1614610f4f578095505b5b8080610f5b9061158a565b915050610e57565b5060008503610fa7576040517f08c379a0000000000000000000000000000000000000000000000000000000008152600401610f9e90611854565b60405180910390fd5b505050506110fa565b3373ffffffffffffffffffffffffffffffffffffffff166002600083815260200190815260200160002060000160009054906101000a900473ffffffffffffffffffffffffffffffffffffffff1673ffffffffffffffffffffffffffffffffffffffff1603611054576040517f08c379a000000000000000000000000000000000000000000000000000000000815260040161104b906118c0565b60405180910390fd5b600073ffffffffffffffffffffffffffffffffffffffff166002600083815260200190815260200160002060010160009054906101000a900473ffffffffffffffffffffffffffffffffffffffff1673ffffffffffffffffffffffffffffffffffffffff16146110f9576040517f08c379a00000000000000000000000000000000000000000000000000000000081526004016110f09061192c565b60405180910390fd5b5b336002600083815260200190815260200160002060010160006101000a81548173ffffffffffffffffffffffffffffffffffffffff021916908373ffffffffffffffffffffffffffffffffffffffff16021790555060016000815480929190611162906117df565b91905055507f276a7f782d740627e426973b863f244fee07739e8e648ddc3cb52485808b04d36002600083815260200190815260200160002060000160009054906101000a900473ffffffffffffffffffffffffffffffffffffffff1633836002600086815260200190815260200160002060010160149054906101000a900460ff166040516111f5949392919061194c565b60405180910390a150565b600080fd5b6000819050919050565b61121881611205565b811461122357600080fd5b50565b6000813590506112358161120f565b92915050565b600060ff82169050919050565b6112518161123b565b811461125c57600080fd5b50565b60008135905061126e81611248565b92915050565b6000806040838503121561128b5761128a611200565b5b600061129985828601611226565b92505060206112aa8582860161125f565b9150509250929050565b6000602082840312156112ca576112c9611200565b5b60006112d88482850161125f565b91505092915050565b6000602082840312156112f7576112f6611200565b5b600061130584828501611226565b91505092915050565b6000819050919050565b6113218161130e565b811461132c57600080fd5b50565b60008135905061133e81611318565b92915050565b6000806040838503121561135b5761135a611200565b5b600061136985828601611226565b925050602061137a8582860161132f565b9150509250929050565b600082825260208201905092915050565b7f4944206d7573742062652067726561746572207468616e203000000000000000600082015250565b60006113cb601983611384565b91506113d682611395565b602082019050919050565b600060208201905081810360008301526113fa816113be565b9050919050565b7f47616d65206e6f74206f70656e00000000000000000000000000000000000000600082015250565b6000611437600d83611384565b915061144282611401565b602082019050919050565b600060208201905081810360008301526114668161142a565b9050919050565b7f4e487b7100000000000000000000000000000000000000000000000000000000600052601160045260246000fd5b60006114a78261123b565b91506114b28361123b565b92508282026114c08161123b565b91508082146114d2576114d161146d565b5b5092915050565b6114e281611205565b82525050565b6114f18161123b565b82525050565b600060408201905061150c60008301856114d9565b61151960208301846114e8565b9392505050565b600073ffffffffffffffffffffffffffffffffffffffff82169050919050565b600061154b82611520565b9050919050565b61155b81611540565b82525050565b60006040820190506115766000830185611552565b61158360208301846114d9565b9392505050565b600061159582611205565b91507fffffffffffffffffffffffffffffffffffffffffffffffffffffffffffffffff82036115c7576115c661146d565b5b600182019050919050565b60006020820190506115e760008301846114d9565b92915050565b60006060820190506116026000830186611552565b61160f60208301856114e8565b61161c60408301846114d9565b949350505050565b600060408201905061163960008301856114e8565b61164660208301846114d9565b9392505050565b7f4e6f2067616d657320617661696c61626c650000000000000000000000000000600082015250565b6000611683601283611384565b915061168e8261164d565b602082019050919050565b600060208201905081810360008301526116b281611676565b9050919050565b60006116c482611205565b91506116cf83611205565b92508282039050818111156116e7576116e661146d565b5b92915050565b7f4e487b7100000000000000000000000000000000000000000000000000000000600052604160045260246000fd5b7f4e487b7100000000000000000000000000000000000000000000000000000000600052603260045260246000fd5b7f4e487b7100000000000000000000000000000000000000000000000000000000600052601260045260246000fd5b600061178582611205565b915061179083611205565b9250826117a05761179f61174b565b5b828206905092915050565b60006117b682611205565b91506117c183611205565b92508282019050808211156117d9576117d861146d565b5b92915050565b60006117ea82611205565b9150600082036117fd576117fc61146d565b5b600182039050919050565b7f4d61746368206e6f7420666f756e640000000000000000000000000000000000600082015250565b600061183e600f83611384565b915061184982611808565b602082019050919050565b6000602082019050818103600083015261186d81611831565b9050919050565b7f596f752063616e6e6f74206a6f696e20796f7572206f776e2067616d65000000600082015250565b60006118aa601d83611384565b91506118b582611874565b602082019050919050565b600060208201905081810360008301526118d98161189d565b9050919050565b7f47616d6520616c7265616479206861732074776f20706c617965727300000000600082015250565b6000611916601c83611384565b9150611921826118e0565b602082019050919050565b6000602082019050818103600083015261194581611909565b9050919050565b60006080820190506119616000830187611552565b61196e6020830186611552565b61197b60408301856114d9565b61198860608301846114e8565b9594505050505056fea2646970667358221220377e0c4748b8664284fabc3398b4a14344346a8e878fae2458c16d9bbc55608864736f6c63430008130033",
  "immutableReferences": {},
  "source": "// SPDX-License-Identifier: MIT\npragma solidity >=0.4.22 <0.9.0;\n\ncontract Battleship {\n  uint256 private nextGameID = 1;\n  uint256 private counter = 0;  //conta il numero di partite aperte\n\n  struct Game {\n    address player;\n    address enemy;    //address(0): non c' il giocatore\n    uint8 boardDimension;\n    bytes32 playerGridHash;\n    bytes32 enemyGridHash;\n    bool ended;       //false: la partita non  finita; true: la partita  finita\n    uint8 playerOffer;\n    uint8 enemyOffer;\n    bool playerPay;   //false: il giocatore non ha pagato\n    bool enemyPay;    //false: enemy non ha pagato\n    uint8 playerHitSum; \n    uint8 enemyHitSum;\n  }\n\n  mapping (uint256 => Game) private games;\n  event NewGameCreated(address player, uint256 idGame);\n  event JoinedGame(address player, address enemy, uint256 idGame, uint8 boardDimension);\n  event OfferReceived(address bidder, uint8 offer, uint256 idGame);\n  event CommonOffer(uint8 offer, uint256 idGame);\n  event SetGame(uint256 idGame);\n  event StartGame(uint256 idGame);\n  event AttackedCell(uint256 idGame, uint8 cell);\n\n  function newGame(uint8 dimension) public {\n    emit NewGameCreated(msg.sender, nextGameID);\n    games[nextGameID].player = msg.sender;\n    games[nextGameID].enemy = address(0);\n    games[nextGameID].boardDimension = dimension;\n    games[nextGameID].ended = false;\n    games[nextGameID].playerOffer = 0;\n    games[nextGameID].enemyOffer = 0;\n    games[nextGameID].playerGridHash = 0;\n    games[nextGameID].enemyGridHash = 0;\n    games[nextGameID].playerPay = false;\n    games[nextGameID].enemyPay = false;\n    games[nextGameID].playerHitSum = 16;\n    games[nextGameID].enemyHitSum = 16;\n    nextGameID++;\n    counter++;\n  }\n\n  function joinGame(uint256 gameId) public {   //gestisce sia il random che non\n    require(gameId >= 0, \"ID must be greater than 0\");\n    require(gameId < nextGameID, \"Game not open\");\n    require(counter > 0, \"No games available\");\n\n    //randomness\n    if(gameId == 0) {\n      bytes32 bhash = blockhash(block.number - 1);\n      bytes memory bytesArray = new bytes(32);\n      for (uint i; i < 32; i++) {\n          bytesArray[i] = bhash[i];\n      }\n      bytes32 rand = keccak256(bytesArray);\n      uint256 index = uint256(rand) % counter + 1;\n\n      for(uint256 j = 1; j < nextGameID; j++) {\n        if(index == 0) {\n          break;\n        }\n        if(games[j].enemy == address(0)) {\n          index--;\n          if(games[j].player != msg.sender)   //un giocatore non pu unirsi alla sua stessa partita\n            gameId = j;\n        }\n      }\n      if(gameId == 0)\n        revert(\"Match not found\");\n    }\n    //not random\n    else {\n      if(games[gameId].player == msg.sender)\n        revert(\"You cannot join your own game\"); \n      if(games[gameId].enemy != address(0))\n        revert(\"Game already has two players\");      \n    }\n    games[gameId].enemy = msg.sender;\n    counter--;\n    emit JoinedGame(games[gameId].player, msg.sender, gameId, games[gameId].boardDimension);\n  } \n\n  function bet(uint256 gameId, uint8 offer) public {\n    \n    if (games[gameId].playerOffer == games[gameId].enemyOffer) require(games[gameId].playerOffer == 0);\n    else require(games[gameId].playerOffer != games[gameId].enemyOffer);\n\n    if (games[gameId].player == msg.sender) games[gameId].playerOffer = offer;\n    if (games[gameId].enemy == msg.sender) games[gameId].enemyOffer = offer;\n\n    emit OfferReceived(msg.sender, offer, gameId);\n\n    if (games[gameId].playerOffer == games[gameId].enemyOffer) {\n      emit CommonOffer(games[gameId].playerOffer, gameId);\n    }\n\n  }\n\n  function pay(uint256 gameId) public payable {\n    require(gameId >= 0, \"ID must be greater than 0\");\n    require(gameId < nextGameID, \"Game not open\");    \n\n    if (games[gameId].player == msg.sender) games[gameId].playerPay = true;\n    if (games[gameId].enemy == msg.sender) games[gameId].enemyPay = true;\n\n    if(games[gameId].playerPay && games[gameId].enemyPay) emit SetGame(gameId);\n  }\n\n  function attack(uint256 gameID, uint8 cellID) public {\n    require(gameID >= 0, \"ID must be greater than 0\");\n    require(gameID < nextGameID, \"Game not open\");\n    require(cellID < games[gameID].boardDimension * games[gameID].boardDimension);\n\n    emit AttackedCell(gameID, cellID);\n  }\n\n  function attackResponse() private {}\n\n  function checkWinner() private {}\n\n  function endGame() private {}\n\n  function afkPlayer() public {}\n\n  function board(uint256 gameID, bytes32 boardHash) public {\n    require(gameID < nextGameID);\n    require(gameID > 0);\n    \n    if (games[gameID].player == msg.sender) games[gameID].playerGridHash = boardHash;\n    if (games[gameID].enemy == msg.sender) games[gameID].enemyGridHash = boardHash;\n    \n    if(games[gameID].playerGridHash != 0 && games[gameID].enemyGridHash != 0) emit StartGame(gameID);\n  }\n\n}",
  "sourcePath": "/home/luca/block/solidity_projects/project/contracts/Battleship.sol",
  "compiler": {
    "name": "solc",
    "version": "0.8.19+commit.7dd6d404.Emscripten.clang"
  },
  "schemaVersion": "3.4.13",
  "updatedAt": "2023-06-02T14:53:04.979Z",
  "networkType": "ethereum",
  "devdoc": {
    "kind": "dev",
    "methods": {},
    "version": 1
  },
  "userdoc": {
    "kind": "user",
    "methods": {},
    "version": 1
  }
}