{
  "contractName": "Battleship",
  "abi": [
    {
      "inputs": [],
      "name": "newGame",
      "outputs": [
        {
          "internalType": "uint8",
          "name": "",
          "type": "uint8"
        }
      ],
      "stateMutability": "nonpayable",
      "type": "function"
    },
    {
      "inputs": [
        {
          "internalType": "uint256",
          "name": "gameId",
          "type": "uint256"
        }
      ],
      "name": "joinGame",
      "outputs": [],
      "stateMutability": "nonpayable",
      "type": "function"
    },
    {
      "inputs": [],
      "name": "attack",
      "outputs": [],
      "stateMutability": "nonpayable",
      "type": "function"
    },
    {
      "inputs": [],
      "name": "afkPlayer",
      "outputs": [],
      "stateMutability": "nonpayable",
      "type": "function"
    }
  ],
  "bytecode": "0x6080604052600160005534801561001557600080fd5b50610180806100256000396000f3fe608060405234801561001057600080fd5b506004361061004c5760003560e01c80634c73207b146100515780637d03f5f31461005b5780639e5faafc14610079578063efaa55a014610083575b600080fd5b61005961009f565b005b6100636100a1565b60405161007091906100c7565b60405180910390f35b6100816100a6565b005b61009d6004803603810190610098919061011d565b6100a8565b005b565b600090565b565b50565b600060ff82169050919050565b6100c1816100ab565b82525050565b60006020820190506100dc60008301846100b8565b92915050565b600080fd5b6000819050919050565b6100fa816100e7565b811461010557600080fd5b50565b600081359050610117816100f1565b92915050565b600060208284031215610133576101326100e2565b5b600061014184828501610108565b9150509291505056fea264697066735822122066216589020d7b1ad325eb8d19f3c34fc4037e8e0b6b1c0687898c45c61e913364736f6c63430008130033",
  "immutableReferences": {},
  "source": "// SPDX-License-Identifier: MIT\npragma solidity >=0.4.22 <0.9.0;\n\ncontract Battleship {\n  uint8 constant GRID_SIZE = 10;\n  uint256 private nextGameID = 1;\n\n  struct Game {\n    bytes32 playerGridHash;\n    bytes32 enemyGridHash;\n    bool isActive;\n  }\n\n  mapping (uint256 => Game) private games;\n\n  function newGame() public returns (uint8) {}\n\n  function joinGame(uint gameId) public {} //gestisce sia il random che non\n\n  function attack() public{}\n\n  function checkWinner() private {}\n\n  function endGame() private {}\n\n  function afkPlayer() public {}\n}\n",
  "sourcePath": "/home/luca/block/solidity_projects/project/contracts/Battleship.sol",
  "compiler": {
    "name": "solc",
    "version": "0.8.19+commit.7dd6d404.Emscripten.clang"
  },
  "schemaVersion": "3.4.13",
  "updatedAt": "2023-05-19T16:24:35.059Z",
  "networkType": "ethereum",
  "devdoc": {
    "kind": "dev",
    "methods": {},
    "version": 1
  },
  "userdoc": {
    "kind": "user",
    "methods": {},
    "version": 1
  }
}