{
  "contractName": "Battleship",
  "abi": [
    {
      "anonymous": false,
      "inputs": [
        {
          "indexed": false,
          "internalType": "uint256",
          "name": "idGame",
          "type": "uint256"
        },
        {
          "indexed": false,
          "internalType": "uint8",
          "name": "response",
          "type": "uint8"
        }
      ],
      "name": "AttackResponse",
      "type": "event"
    },
    {
      "anonymous": false,
      "inputs": [
        {
          "indexed": false,
          "internalType": "uint256",
          "name": "idGame",
          "type": "uint256"
        },
        {
          "indexed": false,
          "internalType": "uint8",
          "name": "cell",
          "type": "uint8"
        }
      ],
      "name": "AttackedCell",
      "type": "event"
    },
    {
      "anonymous": false,
      "inputs": [
        {
          "indexed": false,
          "internalType": "uint256",
          "name": "offer",
          "type": "uint256"
        },
        {
          "indexed": false,
          "internalType": "uint256",
          "name": "idGame",
          "type": "uint256"
        }
      ],
      "name": "CommonOffer",
      "type": "event"
    },
    {
      "anonymous": false,
      "inputs": [
        {
          "indexed": false,
          "internalType": "uint256",
          "name": "idGame",
          "type": "uint256"
        },
        {
          "indexed": false,
          "internalType": "address",
          "name": "winner",
          "type": "address"
        }
      ],
      "name": "EndGame",
      "type": "event"
    },
    {
      "anonymous": false,
      "inputs": [
        {
          "indexed": false,
          "internalType": "address",
          "name": "player",
          "type": "address"
        },
        {
          "indexed": false,
          "internalType": "address",
          "name": "enemy",
          "type": "address"
        },
        {
          "indexed": false,
          "internalType": "uint256",
          "name": "idGame",
          "type": "uint256"
        },
        {
          "indexed": false,
          "internalType": "uint8",
          "name": "boardDimension",
          "type": "uint8"
        }
      ],
      "name": "JoinedGame",
      "type": "event"
    },
    {
      "anonymous": false,
      "inputs": [
        {
          "indexed": false,
          "internalType": "address",
          "name": "player",
          "type": "address"
        },
        {
          "indexed": false,
          "internalType": "uint256",
          "name": "idGame",
          "type": "uint256"
        }
      ],
      "name": "NewGameCreated",
      "type": "event"
    },
    {
      "anonymous": false,
      "inputs": [
        {
          "indexed": false,
          "internalType": "address",
          "name": "bidder",
          "type": "address"
        },
        {
          "indexed": false,
          "internalType": "uint256",
          "name": "offer",
          "type": "uint256"
        },
        {
          "indexed": false,
          "internalType": "uint256",
          "name": "idGame",
          "type": "uint256"
        }
      ],
      "name": "OfferReceived",
      "type": "event"
    },
    {
      "anonymous": false,
      "inputs": [
        {
          "indexed": false,
          "internalType": "uint256",
          "name": "idGame",
          "type": "uint256"
        },
        {
          "indexed": false,
          "internalType": "address",
          "name": "check",
          "type": "address"
        }
      ],
      "name": "ReceiveBoard",
      "type": "event"
    },
    {
      "anonymous": false,
      "inputs": [
        {
          "indexed": false,
          "internalType": "uint256",
          "name": "idGame",
          "type": "uint256"
        }
      ],
      "name": "SetGame",
      "type": "event"
    },
    {
      "anonymous": false,
      "inputs": [
        {
          "indexed": false,
          "internalType": "uint256",
          "name": "idGame",
          "type": "uint256"
        }
      ],
      "name": "StartGame",
      "type": "event"
    },
    {
      "inputs": [
        {
          "internalType": "uint8",
          "name": "dimension",
          "type": "uint8"
        }
      ],
      "name": "newGame",
      "outputs": [],
      "stateMutability": "nonpayable",
      "type": "function"
    },
    {
      "inputs": [
        {
          "internalType": "uint256",
          "name": "gameId",
          "type": "uint256"
        }
      ],
      "name": "joinGame",
      "outputs": [],
      "stateMutability": "nonpayable",
      "type": "function"
    },
    {
      "inputs": [
        {
          "internalType": "uint256",
          "name": "gameId",
          "type": "uint256"
        },
        {
          "internalType": "uint256",
          "name": "offer",
          "type": "uint256"
        }
      ],
      "name": "bet",
      "outputs": [],
      "stateMutability": "nonpayable",
      "type": "function"
    },
    {
      "inputs": [
        {
          "internalType": "uint256",
          "name": "gameId",
          "type": "uint256"
        }
      ],
      "name": "pay",
      "outputs": [],
      "stateMutability": "payable",
      "type": "function",
      "payable": true
    },
    {
      "inputs": [
        {
          "internalType": "uint256",
          "name": "gameID",
          "type": "uint256"
        },
        {
          "internalType": "uint8",
          "name": "cellID",
          "type": "uint8"
        }
      ],
      "name": "attack",
      "outputs": [],
      "stateMutability": "nonpayable",
      "type": "function"
    },
    {
      "inputs": [
        {
          "internalType": "uint256",
          "name": "gameID",
          "type": "uint256"
        },
        {
          "internalType": "uint8",
          "name": "value",
          "type": "uint8"
        },
        {
          "internalType": "bytes32[]",
          "name": "merkleProof",
          "type": "bytes32[]"
        },
        {
          "internalType": "uint8",
          "name": "cellID",
          "type": "uint8"
        }
      ],
      "name": "attackResponse",
      "outputs": [],
      "stateMutability": "payable",
      "type": "function",
      "payable": true
    },
    {
      "inputs": [
        {
          "internalType": "uint256",
          "name": "gameID",
          "type": "uint256"
        },
        {
          "internalType": "uint8[]",
          "name": "winnerBoard",
          "type": "uint8[]"
        }
      ],
      "name": "checkWinner",
      "outputs": [],
      "stateMutability": "payable",
      "type": "function",
      "payable": true
    },
    {
      "inputs": [],
      "name": "afkPlayer",
      "outputs": [],
      "stateMutability": "nonpayable",
      "type": "function"
    },
    {
      "inputs": [
        {
          "internalType": "uint256",
          "name": "gameID",
          "type": "uint256"
        },
        {
          "internalType": "bytes32",
          "name": "boardHash",
          "type": "bytes32"
        }
      ],
      "name": "board",
      "outputs": [],
      "stateMutability": "nonpayable",
      "type": "function"
    }
  ],
  "bytecode": "0x60806040526001600055600060015560028060006101000a81548160ff021916908360ff16021790555034801561003557600080fd5b506136ee806100456000396000f3fe6080604052600436106100865760003560e01c8063bbf344ce11610059578063bbf344ce14610110578063c290d69114610139578063df00dc7114610155578063eb80636814610171578063efaa55a01461019a57610086565b80632b3bf33a1461008b5780634c73207b146100a75780636ffcc719146100be5780639f3aa7f2146100e7575b600080fd5b6100a560048036038101906100a09190612c10565b6101c3565b005b3480156100b357600080fd5b506100bc610c80565b005b3480156100ca57600080fd5b506100e560048036038101906100e09190612c6c565b610c82565b005b3480156100f357600080fd5b5061010e60048036038101906101099190612cac565b6110ad565b005b34801561011c57600080fd5b5061013760048036038101906101329190612cec565b611318565b005b610153600480360381019061014e9190612d19565b6115e8565b005b61016f600480360381019061016a9190612e3f565b6118d8565b005b34801561017d57600080fd5b5061019860048036038101906101939190612ec2565b61222a565b005b3480156101a657600080fd5b506101c160048036038101906101bc9190612d19565b61243c565b005b6000821015610207576040517f08c379a00000000000000000000000000000000000000000000000000000000081526004016101fe90612f5f565b60405180910390fd5b600054821061024b576040517f08c379a000000000000000000000000000000000000000000000000000000000815260040161024290612fcb565b60405180910390fd5b600015156003600084815260200190815260200160002060040160009054906101000a900460ff161515146102b5576040517f08c379a00000000000000000000000000000000000000000000000000000000081526004016102ac90613037565b60405180910390fd5b3373ffffffffffffffffffffffffffffffffffffffff166003600084815260200190815260200160002060000160009054906101000a900473ffffffffffffffffffffffffffffffffffffffff1673ffffffffffffffffffffffffffffffffffffffff161415801561038957503373ffffffffffffffffffffffffffffffffffffffff166003600084815260200190815260200160002060010160009054906101000a900473ffffffffffffffffffffffffffffffffffffffff1673ffffffffffffffffffffffffffffffffffffffff1614155b610c7c5760003373ffffffffffffffffffffffffffffffffffffffff166003600085815260200190815260200160002060000160009054906101000a900473ffffffffffffffffffffffffffffffffffffffff1673ffffffffffffffffffffffffffffffffffffffff16036103fd57600190505b801561057a5760006003600085815260200190815260200160002060070160039054906101000a900460ff1660ff1611156105755760016003600085815260200190815260200160002060040160006101000a81548160ff0219169083151502179055507f84f8e1147ed860fdcb13c73d1ec1bf4aa9cded9250811ad1067ea2e81b61affd836003600086815260200190815260200160002060010160009054906101000a900473ffffffffffffffffffffffffffffffffffffffff166040516104c89291906130a7565b60405180910390a16003600084815260200190815260200160002060010160009054906101000a900473ffffffffffffffffffffffffffffffffffffffff1673ffffffffffffffffffffffffffffffffffffffff166108fc6002600360008781526020019081526020016000206006015461054391906130ff565b9081150290604051600060405180830381858888f1935050505015801561056e573d6000803e3d6000fd5b5050610c7c565b6106ed565b60006003600085815260200190815260200160002060070160029054906101000a900460ff1660ff1611156106ec5760016003600085815260200190815260200160002060040160006101000a81548160ff0219169083151502179055507f84f8e1147ed860fdcb13c73d1ec1bf4aa9cded9250811ad1067ea2e81b61affd836003600086815260200190815260200160002060000160009054906101000a900473ffffffffffffffffffffffffffffffffffffffff1660405161063f9291906130a7565b60405180910390a16003600084815260200190815260200160002060000160009054906101000a900473ffffffffffffffffffffffffffffffffffffffff1673ffffffffffffffffffffffffffffffffffffffff166108fc600260036000878152602001908152602001600020600501546106ba91906130ff565b9081150290604051600060405180830381858888f193505050501580156106e5573d6000803e3d6000fd5b5050610c7c565b5b6000805b83518160ff161015610747576001848260ff168151811061071557610714613141565b5b602002602001015160ff160361073457818061073090613170565b9250505b808061073f90613170565b9150506106f1565b50600260009054906101000a900460ff1660ff168160ff16036109f25781156108ae5760016003600086815260200190815260200160002060040160006101000a81548160ff0219169083151502179055507f84f8e1147ed860fdcb13c73d1ec1bf4aa9cded9250811ad1067ea2e81b61affd846003600087815260200190815260200160002060000160009054906101000a900473ffffffffffffffffffffffffffffffffffffffff166040516108009291906130a7565b60405180910390a16003600085815260200190815260200160002060000160009054906101000a900473ffffffffffffffffffffffffffffffffffffffff1673ffffffffffffffffffffffffffffffffffffffff166108fc6002600360008881526020019081526020016000206005015461087b91906130ff565b9081150290604051600060405180830381858888f193505050501580156108a6573d6000803e3d6000fd5b505050610c7c565b60016003600086815260200190815260200160002060040160006101000a81548160ff0219169083151502179055507f84f8e1147ed860fdcb13c73d1ec1bf4aa9cded9250811ad1067ea2e81b61affd846003600087815260200190815260200160002060010160009054906101000a900473ffffffffffffffffffffffffffffffffffffffff166040516109449291906130a7565b60405180910390a16003600085815260200190815260200160002060010160009054906101000a900473ffffffffffffffffffffffffffffffffffffffff1673ffffffffffffffffffffffffffffffffffffffff166108fc600260036000888152602001908152602001600020600601546109bf91906130ff565b9081150290604051600060405180830381858888f193505050501580156109ea573d6000803e3d6000fd5b505050610c7c565b8115610b3c5760016003600086815260200190815260200160002060040160006101000a81548160ff0219169083151502179055507f84f8e1147ed860fdcb13c73d1ec1bf4aa9cded9250811ad1067ea2e81b61affd846003600087815260200190815260200160002060010160009054906101000a900473ffffffffffffffffffffffffffffffffffffffff16604051610a8e9291906130a7565b60405180910390a16003600085815260200190815260200160002060010160009054906101000a900473ffffffffffffffffffffffffffffffffffffffff1673ffffffffffffffffffffffffffffffffffffffff166108fc60026003600088815260200190815260200160002060060154610b0991906130ff565b9081150290604051600060405180830381858888f19350505050158015610b34573d6000803e3d6000fd5b505050610c7c565b60016003600086815260200190815260200160002060040160006101000a81548160ff0219169083151502179055507f84f8e1147ed860fdcb13c73d1ec1bf4aa9cded9250811ad1067ea2e81b61affd846003600087815260200190815260200160002060000160009054906101000a900473ffffffffffffffffffffffffffffffffffffffff16604051610bd29291906130a7565b60405180910390a16003600085815260200190815260200160002060000160009054906101000a900473ffffffffffffffffffffffffffffffffffffffff1673ffffffffffffffffffffffffffffffffffffffff166108fc60026003600088815260200190815260200160002060050154610c4d91906130ff565b9081150290604051600060405180830381858888f19350505050158015610c78573d6000803e3d6000fd5b5050505b5050565b565b6000821015610cc6576040517f08c379a0000000000000000000000000000000000000000000000000000000008152600401610cbd90612f5f565b60405180910390fd5b6000548210610d0a576040517f08c379a0000000000000000000000000000000000000000000000000000000008152600401610d0190612fcb565b60405180910390fd5b600015156003600084815260200190815260200160002060040160009054906101000a900460ff16151514610d74576040517f08c379a0000000000000000000000000000000000000000000000000000000008152600401610d6b90613037565b60405180910390fd5b3373ffffffffffffffffffffffffffffffffffffffff166003600084815260200190815260200160002060000160009054906101000a900473ffffffffffffffffffffffffffffffffffffffff1673ffffffffffffffffffffffffffffffffffffffff1614158015610e4857503373ffffffffffffffffffffffffffffffffffffffff166003600084815260200190815260200160002060010160009054906101000a900473ffffffffffffffffffffffffffffffffffffffff1673ffffffffffffffffffffffffffffffffffffffff1614155b6110a9576003600083815260200190815260200160002060060154600360008481526020019081526020016000206005015403610ea7576000600360008481526020019081526020016000206005015414610ea257600080fd5b610ee0565b6003600083815260200190815260200160002060060154600360008481526020019081526020016000206005015403610edf57600080fd5b5b3373ffffffffffffffffffffffffffffffffffffffff166003600084815260200190815260200160002060000160009054906101000a900473ffffffffffffffffffffffffffffffffffffffff1673ffffffffffffffffffffffffffffffffffffffff1603610f65578060036000848152602001908152602001600020600501819055505b3373ffffffffffffffffffffffffffffffffffffffff166003600084815260200190815260200160002060010160009054906101000a900473ffffffffffffffffffffffffffffffffffffffff1673ffffffffffffffffffffffffffffffffffffffff1603610fea578060036000848152602001908152602001600020600601819055505b7f2c7945bf3248598029aaee74e7a7c694cceba99c30ab722154f6e8315addb76933828460405161101d93929190613199565b60405180910390a160036000838152602001908152602001600020600601546003600084815260200190815260200160002060050154036110a8577f8cfe50bd5101dc31fd79c1afd658dc02788d2230e3db619e94293721c8db04c660036000848152602001908152602001600020600501548360405161109f9291906131d0565b60405180910390a15b5b5050565b60008210156110f1576040517f08c379a00000000000000000000000000000000000000000000000000000000081526004016110e890612f5f565b60405180910390fd5b6000548210611135576040517f08c379a000000000000000000000000000000000000000000000000000000000815260040161112c90612fcb565b60405180910390fd5b600015156003600084815260200190815260200160002060040160009054906101000a900460ff1615151461119f576040517f08c379a000000000000000000000000000000000000000000000000000000000815260040161119690613037565b60405180910390fd5b6003600083815260200190815260200160002060010160149054906101000a900460ff166003600084815260200190815260200160002060010160149054906101000a900460ff166111f191906131f9565b60ff168160ff161061120257600080fd5b3373ffffffffffffffffffffffffffffffffffffffff166003600084815260200190815260200160002060000160009054906101000a900473ffffffffffffffffffffffffffffffffffffffff1673ffffffffffffffffffffffffffffffffffffffff16141580156112d657503373ffffffffffffffffffffffffffffffffffffffff166003600084815260200190815260200160002060010160009054906101000a900473ffffffffffffffffffffffffffffffffffffffff1673ffffffffffffffffffffffffffffffffffffffff1614155b611314577fc280882498990ef85d0e9ab56571c30cb4dff4e685ce905f3caaac3ec98c6fb7828260405161130b929190613245565b60405180910390a15b5050565b7f72c5d3a1559eb2bbdb341b459f9be7a20ddd182562d779fc4decb64e69678de43360005460405161134b92919061326e565b60405180910390a133600360008054815260200190815260200160002060000160006101000a81548173ffffffffffffffffffffffffffffffffffffffff021916908373ffffffffffffffffffffffffffffffffffffffff1602179055506000600360008054815260200190815260200160002060010160006101000a81548173ffffffffffffffffffffffffffffffffffffffff021916908373ffffffffffffffffffffffffffffffffffffffff16021790555080600360008054815260200190815260200160002060010160146101000a81548160ff021916908360ff1602179055506000600360008054815260200190815260200160002060040160006101000a81548160ff021916908315150217905550600060036000805481526020019081526020016000206005018190555060006003600080548152602001908152602001600020600601819055506000801b6003600080548152602001908152602001600020600201819055506000801b6003600080548152602001908152602001600020600301819055506000600360008054815260200190815260200160002060070160006101000a81548160ff0219169083151502179055506000600360008054815260200190815260200160002060070160016101000a81548160ff021916908315150217905550600260009054906101000a900460ff16600360008054815260200190815260200160002060070160026101000a81548160ff021916908360ff160217905550600260009054906101000a900460ff16600360008054815260200190815260200160002060070160036101000a81548160ff021916908360ff1602179055506000808154809291906115c890613297565b9190505550600160008154809291906115e090613297565b919050555050565b600081101561162c576040517f08c379a000000000000000000000000000000000000000000000000000000000815260040161162390612f5f565b60405180910390fd5b6000548110611670576040517f08c379a000000000000000000000000000000000000000000000000000000000815260040161166790612fcb565b60405180910390fd5b600015156003600083815260200190815260200160002060040160009054906101000a900460ff161515146116da576040517f08c379a00000000000000000000000000000000000000000000000000000000081526004016116d190613037565b60405180910390fd5b3373ffffffffffffffffffffffffffffffffffffffff166003600083815260200190815260200160002060000160009054906101000a900473ffffffffffffffffffffffffffffffffffffffff1673ffffffffffffffffffffffffffffffffffffffff160361179157346003600083815260200190815260200160002060050154036117905760016003600083815260200190815260200160002060070160006101000a81548160ff0219169083151502179055505b5b3373ffffffffffffffffffffffffffffffffffffffff166003600083815260200190815260200160002060010160009054906101000a900473ffffffffffffffffffffffffffffffffffffffff1673ffffffffffffffffffffffffffffffffffffffff160361184857346003600083815260200190815260200160002060050154036118475760016003600083815260200190815260200160002060070160016101000a81548160ff0219169083151502179055505b5b6003600082815260200190815260200160002060070160009054906101000a900460ff16801561189857506003600082815260200190815260200160002060070160019054906101000a900460ff165b156118d5577f89d296e0b0d0ef2bd13830476724f0af14967da173593250e67e6924f1f9163a816040516118cc91906132df565b60405180910390a15b50565b600084101561191c576040517f08c379a000000000000000000000000000000000000000000000000000000000815260040161191390612f5f565b60405180910390fd5b6000548410611960576040517f08c379a000000000000000000000000000000000000000000000000000000000815260040161195790612fcb565b60405180910390fd5b600015156003600086815260200190815260200160002060040160009054906101000a900460ff161515146119ca576040517f08c379a00000000000000000000000000000000000000000000000000000000081526004016119c190613037565b60405180910390fd5b3373ffffffffffffffffffffffffffffffffffffffff166003600086815260200190815260200160002060000160009054906101000a900473ffffffffffffffffffffffffffffffffffffffff1673ffffffffffffffffffffffffffffffffffffffff1614158015611a9e57503373ffffffffffffffffffffffffffffffffffffffff166003600086815260200190815260200160002060010160009054906101000a900473ffffffffffffffffffffffffffffffffffffffff1673ffffffffffffffffffffffffffffffffffffffff1614155b612224576000819050600083600081518110611abd57611abc613141565b5b602002602001015190506000600190505b8451811015611bc7576000600284611ae69190613329565b60ff1603611b5f57848181518110611b0157611b00613141565b5b60200260200101518214611b595781858281518110611b2357611b22613141565b5b6020026020010151604051602001611b3c92919061337b565b604051602081830303815290604052805190602001209150611b5a565b5b611ba5565b848181518110611b7257611b71613141565b5b602002602001015182604051602001611b8c92919061337b565b6040516020818303038152906040528051906020012091505b600283611bb291906133a7565b92508080611bbf90613297565b915050611ace565b503373ffffffffffffffffffffffffffffffffffffffff166003600088815260200190815260200160002060000160009054906101000a900473ffffffffffffffffffffffffffffffffffffffff1673ffffffffffffffffffffffffffffffffffffffff1603611ef65780600360008881526020019081526020016000206002015414611dc25760006003600088815260200190815260200160002060070160026101000a81548160ff021916908360ff16021790555060016003600088815260200190815260200160002060040160006101000a81548160ff0219169083151502179055507f84f8e1147ed860fdcb13c73d1ec1bf4aa9cded9250811ad1067ea2e81b61affd866003600089815260200190815260200160002060010160009054906101000a900473ffffffffffffffffffffffffffffffffffffffff16604051611d149291906130a7565b60405180910390a16003600087815260200190815260200160002060010160009054906101000a900473ffffffffffffffffffffffffffffffffffffffff1673ffffffffffffffffffffffffffffffffffffffff166108fc6002600360008a815260200190815260200160002060050154611d8f91906130ff565b9081150290604051600060405180830381858888f19350505050158015611dba573d6000803e3d6000fd5b505050612224565b60018560ff1603611e1a5760036000878152602001908152602001600020600701600281819054906101000a900460ff1680929190611e00906133d8565b91906101000a81548160ff021916908360ff160217905550505b7f947c83f89088f787849558a38428bf2c2f946698539be2a66a0cac7cc199606c8686604051611e4b929190613245565b60405180910390a160006003600088815260200190815260200160002060070160029054906101000a900460ff1660ff1603611ef1577ff942afe004c76075b0ad49c8a2697d28413e511e135ed6576d2513d9ef0bf5f2866003600089815260200190815260200160002060000160009054906101000a900473ffffffffffffffffffffffffffffffffffffffff16604051611ee89291906130a7565b60405180910390a15b612221565b3373ffffffffffffffffffffffffffffffffffffffff166003600088815260200190815260200160002060010160009054906101000a900473ffffffffffffffffffffffffffffffffffffffff1673ffffffffffffffffffffffffffffffffffffffff160361222057806003600088815260200190815260200160002060030154146120f05760006003600088815260200190815260200160002060070160036101000a81548160ff021916908360ff16021790555060016003600088815260200190815260200160002060040160006101000a81548160ff0219169083151502179055507f84f8e1147ed860fdcb13c73d1ec1bf4aa9cded9250811ad1067ea2e81b61affd866003600089815260200190815260200160002060000160009054906101000a900473ffffffffffffffffffffffffffffffffffffffff166040516120429291906130a7565b60405180910390a16003600087815260200190815260200160002060000160009054906101000a900473ffffffffffffffffffffffffffffffffffffffff1673ffffffffffffffffffffffffffffffffffffffff166108fc6002600360008a8152602001908152602001600020600501546120bd91906130ff565b9081150290604051600060405180830381858888f193505050501580156120e8573d6000803e3d6000fd5b505050612224565b60018560ff16036121485760036000878152602001908152602001600020600701600381819054906101000a900460ff168092919061212e906133d8565b91906101000a81548160ff021916908360ff160217905550505b7f947c83f89088f787849558a38428bf2c2f946698539be2a66a0cac7cc199606c8686604051612179929190613245565b60405180910390a160006003600088815260200190815260200160002060070160039054906101000a900460ff1660ff160361221f577ff942afe004c76075b0ad49c8a2697d28413e511e135ed6576d2513d9ef0bf5f2866003600089815260200190815260200160002060000160009054906101000a900473ffffffffffffffffffffffffffffffffffffffff166040516122169291906130a7565b60405180910390a15b5b5b50505b50505050565b600054821061223857600080fd5b6000821161224557600080fd5b600015156003600084815260200190815260200160002060040160009054906101000a900460ff161515146122af576040517f08c379a00000000000000000000000000000000000000000000000000000000081526004016122a690613037565b60405180910390fd5b3373ffffffffffffffffffffffffffffffffffffffff166003600084815260200190815260200160002060000160009054906101000a900473ffffffffffffffffffffffffffffffffffffffff1673ffffffffffffffffffffffffffffffffffffffff1603612334578060036000848152602001908152602001600020600201819055505b3373ffffffffffffffffffffffffffffffffffffffff166003600084815260200190815260200160002060010160009054906101000a900473ffffffffffffffffffffffffffffffffffffffff1673ffffffffffffffffffffffffffffffffffffffff16036123b9578060036000848152602001908152602001600020600301819055505b6000801b6003600084815260200190815260200160002060020154141580156123fb57506000801b600360008481526020019081526020016000206003015414155b15612438577f12333b322723ec26360eb708b341801ecca576387b55caa77d6e408107d2c70f8260405161242f91906132df565b60405180910390a15b5050565b6000811015612480576040517f08c379a000000000000000000000000000000000000000000000000000000000815260040161247790612f5f565b60405180910390fd5b60005481106124c4576040517f08c379a00000000000000000000000000000000000000000000000000000000081526004016124bb90612fcb565b60405180910390fd5b600060015411612509576040517f08c379a00000000000000000000000000000000000000000000000000000000081526004016125009061344d565b60405180910390fd5b600015156003600083815260200190815260200160002060040160009054906101000a900460ff16151514612573576040517f08c379a000000000000000000000000000000000000000000000000000000000815260040161256a90613037565b60405180910390fd5b600081036127e457600060014361258a919061346d565b4090506000602067ffffffffffffffff8111156125aa576125a9612a94565b5b6040519080825280601f01601f1916602001820160405280156125dc5781602001600182028036833780820191505090505b50905060005b6020811015612657578281602081106125fe576125fd613141565b5b1a60f81b82828151811061261557612614613141565b5b60200101907effffffffffffffffffffffffffffffffffffffffffffffffffffffffffffff1916908160001a905350808061264f90613297565b9150506125e2565b506000818051906020012090506000600180548360001c61267891906134a1565b61268291906134d2565b90506000600190505b60005481101561279757600082031561279757600073ffffffffffffffffffffffffffffffffffffffff166003600083815260200190815260200160002060010160009054906101000a900473ffffffffffffffffffffffffffffffffffffffff1673ffffffffffffffffffffffffffffffffffffffff160361278457818061271390613506565b9250503373ffffffffffffffffffffffffffffffffffffffff166003600083815260200190815260200160002060000160009054906101000a900473ffffffffffffffffffffffffffffffffffffffff1673ffffffffffffffffffffffffffffffffffffffff1614612783578095505b5b808061278f90613297565b91505061268b565b50600085036127db576040517f08c379a00000000000000000000000000000000000000000000000000000000081526004016127d29061357b565b60405180910390fd5b5050505061292e565b3373ffffffffffffffffffffffffffffffffffffffff166003600083815260200190815260200160002060000160009054906101000a900473ffffffffffffffffffffffffffffffffffffffff1673ffffffffffffffffffffffffffffffffffffffff1603612888576040517f08c379a000000000000000000000000000000000000000000000000000000000815260040161287f906135e7565b60405180910390fd5b600073ffffffffffffffffffffffffffffffffffffffff166003600083815260200190815260200160002060010160009054906101000a900473ffffffffffffffffffffffffffffffffffffffff1673ffffffffffffffffffffffffffffffffffffffff161461292d576040517f08c379a000000000000000000000000000000000000000000000000000000000815260040161292490613653565b60405180910390fd5b5b336003600083815260200190815260200160002060010160006101000a81548173ffffffffffffffffffffffffffffffffffffffff021916908373ffffffffffffffffffffffffffffffffffffffff1602179055506001600081548092919061299690613506565b91905055507f276a7f782d740627e426973b863f244fee07739e8e648ddc3cb52485808b04d36003600083815260200190815260200160002060000160009054906101000a900473ffffffffffffffffffffffffffffffffffffffff1633836003600086815260200190815260200160002060010160149054906101000a900460ff16604051612a299493929190613673565b60405180910390a150565b6000604051905090565b600080fd5b600080fd5b6000819050919050565b612a5b81612a48565b8114612a6657600080fd5b50565b600081359050612a7881612a52565b92915050565b600080fd5b6000601f19601f8301169050919050565b7f4e487b7100000000000000000000000000000000000000000000000000000000600052604160045260246000fd5b612acc82612a83565b810181811067ffffffffffffffff82111715612aeb57612aea612a94565b5b80604052505050565b6000612afe612a34565b9050612b0a8282612ac3565b919050565b600067ffffffffffffffff821115612b2a57612b29612a94565b5b602082029050602081019050919050565b600080fd5b600060ff82169050919050565b612b5681612b40565b8114612b6157600080fd5b50565b600081359050612b7381612b4d565b92915050565b6000612b8c612b8784612b0f565b612af4565b90508083825260208201905060208402830185811115612baf57612bae612b3b565b5b835b81811015612bd85780612bc48882612b64565b845260208401935050602081019050612bb1565b5050509392505050565b600082601f830112612bf757612bf6612a7e565b5b8135612c07848260208601612b79565b91505092915050565b60008060408385031215612c2757612c26612a3e565b5b6000612c3585828601612a69565b925050602083013567ffffffffffffffff811115612c5657612c55612a43565b5b612c6285828601612be2565b9150509250929050565b60008060408385031215612c8357612c82612a3e565b5b6000612c9185828601612a69565b9250506020612ca285828601612a69565b9150509250929050565b60008060408385031215612cc357612cc2612a3e565b5b6000612cd185828601612a69565b9250506020612ce285828601612b64565b9150509250929050565b600060208284031215612d0257612d01612a3e565b5b6000612d1084828501612b64565b91505092915050565b600060208284031215612d2f57612d2e612a3e565b5b6000612d3d84828501612a69565b91505092915050565b600067ffffffffffffffff821115612d6157612d60612a94565b5b602082029050602081019050919050565b6000819050919050565b612d8581612d72565b8114612d9057600080fd5b50565b600081359050612da281612d7c565b92915050565b6000612dbb612db684612d46565b612af4565b90508083825260208201905060208402830185811115612dde57612ddd612b3b565b5b835b81811015612e075780612df38882612d93565b845260208401935050602081019050612de0565b5050509392505050565b600082601f830112612e2657612e25612a7e565b5b8135612e36848260208601612da8565b91505092915050565b60008060008060808587031215612e5957612e58612a3e565b5b6000612e6787828801612a69565b9450506020612e7887828801612b64565b935050604085013567ffffffffffffffff811115612e9957612e98612a43565b5b612ea587828801612e11565b9250506060612eb687828801612b64565b91505092959194509250565b60008060408385031215612ed957612ed8612a3e565b5b6000612ee785828601612a69565b9250506020612ef885828601612d93565b9150509250929050565b600082825260208201905092915050565b7f4944206d7573742062652067726561746572207468616e203000000000000000600082015250565b6000612f49601983612f02565b9150612f5482612f13565b602082019050919050565b60006020820190508181036000830152612f7881612f3c565b9050919050565b7f47616d65206e6f74206f70656e00000000000000000000000000000000000000600082015250565b6000612fb5600d83612f02565b9150612fc082612f7f565b602082019050919050565b60006020820190508181036000830152612fe481612fa8565b9050919050565b7f5468652067616d65206973206f76657200000000000000000000000000000000600082015250565b6000613021601083612f02565b915061302c82612feb565b602082019050919050565b6000602082019050818103600083015261305081613014565b9050919050565b61306081612a48565b82525050565b600073ffffffffffffffffffffffffffffffffffffffff82169050919050565b600061309182613066565b9050919050565b6130a181613086565b82525050565b60006040820190506130bc6000830185613057565b6130c96020830184613098565b9392505050565b7f4e487b7100000000000000000000000000000000000000000000000000000000600052601160045260246000fd5b600061310a82612a48565b915061311583612a48565b925082820261312381612a48565b9150828204841483151761313a576131396130d0565b5b5092915050565b7f4e487b7100000000000000000000000000000000000000000000000000000000600052603260045260246000fd5b600061317b82612b40565b915060ff820361318e5761318d6130d0565b5b600182019050919050565b60006060820190506131ae6000830186613098565b6131bb6020830185613057565b6131c86040830184613057565b949350505050565b60006040820190506131e56000830185613057565b6131f26020830184613057565b9392505050565b600061320482612b40565b915061320f83612b40565b925082820261321d81612b40565b915080821461322f5761322e6130d0565b5b5092915050565b61323f81612b40565b82525050565b600060408201905061325a6000830185613057565b6132676020830184613236565b9392505050565b60006040820190506132836000830185613098565b6132906020830184613057565b9392505050565b60006132a282612a48565b91507fffffffffffffffffffffffffffffffffffffffffffffffffffffffffffffffff82036132d4576132d36130d0565b5b600182019050919050565b60006020820190506132f46000830184613057565b92915050565b7f4e487b7100000000000000000000000000000000000000000000000000000000600052601260045260246000fd5b600061333482612b40565b915061333f83612b40565b92508261334f5761334e6132fa565b5b828206905092915050565b6000819050919050565b61337561337082612d72565b61335a565b82525050565b60006133878285613364565b6020820191506133978284613364565b6020820191508190509392505050565b60006133b282612b40565b91506133bd83612b40565b9250826133cd576133cc6132fa565b5b828204905092915050565b60006133e382612b40565b9150600082036133f6576133f56130d0565b5b600182039050919050565b7f4e6f2067616d657320617661696c61626c650000000000000000000000000000600082015250565b6000613437601283612f02565b915061344282613401565b602082019050919050565b600060208201905081810360008301526134668161342a565b9050919050565b600061347882612a48565b915061348383612a48565b925082820390508181111561349b5761349a6130d0565b5b92915050565b60006134ac82612a48565b91506134b783612a48565b9250826134c7576134c66132fa565b5b828206905092915050565b60006134dd82612a48565b91506134e883612a48565b9250828201905080821115613500576134ff6130d0565b5b92915050565b600061351182612a48565b915060008203613524576135236130d0565b5b600182039050919050565b7f4d61746368206e6f7420666f756e640000000000000000000000000000000000600082015250565b6000613565600f83612f02565b91506135708261352f565b602082019050919050565b6000602082019050818103600083015261359481613558565b9050919050565b7f596f752063616e6e6f74206a6f696e20796f7572206f776e2067616d65000000600082015250565b60006135d1601d83612f02565b91506135dc8261359b565b602082019050919050565b60006020820190508181036000830152613600816135c4565b9050919050565b7f47616d6520616c7265616479206861732074776f20706c617965727300000000600082015250565b600061363d601c83612f02565b915061364882613607565b602082019050919050565b6000602082019050818103600083015261366c81613630565b9050919050565b60006080820190506136886000830187613098565b6136956020830186613098565b6136a26040830185613057565b6136af6060830184613236565b9594505050505056fea2646970667358221220a70d7801b8d1bfba275567d7d678b48a65d2f644eda2985ca31ed61cacc7491364736f6c63430008130033",
  "immutableReferences": {},
  "source": "// SPDX-License-Identifier: MIT\npragma solidity >=0.4.22 <0.9.0;\n\ncontract Battleship {\n  uint256 private nextGameID = 1;\n  uint256 private counter = 0;  //conta il numero di partite aperte\n  uint8 shipNumber = 2;\n\n  struct Game {\n    address player;\n    address enemy;    //address(0): non c' il giocatore\n    uint8 boardDimension;\n    bytes32 playerGridHash;\n    bytes32 enemyGridHash;\n    bool ended;       //false: la partita non  finita; true: la partita  finita\n    uint playerOffer;\n    uint enemyOffer;\n    bool playerPay;   //false: il giocatore non ha pagato\n    bool enemyPay;    //false: enemy non ha pagato\n    uint8 playerHitSum; \n    uint8 enemyHitSum;\n  }\n\n  mapping (uint256 => Game) private games;\n  event NewGameCreated(address player, uint256 idGame);\n  event JoinedGame(address player, address enemy, uint256 idGame, uint8 boardDimension);\n  event OfferReceived(address bidder, uint offer, uint256 idGame);\n  event CommonOffer(uint offer, uint256 idGame);\n  event SetGame(uint256 idGame);\n  event StartGame(uint256 idGame);\n  event AttackedCell(uint256 idGame, uint8 cell);\n  event AttackResponse(uint256 idGame, uint8 response);\n  event EndGame(uint256 idGame, address winner);\n  event ReceiveBoard(uint256 idGame, address check);\n\n  function newGame(uint8 dimension) public {\n    emit NewGameCreated(msg.sender, nextGameID);\n    games[nextGameID].player = msg.sender;\n    games[nextGameID].enemy = address(0);\n    games[nextGameID].boardDimension = dimension;\n    games[nextGameID].ended = false;\n    games[nextGameID].playerOffer = 0;\n    games[nextGameID].enemyOffer = 0;\n    games[nextGameID].playerGridHash = 0;\n    games[nextGameID].enemyGridHash = 0;\n    games[nextGameID].playerPay = false;\n    games[nextGameID].enemyPay = false;\n    games[nextGameID].playerHitSum = shipNumber;\n    games[nextGameID].enemyHitSum = shipNumber;\n    nextGameID++;\n    counter++;\n  }\n\n  function joinGame(uint256 gameId) public {   //gestisce sia il random che non\n    require(gameId >= 0, \"ID must be greater than 0\");\n    require(gameId < nextGameID, \"Game not open\");\n    require(counter > 0, \"No games available\");\n    require(games[gameId].ended == false, \"The game is over\");\n\n    //randomness\n    if(gameId == 0) {\n      bytes32 bhash = blockhash(block.number - 1);\n      bytes memory bytesArray = new bytes(32);\n      for (uint i; i < 32; i++) {\n          bytesArray[i] = bhash[i];\n      }\n      bytes32 rand = keccak256(bytesArray);\n      uint256 index = uint256(rand) % counter + 1;\n\n      for(uint256 j = 1; j < nextGameID; j++) {\n        if(index == 0) {\n          break;\n        }\n        if(games[j].enemy == address(0)) {\n          index--;\n          if(games[j].player != msg.sender)   //un giocatore non pu unirsi alla sua stessa partita\n            gameId = j;\n        }\n      }\n      if(gameId == 0)\n        revert(\"Match not found\");\n    }\n    //not random\n    else {\n      if(games[gameId].player == msg.sender)\n        revert(\"You cannot join your own game\"); \n      if(games[gameId].enemy != address(0))\n        revert(\"Game already has two players\");      \n    }\n    games[gameId].enemy = msg.sender;\n    counter--;\n    emit JoinedGame(games[gameId].player, msg.sender, gameId, games[gameId].boardDimension);\n  } \n\n  function bet(uint256 gameId, uint offer) public {\n    require(gameId >= 0, \"ID must be greater than 0\");\n    require(gameId < nextGameID, \"Game not open\");\n    require(games[gameId].ended == false, \"The game is over\");\n    if (games[gameId].player != msg.sender && games[gameId].enemy != msg.sender)\n      return;\n    \n    if (games[gameId].playerOffer == games[gameId].enemyOffer) require(games[gameId].playerOffer == 0);\n    else require(games[gameId].playerOffer != games[gameId].enemyOffer);\n\n    if (games[gameId].player == msg.sender) games[gameId].playerOffer = offer;\n    if (games[gameId].enemy == msg.sender) games[gameId].enemyOffer = offer;\n\n    emit OfferReceived(msg.sender, offer, gameId);\n\n    if (games[gameId].playerOffer == games[gameId].enemyOffer)\n      emit CommonOffer(games[gameId].playerOffer, gameId);\n\n  }\n\n  function pay(uint256 gameId) public payable {\n    require(gameId >= 0, \"ID must be greater than 0\");\n    require(gameId < nextGameID, \"Game not open\");\n    require(games[gameId].ended == false, \"The game is over\");  \n\n    if (games[gameId].player == msg.sender) {\n      if(games[gameId].playerOffer == msg.value)\n        games[gameId].playerPay = true;\n    }\n    if (games[gameId].enemy == msg.sender) {\n      if(games[gameId].playerOffer == msg.value)\n        games[gameId].enemyPay = true;\n    }\n    \n    if(games[gameId].playerPay && games[gameId].enemyPay) emit SetGame(gameId);\n  }\n\n  function attack(uint256 gameID, uint8 cellID) public {\n    require(gameID >= 0, \"ID must be greater than 0\");\n    require(gameID < nextGameID, \"Game not open\");\n    require(games[gameID].ended == false, \"The game is over\");\n    require(cellID < games[gameID].boardDimension * games[gameID].boardDimension);\n    if (games[gameID].player != msg.sender && games[gameID].enemy != msg.sender)\n      return;\n\n    emit AttackedCell(gameID, cellID);\n  }\n\n  function attackResponse(uint256 gameID, uint8 value, bytes32[] memory merkleProof, uint8 cellID) public payable{\n    require(gameID >= 0, \"ID must be greater than 0\");\n    require(gameID < nextGameID, \"Game not open\");\n    require(games[gameID].ended == false, \"The game is over\");\n    if (games[gameID].player != msg.sender && games[gameID].enemy != msg.sender)\n      return;\n\n    uint8 target = cellID;\n    bytes32 proofRoot = merkleProof[0];\n    for(uint i = 1; i < merkleProof.length; i++) {\n      if(target%2 == 0) {\n        if(proofRoot != merkleProof[i])\n          proofRoot = keccak256(abi.encodePacked(proofRoot, merkleProof[i]));\n        else\n          proofRoot = proofRoot;\n      }\n      else\n        proofRoot = keccak256(abi.encodePacked(merkleProof[i], proofRoot));\n      \n      target = target / 2;\n    }\n\n    if (games[gameID].player == msg.sender) {\n      if(games[gameID].playerGridHash != proofRoot) { //player is cheater\n        games[gameID].playerHitSum = 0;\n        games[gameID].ended = true;\n        emit EndGame(gameID, games[gameID].enemy);\n        payable(games[gameID].enemy).transfer(games[gameID].playerOffer * 2);\n        return;\n      }\n      if(value == 1) \n        games[gameID].playerHitSum--;\n      emit AttackResponse(gameID, value);\n\n      if(games[gameID].playerHitSum == 0)\n        emit ReceiveBoard(gameID, games[gameID].player);\n    }\n    else if (games[gameID].enemy == msg.sender) {\n      if(games[gameID].enemyGridHash != proofRoot) {  //enemy is cheater\n        games[gameID].enemyHitSum = 0;\n        games[gameID].ended = true;\n        emit EndGame(gameID, games[gameID].player);\n        payable(games[gameID].player).transfer(games[gameID].playerOffer * 2);\n        return;\n      }\n      if(value == 1) \n        games[gameID].enemyHitSum--;\n      emit AttackResponse(gameID, value);\n\n      if(games[gameID].enemyHitSum == 0)\n        emit ReceiveBoard(gameID, games[gameID].player);\n    }\n    \n  }\n\n  function checkWinner(uint256 gameID, uint8[] memory winnerBoard) public payable {\n    require(gameID >= 0, \"ID must be greater than 0\");\n    require(gameID < nextGameID, \"Game not open\");\n    require(games[gameID].ended == false, \"The game is over\");\n    if (games[gameID].player != msg.sender && games[gameID].enemy != msg.sender)\n      return;\n\n    //Controllo che non sia stata chiamata per imbrogliare\n    bool caller = false;  //false: enemy; true: player\n    if (games[gameID].player == msg.sender) caller = true;\n\n    if(caller) {\n      if(games[gameID].enemyHitSum > 0) {           //non ho abbattuto tutte le navi del nemico\n        games[gameID].ended = true;\n        emit EndGame(gameID, games[gameID].enemy);\n        payable(games[gameID].enemy).transfer(games[gameID].enemyOffer * 2);\n        return;\n      }\n    }\n    else {\n      if(games[gameID].playerHitSum > 0) {          //non ho abbattuto tutte le navi del player\n        games[gameID].ended = true;\n        emit EndGame(gameID, games[gameID].player);\n        payable(games[gameID].player).transfer(games[gameID].playerOffer * 2);\n        return;\n      }\n    }\n    uint8 shipsOnBoard = 0;\n    for(uint8 i = 0; i < winnerBoard.length; i++) {\n      if(winnerBoard[i] == 1) \n        shipsOnBoard++;\n    }\n    \n    if(shipsOnBoard == shipNumber) {\n      if(caller) {\n        games[gameID].ended = true;\n        emit EndGame(gameID, games[gameID].player);\n        payable(games[gameID].player).transfer(games[gameID].playerOffer * 2);\n        return;\n      }\n      else {\n        games[gameID].ended = true;\n        emit EndGame(gameID, games[gameID].enemy);\n        payable(games[gameID].enemy).transfer(games[gameID].enemyOffer * 2);\n        return;\n      }\n    }\n    else {\n      if(caller) {\n        games[gameID].ended = true;\n        emit EndGame(gameID, games[gameID].enemy);\n        payable(games[gameID].enemy).transfer(games[gameID].enemyOffer * 2);\n        return;\n      }\n      else {\n        games[gameID].ended = true;\n        emit EndGame(gameID, games[gameID].player);\n        payable(games[gameID].player).transfer(games[gameID].playerOffer * 2);\n        return;\n      }\n    }\n\n  }\n\n  function afkPlayer() public {}\n\n  function board(uint256 gameID, bytes32 boardHash) public {\n    require(gameID < nextGameID);\n    require(gameID > 0);\n    require(games[gameID].ended == false, \"The game is over\");\n    \n    if (games[gameID].player == msg.sender) games[gameID].playerGridHash = boardHash;\n    if (games[gameID].enemy == msg.sender) games[gameID].enemyGridHash = boardHash;\n    \n    if(games[gameID].playerGridHash != 0 && games[gameID].enemyGridHash != 0) emit StartGame(gameID);\n  }\n\n}",
  "sourcePath": "/home/luca/block/solidity_projects/project/contracts/Battleship.sol",
  "compiler": {
    "name": "solc",
    "version": "0.8.19+commit.7dd6d404.Emscripten.clang"
  },
  "schemaVersion": "3.4.13",
  "updatedAt": "2023-06-09T07:57:51.526Z",
  "networkType": "ethereum",
  "devdoc": {
    "kind": "dev",
    "methods": {},
    "version": 1
  },
  "userdoc": {
    "kind": "user",
    "methods": {},
    "version": 1
  }
}