{
  "contractName": "Battleship",
  "abi": [
    {
      "anonymous": false,
      "inputs": [
        {
          "indexed": false,
          "internalType": "uint256",
          "name": "idGame",
          "type": "uint256"
        }
      ],
      "name": "NewGameCreated",
      "type": "event"
    },
    {
      "inputs": [],
      "name": "newGame",
      "outputs": [],
      "stateMutability": "nonpayable",
      "type": "function"
    },
    {
      "inputs": [
        {
          "internalType": "uint256",
          "name": "gameId",
          "type": "uint256"
        }
      ],
      "name": "joinGame",
      "outputs": [],
      "stateMutability": "nonpayable",
      "type": "function"
    },
    {
      "inputs": [],
      "name": "attack",
      "outputs": [],
      "stateMutability": "nonpayable",
      "type": "function"
    },
    {
      "inputs": [],
      "name": "afkPlayer",
      "outputs": [],
      "stateMutability": "nonpayable",
      "type": "function"
    }
  ],
  "bytecode": "0x6080604052600160005534801561001557600080fd5b50610223806100256000396000f3fe608060405234801561001057600080fd5b506004361061004c5760003560e01c80634c73207b146100515780637d03f5f31461005b5780639e5faafc14610065578063efaa55a01461006f575b600080fd5b61005961008b565b005b61006361008d565b005b61006d6100df565b005b6100896004803603810190610084919061011f565b6100e1565b005b565b7f40cd4960d42a9ef161fc5f47c7be8e95bbdf4ef5f7d149743de8787b224fa67c6000546040516100be919061015b565b60405180910390a16000808154809291906100d8906101a5565b9190505550565b565b50565b600080fd5b6000819050919050565b6100fc816100e9565b811461010757600080fd5b50565b600081359050610119816100f3565b92915050565b600060208284031215610135576101346100e4565b5b60006101438482850161010a565b91505092915050565b610155816100e9565b82525050565b6000602082019050610170600083018461014c565b92915050565b7f4e487b7100000000000000000000000000000000000000000000000000000000600052601160045260246000fd5b60006101b0826100e9565b91507fffffffffffffffffffffffffffffffffffffffffffffffffffffffffffffffff82036101e2576101e1610176565b5b60018201905091905056fea264697066735822122078b72ec08d62a2e43cf0a4445e1b906db8165a49434a63b1def8acec61616d2b64736f6c63430008130033",
  "immutableReferences": {},
  "source": "// SPDX-License-Identifier: MIT\npragma solidity >=0.4.22 <0.9.0;\n\ncontract Battleship {\n  uint8 constant GRID_SIZE = 10;\n  uint256 private nextGameID = 1;\n\n  struct Game {\n    bytes32 playerGridHash;\n    bytes32 enemyGridHash;\n    bool open;        //=0 ci sono due giocatori; =1 c'è un giocatore\n    bool ended;       //=0 la partita non è finita; =1 la partita è finita\n  }\n\n  mapping (uint256 => Game) private games;\n  event NewGameCreated(uint256 idGame);\n\n  function newGame() public {\n    emit NewGameCreated(nextGameID);\n    nextGameID++;\n  }\n\n  function joinGame(uint gameId) public {} //gestisce sia il random che non\n\n  function attack() public{}\n\n  function checkWinner() private {}\n\n  function endGame() private {}\n\n  function afkPlayer() public {}\n}\n",
  "sourcePath": "/home/luca/block/solidity_projects/project/contracts/Battleship.sol",
  "compiler": {
    "name": "solc",
    "version": "0.8.19+commit.7dd6d404.Emscripten.clang"
  },
  "schemaVersion": "3.4.13",
  "updatedAt": "2023-05-20T14:29:56.699Z",
  "networkType": "ethereum",
  "devdoc": {
    "kind": "dev",
    "methods": {},
    "version": 1
  },
  "userdoc": {
    "kind": "user",
    "methods": {},
    "version": 1
  }
}