{
  "contractName": "Battleship",
  "abi": [
    {
      "anonymous": false,
      "inputs": [
        {
          "indexed": false,
          "internalType": "uint256",
          "name": "idGame",
          "type": "uint256"
        },
        {
          "indexed": false,
          "internalType": "uint8",
          "name": "response",
          "type": "uint8"
        }
      ],
      "name": "AttackResponse",
      "type": "event"
    },
    {
      "anonymous": false,
      "inputs": [
        {
          "indexed": false,
          "internalType": "uint256",
          "name": "idGame",
          "type": "uint256"
        },
        {
          "indexed": false,
          "internalType": "uint8",
          "name": "cell",
          "type": "uint8"
        }
      ],
      "name": "AttackedCell",
      "type": "event"
    },
    {
      "anonymous": false,
      "inputs": [
        {
          "indexed": false,
          "internalType": "uint256",
          "name": "offer",
          "type": "uint256"
        },
        {
          "indexed": false,
          "internalType": "uint256",
          "name": "idGame",
          "type": "uint256"
        }
      ],
      "name": "CommonOffer",
      "type": "event"
    },
    {
      "anonymous": false,
      "inputs": [
        {
          "indexed": false,
          "internalType": "uint256",
          "name": "idGame",
          "type": "uint256"
        },
        {
          "indexed": false,
          "internalType": "address",
          "name": "winner",
          "type": "address"
        }
      ],
      "name": "EndGame",
      "type": "event"
    },
    {
      "anonymous": false,
      "inputs": [
        {
          "indexed": false,
          "internalType": "address",
          "name": "player",
          "type": "address"
        },
        {
          "indexed": false,
          "internalType": "address",
          "name": "enemy",
          "type": "address"
        },
        {
          "indexed": false,
          "internalType": "uint256",
          "name": "idGame",
          "type": "uint256"
        },
        {
          "indexed": false,
          "internalType": "uint8",
          "name": "boardDimension",
          "type": "uint8"
        }
      ],
      "name": "JoinedGame",
      "type": "event"
    },
    {
      "anonymous": false,
      "inputs": [
        {
          "indexed": false,
          "internalType": "address",
          "name": "player",
          "type": "address"
        },
        {
          "indexed": false,
          "internalType": "uint256",
          "name": "idGame",
          "type": "uint256"
        }
      ],
      "name": "NewGameCreated",
      "type": "event"
    },
    {
      "anonymous": false,
      "inputs": [
        {
          "indexed": false,
          "internalType": "address",
          "name": "bidder",
          "type": "address"
        },
        {
          "indexed": false,
          "internalType": "uint256",
          "name": "offer",
          "type": "uint256"
        },
        {
          "indexed": false,
          "internalType": "uint256",
          "name": "idGame",
          "type": "uint256"
        }
      ],
      "name": "OfferReceived",
      "type": "event"
    },
    {
      "anonymous": false,
      "inputs": [
        {
          "indexed": false,
          "internalType": "uint256",
          "name": "idGame",
          "type": "uint256"
        },
        {
          "indexed": false,
          "internalType": "address",
          "name": "check",
          "type": "address"
        }
      ],
      "name": "ReceiveBoard",
      "type": "event"
    },
    {
      "anonymous": false,
      "inputs": [
        {
          "indexed": false,
          "internalType": "uint256",
          "name": "idGame",
          "type": "uint256"
        }
      ],
      "name": "SetGame",
      "type": "event"
    },
    {
      "anonymous": false,
      "inputs": [
        {
          "indexed": false,
          "internalType": "uint256",
          "name": "idGame",
          "type": "uint256"
        }
      ],
      "name": "StartGame",
      "type": "event"
    },
    {
      "inputs": [
        {
          "internalType": "uint8",
          "name": "dimension",
          "type": "uint8"
        }
      ],
      "name": "newGame",
      "outputs": [],
      "stateMutability": "nonpayable",
      "type": "function"
    },
    {
      "inputs": [
        {
          "internalType": "uint256",
          "name": "gameId",
          "type": "uint256"
        }
      ],
      "name": "joinGame",
      "outputs": [],
      "stateMutability": "nonpayable",
      "type": "function"
    },
    {
      "inputs": [
        {
          "internalType": "uint256",
          "name": "gameId",
          "type": "uint256"
        },
        {
          "internalType": "uint256",
          "name": "offer",
          "type": "uint256"
        }
      ],
      "name": "bet",
      "outputs": [],
      "stateMutability": "nonpayable",
      "type": "function"
    },
    {
      "inputs": [
        {
          "internalType": "uint256",
          "name": "gameId",
          "type": "uint256"
        }
      ],
      "name": "pay",
      "outputs": [],
      "stateMutability": "payable",
      "type": "function",
      "payable": true
    },
    {
      "inputs": [
        {
          "internalType": "uint256",
          "name": "gameID",
          "type": "uint256"
        },
        {
          "internalType": "uint8",
          "name": "cellID",
          "type": "uint8"
        }
      ],
      "name": "attack",
      "outputs": [],
      "stateMutability": "nonpayable",
      "type": "function"
    },
    {
      "inputs": [
        {
          "internalType": "uint256",
          "name": "gameID",
          "type": "uint256"
        },
        {
          "internalType": "uint8",
          "name": "value",
          "type": "uint8"
        },
        {
          "internalType": "bytes32[]",
          "name": "merkleProof",
          "type": "bytes32[]"
        }
      ],
      "name": "attackResponse",
      "outputs": [],
      "stateMutability": "payable",
      "type": "function",
      "payable": true
    },
    {
      "inputs": [
        {
          "internalType": "uint256",
          "name": "gameID",
          "type": "uint256"
        },
        {
          "internalType": "uint8[]",
          "name": "winnerBoard",
          "type": "uint8[]"
        }
      ],
      "name": "checkWinner",
      "outputs": [],
      "stateMutability": "payable",
      "type": "function",
      "payable": true
    },
    {
      "inputs": [
        {
          "internalType": "uint256",
          "name": "gameID",
          "type": "uint256"
        }
      ],
      "name": "afkPlayer",
      "outputs": [],
      "stateMutability": "nonpayable",
      "type": "function"
    },
    {
      "inputs": [
        {
          "internalType": "uint256",
          "name": "gameID",
          "type": "uint256"
        },
        {
          "internalType": "bytes32",
          "name": "boardHash",
          "type": "bytes32"
        }
      ],
      "name": "board",
      "outputs": [],
      "stateMutability": "nonpayable",
      "type": "function"
    }
  ],
  "bytecode": "0x6080604052600160005560006001556010600260006101000a81548160ff021916908360ff16021790555034801561003657600080fd5b5061411b806100466000396000f3fe6080604052600436106100865760003560e01c8063bbf344ce11610059578063bbf344ce14610115578063c290d6911461013e578063d6db26be1461015a578063eb80636814610183578063efaa55a0146101ac57610086565b80632b3bf33a1461008b5780636ffcc719146100a75780638a0efde1146100d05780639f3aa7f2146100ec575b600080fd5b6100a560048036038101906100a09190613651565b6101d5565b005b3480156100b357600080fd5b506100ce60048036038101906100c991906136ad565b610c92565b005b6100ea60048036038101906100e591906137e6565b6110bd565b005b3480156100f857600080fd5b50610113600480360381019061010e9190613855565b611af5565b005b34801561012157600080fd5b5061013c60048036038101906101379190613895565b611edd565b005b610158600480360381019061015391906138c2565b612282565b005b34801561016657600080fd5b50610181600480360381019061017c91906138c2565b612572565b005b34801561018f57600080fd5b506101aa60048036038101906101a591906138ef565b612c6b565b005b3480156101b857600080fd5b506101d360048036038101906101ce91906138c2565b612e7d565b005b6000821015610219576040517f08c379a00000000000000000000000000000000000000000000000000000000081526004016102109061398c565b60405180910390fd5b600054821061025d576040517f08c379a0000000000000000000000000000000000000000000000000000000008152600401610254906139f8565b60405180910390fd5b600015156003600084815260200190815260200160002060040160009054906101000a900460ff161515146102c7576040517f08c379a00000000000000000000000000000000000000000000000000000000081526004016102be90613a64565b60405180910390fd5b3373ffffffffffffffffffffffffffffffffffffffff166003600084815260200190815260200160002060000160009054906101000a900473ffffffffffffffffffffffffffffffffffffffff1673ffffffffffffffffffffffffffffffffffffffff161415801561039b57503373ffffffffffffffffffffffffffffffffffffffff166003600084815260200190815260200160002060010160009054906101000a900473ffffffffffffffffffffffffffffffffffffffff1673ffffffffffffffffffffffffffffffffffffffff1614155b610c8e5760003373ffffffffffffffffffffffffffffffffffffffff166003600085815260200190815260200160002060000160009054906101000a900473ffffffffffffffffffffffffffffffffffffffff1673ffffffffffffffffffffffffffffffffffffffff160361040f57600190505b801561058c5760006003600085815260200190815260200160002060070160039054906101000a900460ff1660ff1611156105875760016003600085815260200190815260200160002060040160006101000a81548160ff0219169083151502179055507f84f8e1147ed860fdcb13c73d1ec1bf4aa9cded9250811ad1067ea2e81b61affd836003600086815260200190815260200160002060010160009054906101000a900473ffffffffffffffffffffffffffffffffffffffff166040516104da929190613ad4565b60405180910390a16003600084815260200190815260200160002060010160009054906101000a900473ffffffffffffffffffffffffffffffffffffffff1673ffffffffffffffffffffffffffffffffffffffff166108fc600260036000878152602001908152602001600020600601546105559190613b2c565b9081150290604051600060405180830381858888f19350505050158015610580573d6000803e3d6000fd5b5050610c8e565b6106ff565b60006003600085815260200190815260200160002060070160029054906101000a900460ff1660ff1611156106fe5760016003600085815260200190815260200160002060040160006101000a81548160ff0219169083151502179055507f84f8e1147ed860fdcb13c73d1ec1bf4aa9cded9250811ad1067ea2e81b61affd836003600086815260200190815260200160002060000160009054906101000a900473ffffffffffffffffffffffffffffffffffffffff16604051610651929190613ad4565b60405180910390a16003600084815260200190815260200160002060000160009054906101000a900473ffffffffffffffffffffffffffffffffffffffff1673ffffffffffffffffffffffffffffffffffffffff166108fc600260036000878152602001908152602001600020600501546106cc9190613b2c565b9081150290604051600060405180830381858888f193505050501580156106f7573d6000803e3d6000fd5b5050610c8e565b5b6000805b83518160ff161015610759576001848260ff168151811061072757610726613b6e565b5b602002602001015160ff160361074657818061074290613b9d565b9250505b808061075190613b9d565b915050610703565b50600260009054906101000a900460ff1660ff168160ff1603610a045781156108c05760016003600086815260200190815260200160002060040160006101000a81548160ff0219169083151502179055507f84f8e1147ed860fdcb13c73d1ec1bf4aa9cded9250811ad1067ea2e81b61affd846003600087815260200190815260200160002060000160009054906101000a900473ffffffffffffffffffffffffffffffffffffffff16604051610812929190613ad4565b60405180910390a16003600085815260200190815260200160002060000160009054906101000a900473ffffffffffffffffffffffffffffffffffffffff1673ffffffffffffffffffffffffffffffffffffffff166108fc6002600360008881526020019081526020016000206005015461088d9190613b2c565b9081150290604051600060405180830381858888f193505050501580156108b8573d6000803e3d6000fd5b505050610c8e565b60016003600086815260200190815260200160002060040160006101000a81548160ff0219169083151502179055507f84f8e1147ed860fdcb13c73d1ec1bf4aa9cded9250811ad1067ea2e81b61affd846003600087815260200190815260200160002060010160009054906101000a900473ffffffffffffffffffffffffffffffffffffffff16604051610956929190613ad4565b60405180910390a16003600085815260200190815260200160002060010160009054906101000a900473ffffffffffffffffffffffffffffffffffffffff1673ffffffffffffffffffffffffffffffffffffffff166108fc600260036000888152602001908152602001600020600601546109d19190613b2c565b9081150290604051600060405180830381858888f193505050501580156109fc573d6000803e3d6000fd5b505050610c8e565b8115610b4e5760016003600086815260200190815260200160002060040160006101000a81548160ff0219169083151502179055507f84f8e1147ed860fdcb13c73d1ec1bf4aa9cded9250811ad1067ea2e81b61affd846003600087815260200190815260200160002060010160009054906101000a900473ffffffffffffffffffffffffffffffffffffffff16604051610aa0929190613ad4565b60405180910390a16003600085815260200190815260200160002060010160009054906101000a900473ffffffffffffffffffffffffffffffffffffffff1673ffffffffffffffffffffffffffffffffffffffff166108fc60026003600088815260200190815260200160002060060154610b1b9190613b2c565b9081150290604051600060405180830381858888f19350505050158015610b46573d6000803e3d6000fd5b505050610c8e565b60016003600086815260200190815260200160002060040160006101000a81548160ff0219169083151502179055507f84f8e1147ed860fdcb13c73d1ec1bf4aa9cded9250811ad1067ea2e81b61affd846003600087815260200190815260200160002060000160009054906101000a900473ffffffffffffffffffffffffffffffffffffffff16604051610be4929190613ad4565b60405180910390a16003600085815260200190815260200160002060000160009054906101000a900473ffffffffffffffffffffffffffffffffffffffff1673ffffffffffffffffffffffffffffffffffffffff166108fc60026003600088815260200190815260200160002060050154610c5f9190613b2c565b9081150290604051600060405180830381858888f19350505050158015610c8a573d6000803e3d6000fd5b5050505b5050565b6000821015610cd6576040517f08c379a0000000000000000000000000000000000000000000000000000000008152600401610ccd9061398c565b60405180910390fd5b6000548210610d1a576040517f08c379a0000000000000000000000000000000000000000000000000000000008152600401610d11906139f8565b60405180910390fd5b600015156003600084815260200190815260200160002060040160009054906101000a900460ff16151514610d84576040517f08c379a0000000000000000000000000000000000000000000000000000000008152600401610d7b90613a64565b60405180910390fd5b3373ffffffffffffffffffffffffffffffffffffffff166003600084815260200190815260200160002060000160009054906101000a900473ffffffffffffffffffffffffffffffffffffffff1673ffffffffffffffffffffffffffffffffffffffff1614158015610e5857503373ffffffffffffffffffffffffffffffffffffffff166003600084815260200190815260200160002060010160009054906101000a900473ffffffffffffffffffffffffffffffffffffffff1673ffffffffffffffffffffffffffffffffffffffff1614155b6110b9576003600083815260200190815260200160002060060154600360008481526020019081526020016000206005015403610eb7576000600360008481526020019081526020016000206005015414610eb257600080fd5b610ef0565b6003600083815260200190815260200160002060060154600360008481526020019081526020016000206005015403610eef57600080fd5b5b3373ffffffffffffffffffffffffffffffffffffffff166003600084815260200190815260200160002060000160009054906101000a900473ffffffffffffffffffffffffffffffffffffffff1673ffffffffffffffffffffffffffffffffffffffff1603610f75578060036000848152602001908152602001600020600501819055505b3373ffffffffffffffffffffffffffffffffffffffff166003600084815260200190815260200160002060010160009054906101000a900473ffffffffffffffffffffffffffffffffffffffff1673ffffffffffffffffffffffffffffffffffffffff1603610ffa578060036000848152602001908152602001600020600601819055505b7f2c7945bf3248598029aaee74e7a7c694cceba99c30ab722154f6e8315addb76933828460405161102d93929190613bc6565b60405180910390a160036000838152602001908152602001600020600601546003600084815260200190815260200160002060050154036110b8577f8cfe50bd5101dc31fd79c1afd658dc02788d2230e3db619e94293721c8db04c66003600084815260200190815260200160002060050154836040516110af929190613bfd565b60405180910390a15b5b5050565b6000831015611101576040517f08c379a00000000000000000000000000000000000000000000000000000000081526004016110f89061398c565b60405180910390fd5b6000548310611145576040517f08c379a000000000000000000000000000000000000000000000000000000000815260040161113c906139f8565b60405180910390fd5b600015156003600085815260200190815260200160002060040160009054906101000a900460ff161515146111af576040517f08c379a00000000000000000000000000000000000000000000000000000000081526004016111a690613a64565b60405180910390fd5b3373ffffffffffffffffffffffffffffffffffffffff166003600085815260200190815260200160002060000160009054906101000a900473ffffffffffffffffffffffffffffffffffffffff1673ffffffffffffffffffffffffffffffffffffffff160361125157600015156003600085815260200190815260200160002060090160009054906101000a900460ff1615151461124c57600080fd5b6112f9565b3373ffffffffffffffffffffffffffffffffffffffff166003600085815260200190815260200160002060010160009054906101000a900473ffffffffffffffffffffffffffffffffffffffff1673ffffffffffffffffffffffffffffffffffffffff16036112f357600115156003600085815260200190815260200160002060090160009054906101000a900460ff161515146112ee57600080fd5b6112f8565b611af0565b5b60006003600085815260200190815260200160002060090160019054906101000a900460ff16905060008260008151811061133757611336613b6e565b5b602002602001015190506000600190505b83518110156114415760006002846113609190613c55565b60ff16036113d95783818151811061137b5761137a613b6e565b5b602002602001015182146113d3578184828151811061139d5761139c613b6e565b5b60200260200101516040516020016113b6929190613ca7565b6040516020818303038152906040528051906020012091506113d4565b5b61141f565b8381815181106113ec576113eb613b6e565b5b602002602001015182604051602001611406929190613ca7565b6040516020818303038152906040528051906020012091505b60028361142c9190613cd3565b9250808061143990613d04565b915050611348565b503373ffffffffffffffffffffffffffffffffffffffff166003600087815260200190815260200160002060000160009054906101000a900473ffffffffffffffffffffffffffffffffffffffff1673ffffffffffffffffffffffffffffffffffffffff1603611770578060036000878152602001908152602001600020600201541461163c5760006003600087815260200190815260200160002060070160026101000a81548160ff021916908360ff16021790555060016003600087815260200190815260200160002060040160006101000a81548160ff0219169083151502179055507f84f8e1147ed860fdcb13c73d1ec1bf4aa9cded9250811ad1067ea2e81b61affd856003600088815260200190815260200160002060010160009054906101000a900473ffffffffffffffffffffffffffffffffffffffff1660405161158e929190613ad4565b60405180910390a16003600086815260200190815260200160002060010160009054906101000a900473ffffffffffffffffffffffffffffffffffffffff1673ffffffffffffffffffffffffffffffffffffffff166108fc600260036000898152602001908152602001600020600501546116099190613b2c565b9081150290604051600060405180830381858888f19350505050158015611634573d6000803e3d6000fd5b505050611af0565b60018460ff16036116945760036000868152602001908152602001600020600701600281819054906101000a900460ff168092919061167a90613d4c565b91906101000a81548160ff021916908360ff160217905550505b7f947c83f89088f787849558a38428bf2c2f946698539be2a66a0cac7cc199606c85856040516116c5929190613d84565b60405180910390a160006003600087815260200190815260200160002060070160029054906101000a900460ff1660ff160361176b577ff942afe004c76075b0ad49c8a2697d28413e511e135ed6576d2513d9ef0bf5f2856003600088815260200190815260200160002060000160009054906101000a900473ffffffffffffffffffffffffffffffffffffffff16604051611762929190613ad4565b60405180910390a15b611a9b565b3373ffffffffffffffffffffffffffffffffffffffff166003600087815260200190815260200160002060010160009054906101000a900473ffffffffffffffffffffffffffffffffffffffff1673ffffffffffffffffffffffffffffffffffffffff1603611a9a578060036000878152602001908152602001600020600301541461196a5760006003600087815260200190815260200160002060070160036101000a81548160ff021916908360ff16021790555060016003600087815260200190815260200160002060040160006101000a81548160ff0219169083151502179055507f84f8e1147ed860fdcb13c73d1ec1bf4aa9cded9250811ad1067ea2e81b61affd856003600088815260200190815260200160002060000160009054906101000a900473ffffffffffffffffffffffffffffffffffffffff166040516118bc929190613ad4565b60405180910390a16003600086815260200190815260200160002060000160009054906101000a900473ffffffffffffffffffffffffffffffffffffffff1673ffffffffffffffffffffffffffffffffffffffff166108fc600260036000898152602001908152602001600020600501546119379190613b2c565b9081150290604051600060405180830381858888f19350505050158015611962573d6000803e3d6000fd5b505050611af0565b60018460ff16036119c25760036000868152602001908152602001600020600701600381819054906101000a900460ff16809291906119a890613d4c565b91906101000a81548160ff021916908360ff160217905550505b7f947c83f89088f787849558a38428bf2c2f946698539be2a66a0cac7cc199606c85856040516119f3929190613d84565b60405180910390a160006003600087815260200190815260200160002060070160039054906101000a900460ff1660ff1603611a99577ff942afe004c76075b0ad49c8a2697d28413e511e135ed6576d2513d9ef0bf5f2856003600088815260200190815260200160002060000160009054906101000a900473ffffffffffffffffffffffffffffffffffffffff16604051611a90929190613ad4565b60405180910390a15b5b5b6003600086815260200190815260200160002060090160009054906101000a900460ff16156003600087815260200190815260200160002060090160006101000a81548160ff02191690831515021790555050505b505050565b6000821015611b39576040517f08c379a0000000000000000000000000000000000000000000000000000000008152600401611b309061398c565b60405180910390fd5b6000548210611b7d576040517f08c379a0000000000000000000000000000000000000000000000000000000008152600401611b74906139f8565b60405180910390fd5b600015156003600084815260200190815260200160002060040160009054906101000a900460ff16151514611be7576040517f08c379a0000000000000000000000000000000000000000000000000000000008152600401611bde90613a64565b60405180910390fd5b6003600083815260200190815260200160002060010160149054906101000a900460ff166003600084815260200190815260200160002060010160149054906101000a900460ff16611c399190613dad565b60ff168160ff1610611c4a57600080fd5b3373ffffffffffffffffffffffffffffffffffffffff166003600084815260200190815260200160002060000160009054906101000a900473ffffffffffffffffffffffffffffffffffffffff1673ffffffffffffffffffffffffffffffffffffffff1603611cec57600115156003600084815260200190815260200160002060090160009054906101000a900460ff16151514611ce757600080fd5b611d94565b3373ffffffffffffffffffffffffffffffffffffffff166003600084815260200190815260200160002060010160009054906101000a900473ffffffffffffffffffffffffffffffffffffffff1673ffffffffffffffffffffffffffffffffffffffff1603611d8e57600015156003600084815260200190815260200160002060090160009054906101000a900460ff16151514611d8957600080fd5b611d93565b611ed9565b5b3373ffffffffffffffffffffffffffffffffffffffff166003600084815260200190815260200160002060070160049054906101000a900473ffffffffffffffffffffffffffffffffffffffff1673ffffffffffffffffffffffffffffffffffffffff1603611e705760006003600084815260200190815260200160002060070160046101000a81548173ffffffffffffffffffffffffffffffffffffffff021916908373ffffffffffffffffffffffffffffffffffffffff160217905550600060036000848152602001908152602001600020600801819055505b806003600084815260200190815260200160002060090160016101000a81548160ff021916908360ff1602179055507fc280882498990ef85d0e9ab56571c30cb4dff4e685ce905f3caaac3ec98c6fb78282604051611ed0929190613d84565b60405180910390a15b5050565b7f72c5d3a1559eb2bbdb341b459f9be7a20ddd182562d779fc4decb64e69678de433600054604051611f10929190613dea565b60405180910390a133600360008054815260200190815260200160002060000160006101000a81548173ffffffffffffffffffffffffffffffffffffffff021916908373ffffffffffffffffffffffffffffffffffffffff1602179055506000600360008054815260200190815260200160002060010160006101000a81548173ffffffffffffffffffffffffffffffffffffffff021916908373ffffffffffffffffffffffffffffffffffffffff16021790555080600360008054815260200190815260200160002060010160146101000a81548160ff021916908360ff1602179055506000600360008054815260200190815260200160002060040160006101000a81548160ff021916908315150217905550600060036000805481526020019081526020016000206005018190555060006003600080548152602001908152602001600020600601819055506000801b6003600080548152602001908152602001600020600201819055506000801b6003600080548152602001908152602001600020600301819055506000600360008054815260200190815260200160002060070160006101000a81548160ff0219169083151502179055506000600360008054815260200190815260200160002060070160016101000a81548160ff021916908315150217905550600260009054906101000a900460ff16600360008054815260200190815260200160002060070160026101000a81548160ff021916908360ff160217905550600260009054906101000a900460ff16600360008054815260200190815260200160002060070160036101000a81548160ff021916908360ff1602179055506000600360008054815260200190815260200160002060070160046101000a81548173ffffffffffffffffffffffffffffffffffffffff021916908373ffffffffffffffffffffffffffffffffffffffff16021790555060006003600080548152602001908152602001600020600801819055506001600360008054815260200190815260200160002060090160006101000a81548160ff0219169083151502179055506000600360008054815260200190815260200160002060090160016101000a81548160ff021916908360ff16021790555060008081548092919061226290613d04565b91905055506001600081548092919061227a90613d04565b919050555050565b60008110156122c6576040517f08c379a00000000000000000000000000000000000000000000000000000000081526004016122bd9061398c565b60405180910390fd5b600054811061230a576040517f08c379a0000000000000000000000000000000000000000000000000000000008152600401612301906139f8565b60405180910390fd5b600015156003600083815260200190815260200160002060040160009054906101000a900460ff16151514612374576040517f08c379a000000000000000000000000000000000000000000000000000000000815260040161236b90613a64565b60405180910390fd5b3373ffffffffffffffffffffffffffffffffffffffff166003600083815260200190815260200160002060000160009054906101000a900473ffffffffffffffffffffffffffffffffffffffff1673ffffffffffffffffffffffffffffffffffffffff160361242b573460036000838152602001908152602001600020600501540361242a5760016003600083815260200190815260200160002060070160006101000a81548160ff0219169083151502179055505b5b3373ffffffffffffffffffffffffffffffffffffffff166003600083815260200190815260200160002060010160009054906101000a900473ffffffffffffffffffffffffffffffffffffffff1673ffffffffffffffffffffffffffffffffffffffff16036124e257346003600083815260200190815260200160002060050154036124e15760016003600083815260200190815260200160002060070160016101000a81548160ff0219169083151502179055505b5b6003600082815260200190815260200160002060070160009054906101000a900460ff16801561253257506003600082815260200190815260200160002060070160019054906101000a900460ff165b1561256f577f89d296e0b0d0ef2bd13830476724f0af14967da173593250e67e6924f1f9163a816040516125669190613e13565b60405180910390a15b50565b600054811061258057600080fd5b6000811161258d57600080fd5b600015156003600083815260200190815260200160002060040160009054906101000a900460ff161515146125f7576040517f08c379a00000000000000000000000000000000000000000000000000000000081526004016125ee90613a64565b60405180910390fd5b3373ffffffffffffffffffffffffffffffffffffffff166003600083815260200190815260200160002060000160009054906101000a900473ffffffffffffffffffffffffffffffffffffffff1673ffffffffffffffffffffffffffffffffffffffff160361269957600015156003600083815260200190815260200160002060090160009054906101000a900460ff1615151461269457600080fd5b612741565b3373ffffffffffffffffffffffffffffffffffffffff166003600083815260200190815260200160002060010160009054906101000a900473ffffffffffffffffffffffffffffffffffffffff1673ffffffffffffffffffffffffffffffffffffffff160361273b57600115156003600083815260200190815260200160002060090160009054906101000a900460ff1615151461273657600080fd5b612740565b612c68565b5b60003373ffffffffffffffffffffffffffffffffffffffff166003600084815260200190815260200160002060000160009054906101000a900473ffffffffffffffffffffffffffffffffffffffff1673ffffffffffffffffffffffffffffffffffffffff16036127e6576003600083815260200190815260200160002060010160009054906101000a900473ffffffffffffffffffffffffffffffffffffffff1690505b3373ffffffffffffffffffffffffffffffffffffffff166003600084815260200190815260200160002060010160009054906101000a900473ffffffffffffffffffffffffffffffffffffffff1673ffffffffffffffffffffffffffffffffffffffff1603612889576003600083815260200190815260200160002060000160009054906101000a900473ffffffffffffffffffffffffffffffffffffffff1690505b6000600360008481526020019081526020016000206008015414612bea5760036000838152602001908152602001600020600801544310612be9576003600083815260200190815260200160002060010160009054906101000a900473ffffffffffffffffffffffffffffffffffffffff1673ffffffffffffffffffffffffffffffffffffffff166003600084815260200190815260200160002060070160049054906101000a900473ffffffffffffffffffffffffffffffffffffffff1673ffffffffffffffffffffffffffffffffffffffff1603612aa65760016003600084815260200190815260200160002060040160006101000a81548160ff0219169083151502179055507f84f8e1147ed860fdcb13c73d1ec1bf4aa9cded9250811ad1067ea2e81b61affd826003600085815260200190815260200160002060000160009054906101000a900473ffffffffffffffffffffffffffffffffffffffff166040516129f9929190613ad4565b60405180910390a16003600083815260200190815260200160002060000160009054906101000a900473ffffffffffffffffffffffffffffffffffffffff1673ffffffffffffffffffffffffffffffffffffffff166108fc60026003600086815260200190815260200160002060050154612a749190613b2c565b9081150290604051600060405180830381858888f19350505050158015612a9f573d6000803e3d6000fd5b5050612c68565b60016003600084815260200190815260200160002060040160006101000a81548160ff0219169083151502179055507f84f8e1147ed860fdcb13c73d1ec1bf4aa9cded9250811ad1067ea2e81b61affd826003600085815260200190815260200160002060010160009054906101000a900473ffffffffffffffffffffffffffffffffffffffff16604051612b3c929190613ad4565b60405180910390a16003600083815260200190815260200160002060010160009054906101000a900473ffffffffffffffffffffffffffffffffffffffff1673ffffffffffffffffffffffffffffffffffffffff166108fc60026003600086815260200190815260200160002060060154612bb79190613b2c565b9081150290604051600060405180830381858888f19350505050158015612be2573d6000803e3d6000fd5b5050612c68565b5b600543612bf79190613e2e565b6003600084815260200190815260200160002060080181905550806003600084815260200190815260200160002060070160046101000a81548173ffffffffffffffffffffffffffffffffffffffff021916908373ffffffffffffffffffffffffffffffffffffffff160217905550505b50565b6000548210612c7957600080fd5b60008211612c8657600080fd5b600015156003600084815260200190815260200160002060040160009054906101000a900460ff16151514612cf0576040517f08c379a0000000000000000000000000000000000000000000000000000000008152600401612ce790613a64565b60405180910390fd5b3373ffffffffffffffffffffffffffffffffffffffff166003600084815260200190815260200160002060000160009054906101000a900473ffffffffffffffffffffffffffffffffffffffff1673ffffffffffffffffffffffffffffffffffffffff1603612d75578060036000848152602001908152602001600020600201819055505b3373ffffffffffffffffffffffffffffffffffffffff166003600084815260200190815260200160002060010160009054906101000a900473ffffffffffffffffffffffffffffffffffffffff1673ffffffffffffffffffffffffffffffffffffffff1603612dfa578060036000848152602001908152602001600020600301819055505b6000801b600360008481526020019081526020016000206002015414158015612e3c57506000801b600360008481526020019081526020016000206003015414155b15612e79577f12333b322723ec26360eb708b341801ecca576387b55caa77d6e408107d2c70f82604051612e709190613e13565b60405180910390a15b5050565b6000811015612ec1576040517f08c379a0000000000000000000000000000000000000000000000000000000008152600401612eb89061398c565b60405180910390fd5b6000548110612f05576040517f08c379a0000000000000000000000000000000000000000000000000000000008152600401612efc906139f8565b60405180910390fd5b600060015411612f4a576040517f08c379a0000000000000000000000000000000000000000000000000000000008152600401612f4190613eae565b60405180910390fd5b600015156003600083815260200190815260200160002060040160009054906101000a900460ff16151514612fb4576040517f08c379a0000000000000000000000000000000000000000000000000000000008152600401612fab90613a64565b60405180910390fd5b60008103613225576000600143612fcb9190613ece565b4090506000602067ffffffffffffffff811115612feb57612fea6134d5565b5b6040519080825280601f01601f19166020018201604052801561301d5781602001600182028036833780820191505090505b50905060005b60208110156130985782816020811061303f5761303e613b6e565b5b1a60f81b82828151811061305657613055613b6e565b5b60200101907effffffffffffffffffffffffffffffffffffffffffffffffffffffffffffff1916908160001a905350808061309090613d04565b915050613023565b506000818051906020012090506000600180548360001c6130b99190613f02565b6130c39190613e2e565b90506000600190505b6000548110156131d85760008203156131d857600073ffffffffffffffffffffffffffffffffffffffff166003600083815260200190815260200160002060010160009054906101000a900473ffffffffffffffffffffffffffffffffffffffff1673ffffffffffffffffffffffffffffffffffffffff16036131c557818061315490613f33565b9250503373ffffffffffffffffffffffffffffffffffffffff166003600083815260200190815260200160002060000160009054906101000a900473ffffffffffffffffffffffffffffffffffffffff1673ffffffffffffffffffffffffffffffffffffffff16146131c4578095505b5b80806131d090613d04565b9150506130cc565b506000850361321c576040517f08c379a000000000000000000000000000000000000000000000000000000000815260040161321390613fa8565b60405180910390fd5b5050505061336f565b3373ffffffffffffffffffffffffffffffffffffffff166003600083815260200190815260200160002060000160009054906101000a900473ffffffffffffffffffffffffffffffffffffffff1673ffffffffffffffffffffffffffffffffffffffff16036132c9576040517f08c379a00000000000000000000000000000000000000000000000000000000081526004016132c090614014565b60405180910390fd5b600073ffffffffffffffffffffffffffffffffffffffff166003600083815260200190815260200160002060010160009054906101000a900473ffffffffffffffffffffffffffffffffffffffff1673ffffffffffffffffffffffffffffffffffffffff161461336e576040517f08c379a000000000000000000000000000000000000000000000000000000000815260040161336590614080565b60405180910390fd5b5b336003600083815260200190815260200160002060010160006101000a81548173ffffffffffffffffffffffffffffffffffffffff021916908373ffffffffffffffffffffffffffffffffffffffff160217905550600160008154809291906133d790613f33565b91905055507f276a7f782d740627e426973b863f244fee07739e8e648ddc3cb52485808b04d36003600083815260200190815260200160002060000160009054906101000a900473ffffffffffffffffffffffffffffffffffffffff1633836003600086815260200190815260200160002060010160149054906101000a900460ff1660405161346a94939291906140a0565b60405180910390a150565b6000604051905090565b600080fd5b600080fd5b6000819050919050565b61349c81613489565b81146134a757600080fd5b50565b6000813590506134b981613493565b92915050565b600080fd5b6000601f19601f8301169050919050565b7f4e487b7100000000000000000000000000000000000000000000000000000000600052604160045260246000fd5b61350d826134c4565b810181811067ffffffffffffffff8211171561352c5761352b6134d5565b5b80604052505050565b600061353f613475565b905061354b8282613504565b919050565b600067ffffffffffffffff82111561356b5761356a6134d5565b5b602082029050602081019050919050565b600080fd5b600060ff82169050919050565b61359781613581565b81146135a257600080fd5b50565b6000813590506135b48161358e565b92915050565b60006135cd6135c884613550565b613535565b905080838252602082019050602084028301858111156135f0576135ef61357c565b5b835b81811015613619578061360588826135a5565b8452602084019350506020810190506135f2565b5050509392505050565b600082601f830112613638576136376134bf565b5b81356136488482602086016135ba565b91505092915050565b600080604083850312156136685761366761347f565b5b6000613676858286016134aa565b925050602083013567ffffffffffffffff81111561369757613696613484565b5b6136a385828601613623565b9150509250929050565b600080604083850312156136c4576136c361347f565b5b60006136d2858286016134aa565b92505060206136e3858286016134aa565b9150509250929050565b600067ffffffffffffffff821115613708576137076134d5565b5b602082029050602081019050919050565b6000819050919050565b61372c81613719565b811461373757600080fd5b50565b60008135905061374981613723565b92915050565b600061376261375d846136ed565b613535565b905080838252602082019050602084028301858111156137855761378461357c565b5b835b818110156137ae578061379a888261373a565b845260208401935050602081019050613787565b5050509392505050565b600082601f8301126137cd576137cc6134bf565b5b81356137dd84826020860161374f565b91505092915050565b6000806000606084860312156137ff576137fe61347f565b5b600061380d868287016134aa565b935050602061381e868287016135a5565b925050604084013567ffffffffffffffff81111561383f5761383e613484565b5b61384b868287016137b8565b9150509250925092565b6000806040838503121561386c5761386b61347f565b5b600061387a858286016134aa565b925050602061388b858286016135a5565b9150509250929050565b6000602082840312156138ab576138aa61347f565b5b60006138b9848285016135a5565b91505092915050565b6000602082840312156138d8576138d761347f565b5b60006138e6848285016134aa565b91505092915050565b600080604083850312156139065761390561347f565b5b6000613914858286016134aa565b92505060206139258582860161373a565b9150509250929050565b600082825260208201905092915050565b7f4944206d7573742062652067726561746572207468616e203000000000000000600082015250565b600061397660198361392f565b915061398182613940565b602082019050919050565b600060208201905081810360008301526139a581613969565b9050919050565b7f47616d65206e6f74206f70656e00000000000000000000000000000000000000600082015250565b60006139e2600d8361392f565b91506139ed826139ac565b602082019050919050565b60006020820190508181036000830152613a11816139d5565b9050919050565b7f5468652067616d65206973206f76657200000000000000000000000000000000600082015250565b6000613a4e60108361392f565b9150613a5982613a18565b602082019050919050565b60006020820190508181036000830152613a7d81613a41565b9050919050565b613a8d81613489565b82525050565b600073ffffffffffffffffffffffffffffffffffffffff82169050919050565b6000613abe82613a93565b9050919050565b613ace81613ab3565b82525050565b6000604082019050613ae96000830185613a84565b613af66020830184613ac5565b9392505050565b7f4e487b7100000000000000000000000000000000000000000000000000000000600052601160045260246000fd5b6000613b3782613489565b9150613b4283613489565b9250828202613b5081613489565b91508282048414831517613b6757613b66613afd565b5b5092915050565b7f4e487b7100000000000000000000000000000000000000000000000000000000600052603260045260246000fd5b6000613ba882613581565b915060ff8203613bbb57613bba613afd565b5b600182019050919050565b6000606082019050613bdb6000830186613ac5565b613be86020830185613a84565b613bf56040830184613a84565b949350505050565b6000604082019050613c126000830185613a84565b613c1f6020830184613a84565b9392505050565b7f4e487b7100000000000000000000000000000000000000000000000000000000600052601260045260246000fd5b6000613c6082613581565b9150613c6b83613581565b925082613c7b57613c7a613c26565b5b828206905092915050565b6000819050919050565b613ca1613c9c82613719565b613c86565b82525050565b6000613cb38285613c90565b602082019150613cc38284613c90565b6020820191508190509392505050565b6000613cde82613581565b9150613ce983613581565b925082613cf957613cf8613c26565b5b828204905092915050565b6000613d0f82613489565b91507fffffffffffffffffffffffffffffffffffffffffffffffffffffffffffffffff8203613d4157613d40613afd565b5b600182019050919050565b6000613d5782613581565b915060008203613d6a57613d69613afd565b5b600182039050919050565b613d7e81613581565b82525050565b6000604082019050613d996000830185613a84565b613da66020830184613d75565b9392505050565b6000613db882613581565b9150613dc383613581565b9250828202613dd181613581565b9150808214613de357613de2613afd565b5b5092915050565b6000604082019050613dff6000830185613ac5565b613e0c6020830184613a84565b9392505050565b6000602082019050613e286000830184613a84565b92915050565b6000613e3982613489565b9150613e4483613489565b9250828201905080821115613e5c57613e5b613afd565b5b92915050565b7f4e6f2067616d657320617661696c61626c650000000000000000000000000000600082015250565b6000613e9860128361392f565b9150613ea382613e62565b602082019050919050565b60006020820190508181036000830152613ec781613e8b565b9050919050565b6000613ed982613489565b9150613ee483613489565b9250828203905081811115613efc57613efb613afd565b5b92915050565b6000613f0d82613489565b9150613f1883613489565b925082613f2857613f27613c26565b5b828206905092915050565b6000613f3e82613489565b915060008203613f5157613f50613afd565b5b600182039050919050565b7f4d61746368206e6f7420666f756e640000000000000000000000000000000000600082015250565b6000613f92600f8361392f565b9150613f9d82613f5c565b602082019050919050565b60006020820190508181036000830152613fc181613f85565b9050919050565b7f596f752063616e6e6f74206a6f696e20796f7572206f776e2067616d65000000600082015250565b6000613ffe601d8361392f565b915061400982613fc8565b602082019050919050565b6000602082019050818103600083015261402d81613ff1565b9050919050565b7f47616d6520616c7265616479206861732074776f20706c617965727300000000600082015250565b600061406a601c8361392f565b915061407582614034565b602082019050919050565b600060208201905081810360008301526140998161405d565b9050919050565b60006080820190506140b56000830187613ac5565b6140c26020830186613ac5565b6140cf6040830185613a84565b6140dc6060830184613d75565b9594505050505056fea2646970667358221220ba17c8d20107cf083eed62ab62dfe0e5da6f97f6807bd87df8c96d6593dd92ed64736f6c63430008130033",
  "immutableReferences": {},
  "source": "// SPDX-License-Identifier: MIT\npragma solidity >=0.4.22 <0.9.0;\n\ncontract Battleship {\n  uint256 private nextGameID = 1;\n  uint256 private counter = 0;  //conta il numero di partite aperte\n  uint8 shipNumber = 16;\n\n  struct Game {\n    address player;\n    address enemy;    //address(0): non c' il giocatore\n    uint8 boardDimension;\n    bytes32 playerGridHash;\n    bytes32 enemyGridHash;\n    bool ended;       //false: la partita non  finita; true: la partita  finita\n    uint playerOffer;\n    uint enemyOffer;\n    bool playerPay;   //false: il giocatore non ha pagato\n    bool enemyPay;    //false: enemy non ha pagato\n    uint8 playerHitSum; \n    uint8 enemyHitSum;\n    address afk;\n    uint afkBlock;\n    bool turn;        //false: enemy turn; true: player turn\n    uint8 cellIDAttacked;\n  }\n\n  mapping (uint256 => Game) private games;\n  event NewGameCreated(address player, uint256 idGame);\n  event JoinedGame(address player, address enemy, uint256 idGame, uint8 boardDimension);\n  event OfferReceived(address bidder, uint offer, uint256 idGame);\n  event CommonOffer(uint offer, uint256 idGame);\n  event SetGame(uint256 idGame);\n  event StartGame(uint256 idGame);\n  event AttackedCell(uint256 idGame, uint8 cell);\n  event AttackResponse(uint256 idGame, uint8 response);\n  event EndGame(uint256 idGame, address winner);\n  event ReceiveBoard(uint256 idGame, address check);\n\n  function newGame(uint8 dimension) public {\n    emit NewGameCreated(msg.sender, nextGameID);\n    games[nextGameID].player = msg.sender;\n    games[nextGameID].enemy = address(0);\n    games[nextGameID].boardDimension = dimension;\n    games[nextGameID].ended = false;\n    games[nextGameID].playerOffer = 0;\n    games[nextGameID].enemyOffer = 0;\n    games[nextGameID].playerGridHash = 0;\n    games[nextGameID].enemyGridHash = 0;\n    games[nextGameID].playerPay = false;\n    games[nextGameID].enemyPay = false;\n    games[nextGameID].playerHitSum = shipNumber;\n    games[nextGameID].enemyHitSum = shipNumber;\n    games[nextGameID].afk = address(0);\n    games[nextGameID].afkBlock = 0;\n    games[nextGameID].turn = true;\n    games[nextGameID].cellIDAttacked = 0;\n    nextGameID++;\n    counter++;\n  }\n\n  function joinGame(uint256 gameId) public {   //gestisce sia il random che non\n    require(gameId >= 0, \"ID must be greater than 0\");\n    require(gameId < nextGameID, \"Game not open\");\n    require(counter > 0, \"No games available\");\n    require(games[gameId].ended == false, \"The game is over\");\n\n    //randomness\n    if(gameId == 0) {\n      bytes32 bhash = blockhash(block.number - 1);\n      bytes memory bytesArray = new bytes(32);\n      for (uint i; i < 32; i++) {\n          bytesArray[i] = bhash[i];\n      }\n      bytes32 rand = keccak256(bytesArray);\n      uint256 index = uint256(rand) % counter + 1;\n\n      for(uint256 j = 1; j < nextGameID; j++) {\n        if(index == 0) {\n          break;\n        }\n        if(games[j].enemy == address(0)) {\n          index--;\n          if(games[j].player != msg.sender)   //un giocatore non pu unirsi alla sua stessa partita\n            gameId = j;\n        }\n      }\n      if(gameId == 0)\n        revert(\"Match not found\");\n    }\n    //not random\n    else {\n      if(games[gameId].player == msg.sender)\n        revert(\"You cannot join your own game\"); \n      if(games[gameId].enemy != address(0))\n        revert(\"Game already has two players\");      \n    }\n    games[gameId].enemy = msg.sender;\n    counter--;\n    emit JoinedGame(games[gameId].player, msg.sender, gameId, games[gameId].boardDimension);\n  } \n\n  function bet(uint256 gameId, uint offer) public {\n    require(gameId >= 0, \"ID must be greater than 0\");\n    require(gameId < nextGameID, \"Game not open\");\n    require(games[gameId].ended == false, \"The game is over\");\n    if (games[gameId].player != msg.sender && games[gameId].enemy != msg.sender)\n      return;\n    \n    if (games[gameId].playerOffer == games[gameId].enemyOffer) require(games[gameId].playerOffer == 0);\n    else require(games[gameId].playerOffer != games[gameId].enemyOffer);\n\n    if (games[gameId].player == msg.sender) games[gameId].playerOffer = offer;\n    if (games[gameId].enemy == msg.sender) games[gameId].enemyOffer = offer;\n\n    emit OfferReceived(msg.sender, offer, gameId);\n\n    if (games[gameId].playerOffer == games[gameId].enemyOffer)\n      emit CommonOffer(games[gameId].playerOffer, gameId);\n\n  }\n\n  function pay(uint256 gameId) public payable {\n    require(gameId >= 0, \"ID must be greater than 0\");\n    require(gameId < nextGameID, \"Game not open\");\n    require(games[gameId].ended == false, \"The game is over\");  \n\n    if (games[gameId].player == msg.sender) {\n      if(games[gameId].playerOffer == msg.value)\n        games[gameId].playerPay = true;\n    }\n    if (games[gameId].enemy == msg.sender) {\n      if(games[gameId].playerOffer == msg.value)\n        games[gameId].enemyPay = true;\n    }\n    \n    if(games[gameId].playerPay && games[gameId].enemyPay) emit SetGame(gameId);\n  }\n\n  function attack(uint256 gameID, uint8 cellID) public {\n    require(gameID >= 0, \"ID must be greater than 0\");\n    require(gameID < nextGameID, \"Game not open\");\n    require(games[gameID].ended == false, \"The game is over\");\n    require(cellID < games[gameID].boardDimension * games[gameID].boardDimension);\n\n    if (games[gameID].player == msg.sender) require(games[gameID].turn == true);\n    else if (games[gameID].enemy == msg.sender) require(games[gameID].turn == false);\n    else return;\n\n    if(games[gameID].afk == msg.sender) {\n      games[gameID].afk = address(0);\n      games[gameID].afkBlock = 0;\n    }\n    games[gameID].cellIDAttacked = cellID;\n    emit AttackedCell(gameID, cellID);\n  }\n\n  function attackResponse(uint256 gameID, uint8 value, bytes32[] memory merkleProof) public payable{\n    require(gameID >= 0, \"ID must be greater than 0\");\n    require(gameID < nextGameID, \"Game not open\");\n    require(games[gameID].ended == false, \"The game is over\");\n\n    if (games[gameID].player == msg.sender) require(games[gameID].turn == false);\n    else if (games[gameID].enemy == msg.sender) require(games[gameID].turn == true);\n    else return;\n\n    uint8 target = games[gameID].cellIDAttacked;\n    bytes32 proofRoot = merkleProof[0];\n    for(uint i = 1; i < merkleProof.length; i++) {\n      if(target%2 == 0) {\n        if(proofRoot != merkleProof[i])\n          proofRoot = keccak256(abi.encodePacked(proofRoot, merkleProof[i]));\n        else\n          proofRoot = proofRoot;\n      }\n      else\n        proofRoot = keccak256(abi.encodePacked(merkleProof[i], proofRoot));\n      \n      target = target / 2;\n    }\n\n    if (games[gameID].player == msg.sender) {\n      if(games[gameID].playerGridHash != proofRoot) { //player is cheater\n        games[gameID].playerHitSum = 0;\n        games[gameID].ended = true;\n        emit EndGame(gameID, games[gameID].enemy);\n        payable(games[gameID].enemy).transfer(games[gameID].playerOffer * 2);\n        return;\n      }\n      if(value == 1) \n        games[gameID].playerHitSum--;\n      emit AttackResponse(gameID, value);\n\n      if(games[gameID].playerHitSum == 0)\n        emit ReceiveBoard(gameID, games[gameID].player);\n    }\n    else if (games[gameID].enemy == msg.sender) {\n      if(games[gameID].enemyGridHash != proofRoot) {  //enemy is cheater\n        games[gameID].enemyHitSum = 0;\n        games[gameID].ended = true;\n        emit EndGame(gameID, games[gameID].player);\n        payable(games[gameID].player).transfer(games[gameID].playerOffer * 2);\n        return;\n      }\n      if(value == 1) \n        games[gameID].enemyHitSum--;\n      emit AttackResponse(gameID, value);\n\n      if(games[gameID].enemyHitSum == 0)\n        emit ReceiveBoard(gameID, games[gameID].player);\n    }\n    \n    games[gameID].turn = !games[gameID].turn;\n  }\n\n  function checkWinner(uint256 gameID, uint8[] memory winnerBoard) public payable {\n    require(gameID >= 0, \"ID must be greater than 0\");\n    require(gameID < nextGameID, \"Game not open\");\n    require(games[gameID].ended == false, \"The game is over\");\n    if (games[gameID].player != msg.sender && games[gameID].enemy != msg.sender)\n      return;\n\n    //Controllo che non sia stata chiamata per imbrogliare\n    bool caller = false;  //false: enemy; true: player\n    if (games[gameID].player == msg.sender) caller = true;\n\n    if(caller) {\n      if(games[gameID].enemyHitSum > 0) {           //non ho abbattuto tutte le navi del nemico\n        games[gameID].ended = true;\n        emit EndGame(gameID, games[gameID].enemy);\n        payable(games[gameID].enemy).transfer(games[gameID].enemyOffer * 2);\n        return;\n      }\n    }\n    else {\n      if(games[gameID].playerHitSum > 0) {          //non ho abbattuto tutte le navi del player\n        games[gameID].ended = true;\n        emit EndGame(gameID, games[gameID].player);\n        payable(games[gameID].player).transfer(games[gameID].playerOffer * 2);\n        return;\n      }\n    }\n    uint8 shipsOnBoard = 0;\n    for(uint8 i = 0; i < winnerBoard.length; i++) {\n      if(winnerBoard[i] == 1) \n        shipsOnBoard++;\n    }\n    \n    if(shipsOnBoard == shipNumber) {\n      if(caller) {\n        games[gameID].ended = true;\n        emit EndGame(gameID, games[gameID].player);\n        payable(games[gameID].player).transfer(games[gameID].playerOffer * 2);\n        return;\n      }\n      else {\n        games[gameID].ended = true;\n        emit EndGame(gameID, games[gameID].enemy);\n        payable(games[gameID].enemy).transfer(games[gameID].enemyOffer * 2);\n        return;\n      }\n    }\n    else {\n      if(caller) {\n        games[gameID].ended = true;\n        emit EndGame(gameID, games[gameID].enemy);\n        payable(games[gameID].enemy).transfer(games[gameID].enemyOffer * 2);\n        return;\n      }\n      else {\n        games[gameID].ended = true;\n        emit EndGame(gameID, games[gameID].player);\n        payable(games[gameID].player).transfer(games[gameID].playerOffer * 2);\n        return;\n      }\n    }\n\n  }\n\n  function afkPlayer(uint256 gameID) public {\n    require(gameID < nextGameID);\n    require(gameID > 0);\n    require(games[gameID].ended == false, \"The game is over\");\n\n    if (games[gameID].player == msg.sender) require(games[gameID].turn == false);\n    else if (games[gameID].enemy == msg.sender) require(games[gameID].turn == true);\n    else return;\n\n    address afkTarget;\n    if(games[gameID].player == msg.sender) afkTarget = games[gameID].enemy;\n    if(games[gameID].enemy == msg.sender) afkTarget = games[gameID].player;\n    \n    if(games[gameID].afkBlock != 0){\n      if(block.number >= games[gameID].afkBlock){\n        if(games[gameID].afk == games[gameID].enemy) {  //Enemy AFK: player won.\n          games[gameID].ended = true;\n          emit EndGame(gameID, games[gameID].player);\n          payable(games[gameID].player).transfer(games[gameID].playerOffer * 2);\n          return;\n        }\n        else {      //Player AFK: enemy won.\n          games[gameID].ended = true;\n          emit EndGame(gameID, games[gameID].enemy);\n          payable(games[gameID].enemy).transfer(games[gameID].enemyOffer * 2);\n          return;\n        }\n      }\n    } \n    games[gameID].afkBlock = block.number + 5;\n    games[gameID].afk = afkTarget;\n    return;\n\n  }\n\n  function board(uint256 gameID, bytes32 boardHash) public {\n    require(gameID < nextGameID);\n    require(gameID > 0);\n    require(games[gameID].ended == false, \"The game is over\");\n    \n    if (games[gameID].player == msg.sender) games[gameID].playerGridHash = boardHash;\n    if (games[gameID].enemy == msg.sender) games[gameID].enemyGridHash = boardHash;\n    \n    if(games[gameID].playerGridHash != 0 && games[gameID].enemyGridHash != 0) emit StartGame(gameID);\n  }\n\n}\n",
  "sourcePath": "/home/luca/block/solidity_projects/project/contracts/Battleship.sol",
  "compiler": {
    "name": "solc",
    "version": "0.8.19+commit.7dd6d404.Emscripten.clang"
  },
  "schemaVersion": "3.4.13",
  "updatedAt": "2023-06-15T15:53:43.646Z",
  "networkType": "ethereum",
  "devdoc": {
    "kind": "dev",
    "methods": {},
    "version": 1
  },
  "userdoc": {
    "kind": "user",
    "methods": {},
    "version": 1
  }
}